{
  "_format": "hh-sol-artifact-1",
  "contractName": "Account",
  "sourceName": "contracts/Account.sol",
  "abi": [
    {
      "inputs": [
        {
          "internalType": "address",
          "name": "_crossChainExecutorList",
          "type": "address"
        }
      ],
      "stateMutability": "nonpayable",
      "type": "constructor"
    },
    {
      "inputs": [],
      "name": "AccountLocked",
      "type": "error"
    },
    {
      "inputs": [],
      "name": "ExceedsMaxLockTime",
      "type": "error"
    },
    {
      "inputs": [
        {
          "internalType": "uint256",
          "name": "_size",
          "type": "uint256"
        },
        {
          "internalType": "uint256",
          "name": "_start",
          "type": "uint256"
        },
        {
          "internalType": "uint256",
          "name": "_end",
          "type": "uint256"
        }
      ],
      "name": "InvalidCodeAtRange",
      "type": "error"
    },
    {
      "inputs": [],
      "name": "NotAuthorized",
      "type": "error"
    },
    {
      "anonymous": false,
      "inputs": [
        {
          "indexed": true,
          "internalType": "address",
          "name": "account",
          "type": "address"
        },
        {
          "indexed": true,
          "internalType": "address",
          "name": "operator",
          "type": "address"
        },
        {
          "indexed": false,
          "internalType": "bool",
          "name": "approved",
          "type": "bool"
        }
      ],
      "name": "ApprovalForAll",
      "type": "event"
    },
    {
      "anonymous": false,
      "inputs": [
        {
          "indexed": false,
          "internalType": "address",
          "name": "from",
          "type": "address"
        },
        {
          "indexed": false,
          "internalType": "address",
          "name": "to",
          "type": "address"
        },
        {
          "indexed": false,
          "internalType": "uint256[]",
          "name": "tokenIds",
          "type": "uint256[]"
        },
        {
          "indexed": false,
          "internalType": "uint256[]",
          "name": "amounts",
          "type": "uint256[]"
        }
      ],
      "name": "BatchErc1155TokensTransferred",
      "type": "event"
    },
    {
      "anonymous": false,
      "inputs": [
        {
          "indexed": false,
          "internalType": "address",
          "name": "from",
          "type": "address"
        },
        {
          "indexed": false,
          "internalType": "address",
          "name": "to",
          "type": "address"
        },
        {
          "indexed": false,
          "internalType": "uint256",
          "name": "tokenId",
          "type": "uint256"
        },
        {
          "indexed": false,
          "internalType": "uint256",
          "name": "amount",
          "type": "uint256"
        }
      ],
      "name": "ERC1155TokenTransferred",
      "type": "event"
    },
    {
      "anonymous": false,
      "inputs": [
        {
          "indexed": true,
          "internalType": "address",
          "name": "owner",
          "type": "address"
        },
        {
          "indexed": true,
          "internalType": "address",
          "name": "spender",
          "type": "address"
        },
        {
          "indexed": false,
          "internalType": "uint256",
          "name": "value",
          "type": "uint256"
        }
      ],
      "name": "ERC20Approval",
      "type": "event"
    },
    {
      "anonymous": false,
      "inputs": [
        {
          "indexed": false,
          "internalType": "address",
          "name": "from",
          "type": "address"
        },
        {
          "indexed": false,
          "internalType": "address",
          "name": "to",
          "type": "address"
        },
        {
          "indexed": false,
          "internalType": "uint256",
          "name": "tokenId",
          "type": "uint256"
        }
      ],
      "name": "ERC2OTokenTransferred",
      "type": "event"
    },
    {
      "anonymous": false,
      "inputs": [
        {
          "indexed": true,
          "internalType": "address",
          "name": "owner",
          "type": "address"
        },
        {
          "indexed": true,
          "internalType": "address",
          "name": "approved",
          "type": "address"
        },
        {
          "indexed": true,
          "internalType": "uint256",
          "name": "tokenId",
          "type": "uint256"
        }
      ],
      "name": "ERC721Approval",
      "type": "event"
    },
    {
      "anonymous": false,
      "inputs": [
        {
          "indexed": false,
          "internalType": "address",
          "name": "owner",
          "type": "address"
        },
        {
          "indexed": false,
          "internalType": "address",
          "name": "executor",
          "type": "address"
        }
      ],
      "name": "ExecutorUpdated",
      "type": "event"
    },
    {
      "anonymous": false,
      "inputs": [
        {
          "indexed": false,
          "internalType": "uint256",
          "name": "timestamp",
          "type": "uint256"
        }
      ],
      "name": "LockUpdated",
      "type": "event"
    },
    {
      "anonymous": false,
      "inputs": [
        {
          "indexed": false,
          "internalType": "address",
          "name": "from",
          "type": "address"
        },
        {
          "indexed": false,
          "internalType": "address",
          "name": "to",
          "type": "address"
        },
        {
          "indexed": false,
          "internalType": "uint256",
          "name": "tokenId",
          "type": "uint256"
        }
      ],
      "name": "NFTTransferred",
      "type": "event"
    },
    {
      "stateMutability": "payable",
      "type": "fallback"
    },
    {
      "inputs": [
        {
          "internalType": "address",
          "name": "tokenCollection",
          "type": "address"
        },
        {
          "internalType": "address",
          "name": "spender",
          "type": "address"
        },
        {
          "internalType": "uint256",
          "name": "amount",
          "type": "uint256"
        }
      ],
      "name": "ApproveERC20Tokens",
      "outputs": [],
      "stateMutability": "nonpayable",
      "type": "function"
    },
    {
      "inputs": [
        {
          "internalType": "address",
          "name": "tokenCollection",
          "type": "address"
        },
        {
          "internalType": "address",
          "name": "spender",
          "type": "address"
        },
        {
          "internalType": "uint256",
          "name": "tokenId",
          "type": "uint256"
        }
      ],
      "name": "ApproveERC721Tokens",
      "outputs": [],
      "stateMutability": "nonpayable",
      "type": "function"
    },
    {
      "inputs": [
        {
          "internalType": "address",
          "name": "tokenCollection",
          "type": "address"
        },
        {
          "internalType": "address",
          "name": "to",
          "type": "address"
        },
        {
          "internalType": "uint256[]",
          "name": "tokenIds",
          "type": "uint256[]"
        },
        {
          "internalType": "uint256[]",
          "name": "amounts",
          "type": "uint256[]"
        }
      ],
      "name": "batchTransferERC1155Tokens",
      "outputs": [],
      "stateMutability": "nonpayable",
      "type": "function"
    },
    {
      "inputs": [],
      "name": "crossChainExecutorList",
      "outputs": [
        {
          "internalType": "contract CrossChainExecutorList",
          "name": "",
          "type": "address"
        }
      ],
      "stateMutability": "view",
      "type": "function"
    },
    {
      "inputs": [
        {
          "internalType": "address",
          "name": "to",
          "type": "address"
        },
        {
          "internalType": "uint256",
          "name": "value",
          "type": "uint256"
        },
        {
          "internalType": "bytes",
          "name": "data",
          "type": "bytes"
        }
      ],
      "name": "executeCall",
      "outputs": [
        {
          "internalType": "bytes",
          "name": "result",
          "type": "bytes"
        }
      ],
      "stateMutability": "payable",
      "type": "function"
    },
    {
      "inputs": [
        {
          "internalType": "address",
          "name": "to",
          "type": "address"
        },
        {
          "internalType": "uint256",
          "name": "value",
          "type": "uint256"
        },
        {
          "internalType": "bytes",
          "name": "data",
          "type": "bytes"
        }
      ],
      "name": "executeCrossChainCall",
      "outputs": [
        {
          "internalType": "bytes",
          "name": "result",
          "type": "bytes"
        }
      ],
      "stateMutability": "payable",
      "type": "function"
    },
    {
      "inputs": [
        {
          "internalType": "address",
          "name": "to",
          "type": "address"
        },
        {
          "internalType": "uint256",
          "name": "value",
          "type": "uint256"
        },
        {
          "internalType": "bytes",
          "name": "data",
          "type": "bytes"
        }
      ],
      "name": "executeTrustedCall",
      "outputs": [
        {
          "internalType": "bytes",
          "name": "result",
          "type": "bytes"
        }
      ],
      "stateMutability": "payable",
      "type": "function"
    },
    {
      "inputs": [
        {
          "internalType": "address",
          "name": "",
          "type": "address"
        }
      ],
      "name": "executor",
      "outputs": [
        {
          "internalType": "address",
          "name": "",
          "type": "address"
        }
      ],
      "stateMutability": "view",
      "type": "function"
    },
    {
      "inputs": [
        {
          "internalType": "address",
          "name": "caller",
          "type": "address"
        }
      ],
      "name": "isAuthorized",
      "outputs": [
        {
          "internalType": "bool",
          "name": "",
          "type": "bool"
        }
      ],
      "stateMutability": "view",
      "type": "function"
    },
    {
      "inputs": [],
      "name": "isLocked",
      "outputs": [
        {
          "internalType": "bool",
          "name": "",
          "type": "bool"
        }
      ],
      "stateMutability": "view",
      "type": "function"
    },
    {
      "inputs": [
        {
          "internalType": "bytes32",
          "name": "hash",
          "type": "bytes32"
        },
        {
          "internalType": "bytes",
          "name": "signature",
          "type": "bytes"
        }
      ],
      "name": "isValidSignature",
      "outputs": [
        {
          "internalType": "bytes4",
          "name": "magicValue",
          "type": "bytes4"
        }
      ],
      "stateMutability": "view",
      "type": "function"
    },
    {
      "inputs": [
        {
          "internalType": "uint256",
          "name": "_unlockTimestamp",
          "type": "uint256"
        }
      ],
      "name": "lock",
      "outputs": [],
      "stateMutability": "nonpayable",
      "type": "function"
    },
    {
      "inputs": [
        {
          "internalType": "address",
          "name": "",
          "type": "address"
        },
        {
          "internalType": "address",
          "name": "",
          "type": "address"
        },
        {
          "internalType": "uint256[]",
          "name": "",
          "type": "uint256[]"
        },
        {
          "internalType": "uint256[]",
          "name": "",
          "type": "uint256[]"
        },
        {
          "internalType": "bytes",
          "name": "",
          "type": "bytes"
        }
      ],
      "name": "onERC1155BatchReceived",
      "outputs": [
        {
          "internalType": "bytes4",
          "name": "",
          "type": "bytes4"
        }
      ],
      "stateMutability": "nonpayable",
      "type": "function"
    },
    {
      "inputs": [
        {
          "internalType": "address",
          "name": "",
          "type": "address"
        },
        {
          "internalType": "address",
          "name": "",
          "type": "address"
        },
        {
          "internalType": "uint256",
          "name": "",
          "type": "uint256"
        },
        {
          "internalType": "uint256",
          "name": "",
          "type": "uint256"
        },
        {
          "internalType": "bytes",
          "name": "",
          "type": "bytes"
        }
      ],
      "name": "onERC1155Received",
      "outputs": [
        {
          "internalType": "bytes4",
          "name": "",
          "type": "bytes4"
        }
      ],
      "stateMutability": "nonpayable",
      "type": "function"
    },
    {
      "inputs": [
        {
          "internalType": "address",
          "name": "",
          "type": "address"
        },
        {
          "internalType": "address",
          "name": "",
          "type": "address"
        },
        {
          "internalType": "uint256",
          "name": "",
          "type": "uint256"
        },
        {
          "internalType": "bytes",
          "name": "",
          "type": "bytes"
        }
      ],
      "name": "onERC721Received",
      "outputs": [
        {
          "internalType": "bytes4",
          "name": "",
          "type": "bytes4"
        }
      ],
      "stateMutability": "nonpayable",
      "type": "function"
    },
    {
      "inputs": [],
      "name": "owner",
      "outputs": [
        {
          "internalType": "address",
          "name": "",
          "type": "address"
        }
      ],
      "stateMutability": "view",
      "type": "function"
    },
    {
      "inputs": [
        {
          "internalType": "address",
          "name": "tokenCollection",
          "type": "address"
        },
        {
          "internalType": "address",
          "name": "operator",
          "type": "address"
        },
        {
          "internalType": "bool",
          "name": "approved",
          "type": "bool"
        }
      ],
      "name": "setApprovalForAllERC1155",
      "outputs": [],
      "stateMutability": "nonpayable",
      "type": "function"
    },
    {
      "inputs": [
        {
          "internalType": "address",
          "name": "_executionModule",
          "type": "address"
        }
      ],
      "name": "setExecutor",
      "outputs": [],
      "stateMutability": "nonpayable",
      "type": "function"
    },
    {
      "inputs": [
        {
          "internalType": "bytes4",
          "name": "interfaceId",
          "type": "bytes4"
        }
      ],
      "name": "supportsInterface",
      "outputs": [
        {
          "internalType": "bool",
          "name": "",
          "type": "bool"
        }
      ],
      "stateMutability": "view",
      "type": "function"
    },
    {
      "inputs": [],
      "name": "token",
      "outputs": [
        {
          "internalType": "address",
          "name": "tokenCollection",
          "type": "address"
        },
        {
          "internalType": "uint256",
          "name": "tokenId",
          "type": "uint256"
        }
      ],
      "stateMutability": "view",
      "type": "function"
    },
    {
      "inputs": [
        {
          "internalType": "address",
          "name": "tokenCollection",
          "type": "address"
        },
        {
          "internalType": "address",
          "name": "to",
          "type": "address"
        },
        {
          "internalType": "uint256",
          "name": "tokenId",
          "type": "uint256"
        },
        {
          "internalType": "uint256",
          "name": "amount",
          "type": "uint256"
        }
      ],
      "name": "transferERC1155Tokens",
      "outputs": [],
      "stateMutability": "nonpayable",
      "type": "function"
    },
    {
      "inputs": [
        {
          "internalType": "address",
          "name": "tokenCollection",
          "type": "address"
        },
        {
          "internalType": "address",
          "name": "to",
          "type": "address"
        },
        {
          "internalType": "uint256",
          "name": "amount",
          "type": "uint256"
        }
      ],
      "name": "transferERC20Tokens",
      "outputs": [],
      "stateMutability": "nonpayable",
      "type": "function"
    },
    {
      "inputs": [
        {
          "internalType": "address",
          "name": "tokenCollection",
          "type": "address"
        },
        {
          "internalType": "address",
          "name": "to",
          "type": "address"
        },
        {
          "internalType": "uint256",
          "name": "tokenId",
          "type": "uint256"
        }
      ],
      "name": "transferERC721Tokens",
      "outputs": [],
      "stateMutability": "nonpayable",
      "type": "function"
    },
    {
      "inputs": [
        {
          "internalType": "address",
          "name": "tokenCollection",
          "type": "address"
        },
        {
          "internalType": "address",
          "name": "from",
          "type": "address"
        },
        {
          "internalType": "address",
          "name": "to",
          "type": "address"
        },
        {
          "internalType": "uint256",
          "name": "tokenId",
          "type": "uint256"
        }
      ],
      "name": "transferERC721TokensFrom",
      "outputs": [],
      "stateMutability": "nonpayable",
      "type": "function"
    },
    {
      "inputs": [
        {
          "internalType": "address",
          "name": "tokenCollection",
          "type": "address"
        },
        {
          "internalType": "address",
          "name": "from",
          "type": "address"
        },
        {
          "internalType": "address",
          "name": "to",
          "type": "address"
        },
        {
          "internalType": "uint256",
          "name": "amount",
          "type": "uint256"
        }
      ],
      "name": "transferFromERC20Tokens",
      "outputs": [],
      "stateMutability": "nonpayable",
      "type": "function"
    },
    {
      "inputs": [],
      "name": "unlockTimestamp",
      "outputs": [
        {
          "internalType": "uint256",
          "name": "",
          "type": "uint256"
        }
      ],
      "stateMutability": "view",
      "type": "function"
    },
    {
      "stateMutability": "payable",
      "type": "receive"
    }
  ],
  "bytecode": "0x60a060405234801562000010575f80fd5b5060405162004120380380620041208339818101604052810190620000369190620000d6565b8073ffffffffffffffffffffffffffffffffffffffff1660808173ffffffffffffffffffffffffffffffffffffffff16815250505062000106565b5f80fd5b5f73ffffffffffffffffffffffffffffffffffffffff82169050919050565b5f620000a08262000075565b9050919050565b620000b28162000094565b8114620000bd575f80fd5b50565b5f81519050620000d081620000a7565b92915050565b5f60208284031215620000ee57620000ed62000071565b5b5f620000fd84828501620000c0565b91505092915050565b608051613ff36200012d5f395f818161181101528181611b63015261234d0152613ff35ff3fe608060405260043610610184575f3560e01c80639cd40673116100d0578063bc197c8111610089578063dd46706411610063578063dd4670641461067b578063f23a6e61146106a3578063fc0c546a146106df578063fe9fbb801461070a5761018b565b8063bc197c81146105ef578063c41c9a611461062b578063cc27be46146106535761018b565b80639cd40673146104eb5780639e5d4c4914610513578063a4e2d63414610543578063aa082a9d1461056d578063ab2481b714610597578063b96e3465146105c75761018b565b806348c7e5281161013d57806377c9cb7c1161011757806377c9cb7c1461043f5780637cdc02521461046757806387002135146104975780638da5cb5b146104c15761018b565b806348c7e528146103b357806365ed19f5146103ef5780636cd5dc5b146104175761018b565b806301ffc9a71461028757806313a4d7ad146102c3578063150b7a02146102eb5780631626ba7e146103275780631c3c0ea8146103635780632204a6b31461038b5761018b565b3661018b57005b5f366060425f5411156101ca576040517f6315bfbb00000000000000000000000000000000000000000000000000000000815260040160405180910390fd5b5f6101d3610746565b90505f60015f8373ffffffffffffffffffffffffffffffffffffffff1673ffffffffffffffffffffffffffffffffffffffff1681526020019081526020015f205f9054906101000a900473ffffffffffffffffffffffffffffffffffffffff1690505f8173ffffffffffffffffffffffffffffffffffffffff163b0361026b5760405180602001604052805f8152509250505061027c565b610277815f87876107eb565b925050505b915050805190602001f35b348015610292575f80fd5b506102ad60048036038101906102a89190612b52565b610874565b6040516102ba9190612b97565b60405180910390f35b3480156102ce575f80fd5b506102e960048036038101906102e49190612d8d565b610b04565b005b3480156102f6575f80fd5b50610311600480360381019061030c9190612ed9565b610d4d565b60405161031e9190612f68565b60405180910390f35b348015610332575f80fd5b5061034d60048036038101906103489190612fb4565b610d60565b60405161035a9190612f68565b60405180910390f35b34801561036e575f80fd5b506103896004803603810190610384919061300e565b610e63565b005b348015610396575f80fd5b506103b160048036038101906103ac9190613063565b610fc6565b005b3480156103be575f80fd5b506103d960048036038101906103d4919061300e565b61114e565b6040516103e691906130c2565b60405180910390f35b3480156103fa575f80fd5b50610415600480360381019061041091906130db565b61117e565b005b348015610422575f80fd5b5061043d600480360381019061043891906130db565b611355565b005b34801561044a575f80fd5b506104656004803603810190610460919061312b565b61153d565b005b610481600480360381019061047c91906131e8565b6116ef565b60405161048e91906132d3565b60405180910390f35b3480156104a2575f80fd5b506104ab61180f565b6040516104b8919061334e565b60405180910390f35b3480156104cc575f80fd5b506104d5610746565b6040516104e291906130c2565b60405180910390f35b3480156104f6575f80fd5b50610511600480360381019061050c9190613367565b611833565b005b61052d600480360381019061052891906131e8565b611a0b565b60405161053a91906132d3565b60405180910390f35b34801561054e575f80fd5b50610557611acf565b6040516105649190612b97565b60405180910390f35b348015610578575f80fd5b50610581611ad9565b60405161058e91906133da565b60405180910390f35b6105b160048036038101906105ac91906131e8565b611ade565b6040516105be91906132d3565b60405180910390f35b3480156105d2575f80fd5b506105ed60048036038101906105e89190613367565b611c48565b005b3480156105fa575f80fd5b50610615600480360381019061061091906133f3565b611e09565b6040516106229190612f68565b60405180910390f35b348015610636575f80fd5b50610651600480360381019061064c91906130db565b611e1d565b005b34801561065e575f80fd5b50610679600480360381019061067491906130db565b611fdb565b005b348015610686575f80fd5b506106a1600480360381019061069c91906134be565b6121d0565b005b3480156106ae575f80fd5b506106c960048036038101906106c491906134e9565b612305565b6040516106d69190612f68565b60405180910390f35b3480156106ea575f80fd5b506106f3612319565b60405161070192919061357c565b60405180910390f35b348015610715575f80fd5b50610730600480360381019061072b919061300e565b612332565b60405161073d9190612b97565b60405180910390f35b5f805f80610752612559565b92509250925046831461076a575f93505050506107e8565b8173ffffffffffffffffffffffffffffffffffffffff16636352211e826040518263ffffffff1660e01b81526004016107a391906133da565b602060405180830381865afa1580156107be573d5f803e3d5ffd5b505050506040513d601f19601f820116820180604052508101906107e291906135b7565b93505050505b90565b60605f8573ffffffffffffffffffffffffffffffffffffffff16858585604051610816929190613610565b5f6040518083038185875af1925050503d805f8114610850576040519150601f19603f3d011682016040523d82523d5f602084013e610855565b606091505b5080935081925050508061086b57815160208301fd5b50949350505050565b5f7feff4d378000000000000000000000000000000000000000000000000000000007bffffffffffffffffffffffffffffffffffffffffffffffffffffffff1916827bffffffffffffffffffffffffffffffffffffffffffffffffffffffff1916148061093e57507f4e2312e0000000000000000000000000000000000000000000000000000000007bffffffffffffffffffffffffffffffffffffffffffffffffffffffff1916827bffffffffffffffffffffffffffffffffffffffffffffffffffffffff1916145b806109a657507f01ffc9a7000000000000000000000000000000000000000000000000000000007bffffffffffffffffffffffffffffffffffffffffffffffffffffffff1916827bffffffffffffffffffffffffffffffffffffffffffffffffffffffff1916145b156109b45760019050610aff565b5f60015f6109c0610746565b73ffffffffffffffffffffffffffffffffffffffff1673ffffffffffffffffffffffffffffffffffffffff1681526020019081526020015f205f9054906101000a900473ffffffffffffffffffffffffffffffffffffffff1690505f73ffffffffffffffffffffffffffffffffffffffff168173ffffffffffffffffffffffffffffffffffffffff161480610a6b57505f8173ffffffffffffffffffffffffffffffffffffffff163b145b15610a79575f915050610aff565b8073ffffffffffffffffffffffffffffffffffffffff166301ffc9a7846040518263ffffffff1660e01b8152600401610ab29190612f68565b602060405180830381865afa925050508015610aec57506040513d601f19601f82011682018060405250810190610ae9919061363c565b60015b610af9575f915050610aff565b80925050505b919050565b425f541115610b3f576040517f6315bfbb00000000000000000000000000000000000000000000000000000000815260040160405180910390fd5b610b476125a0565b8051825114610b8b576040517f08c379a0000000000000000000000000000000000000000000000000000000008152600401610b82906136e7565b60405180910390fd5b5f8490505f5b8351811015610c9c57828181518110610bad57610bac613705565b5b60200260200101518273ffffffffffffffffffffffffffffffffffffffff1662fdd58e30878581518110610be457610be3613705565b5b60200260200101516040518363ffffffff1660e01b8152600401610c0992919061357c565b602060405180830381865afa158015610c24573d5f803e3d5ffd5b505050506040513d601f19601f82011682018060405250810190610c489190613746565b1015610c89576040517f08c379a0000000000000000000000000000000000000000000000000000000008152600401610c80906137e1565b60405180910390fd5b8080610c949061382c565b915050610b91565b508073ffffffffffffffffffffffffffffffffffffffff16632eb2c2d6308686866040518563ffffffff1660e01b8152600401610cdc949392919061394d565b5f604051808303815f87803b158015610cf3575f80fd5b505af1158015610d05573d5f803e3d5ffd5b505050507f4436a461aa59807387858679f09fcffd161d54d4e12f6bb1c59b7edd28974ffb30858585604051610d3e94939291906139b1565b60405180910390a15050505050565b5f63150b7a0260e01b9050949350505050565b5f425f541115610d72575f9050610e5d565b5f610d7b610746565b90505f60015f8373ffffffffffffffffffffffffffffffffffffffff1673ffffffffffffffffffffffffffffffffffffffff1681526020019081526020015f205f9054906101000a900473ffffffffffffffffffffffffffffffffffffffff1690505f73ffffffffffffffffffffffffffffffffffffffff168173ffffffffffffffffffffffffffffffffffffffff1614158015610e205750610e1f818686612625565b5b15610e3657631626ba7e60e01b92505050610e5d565b610e41828686612625565b15610e5757631626ba7e60e01b92505050610e5d565b5f925050505b92915050565b425f541115610e9e576040517f6315bfbb00000000000000000000000000000000000000000000000000000000815260040160405180910390fd5b5f610ea7610746565b90503373ffffffffffffffffffffffffffffffffffffffff168173ffffffffffffffffffffffffffffffffffffffff1614610f0e576040517fea8e4eb500000000000000000000000000000000000000000000000000000000815260040160405180910390fd5b8160015f8373ffffffffffffffffffffffffffffffffffffffff1673ffffffffffffffffffffffffffffffffffffffff1681526020019081526020015f205f6101000a81548173ffffffffffffffffffffffffffffffffffffffff021916908373ffffffffffffffffffffffffffffffffffffffff1602179055507f0ef3c7eb9dbcf33ddf032f4cce366a07eda85eed03e3172e4a90c4cc16d578868183604051610fba929190613a02565b60405180910390a15050565b425f541115611001576040517f6315bfbb00000000000000000000000000000000000000000000000000000000815260040160405180910390fd5b6110096125a0565b5f8390503073ffffffffffffffffffffffffffffffffffffffff168373ffffffffffffffffffffffffffffffffffffffff161461107b576040517f08c379a000000000000000000000000000000000000000000000000000000000815260040161107290613a99565b60405180910390fd5b8073ffffffffffffffffffffffffffffffffffffffff1663a22cb46584846040518363ffffffff1660e01b81526004016110b6929190613ab7565b5f604051808303815f87803b1580156110cd575f80fd5b505af11580156110df573d5f803e3d5ffd5b505050508273ffffffffffffffffffffffffffffffffffffffff163073ffffffffffffffffffffffffffffffffffffffff167f17307eab39ab6107e8899845ad3d59bd9653f200f220920489ca2b5937696c31846040516111409190612b97565b60405180910390a350505050565b6001602052805f5260405f205f915054906101000a900473ffffffffffffffffffffffffffffffffffffffff1681565b425f5411156111b9576040517f6315bfbb00000000000000000000000000000000000000000000000000000000815260040160405180910390fd5b6111c16125a0565b5f8390503073ffffffffffffffffffffffffffffffffffffffff168173ffffffffffffffffffffffffffffffffffffffff16636352211e846040518263ffffffff1660e01b815260040161121591906133da565b602060405180830381865afa158015611230573d5f803e3d5ffd5b505050506040513d601f19601f8201168201806040525081019061125491906135b7565b73ffffffffffffffffffffffffffffffffffffffff16146112aa576040517f08c379a00000000000000000000000000000000000000000000000000000000081526004016112a190613b4e565b60405180910390fd5b8073ffffffffffffffffffffffffffffffffffffffff166342842e0e3085856040518463ffffffff1660e01b81526004016112e793929190613b6c565b5f604051808303815f87803b1580156112fe575f80fd5b505af1158015611310573d5f803e3d5ffd5b505050507f209eb5082bc3bcbd509ae679a680b3bb2a11b77fea542a93e205020af76529fc30848460405161134793929190613b6c565b60405180910390a150505050565b425f541115611390576040517f6315bfbb00000000000000000000000000000000000000000000000000000000815260040160405180910390fd5b6113986125a0565b5f839050818173ffffffffffffffffffffffffffffffffffffffff166370a08231306040518263ffffffff1660e01b81526004016113d691906130c2565b602060405180830381865afa1580156113f1573d5f803e3d5ffd5b505050506040513d601f19601f820116820180604052508101906114159190613746565b1015611456576040517f08c379a000000000000000000000000000000000000000000000000000000000815260040161144d90613c11565b60405180910390fd5b8073ffffffffffffffffffffffffffffffffffffffff1663095ea7b384846040518363ffffffff1660e01b815260040161149192919061357c565b6020604051808303815f875af11580156114ad573d5f803e3d5ffd5b505050506040513d601f19601f820116820180604052508101906114d1919061363c565b508273ffffffffffffffffffffffffffffffffffffffff163073ffffffffffffffffffffffffffffffffffffffff167f1f01303a1ce9329d9963e1937c201e23c5543a9e3536e9edead087aec7dc6d838460405161152f91906133da565b60405180910390a350505050565b425f541115611578576040517f6315bfbb00000000000000000000000000000000000000000000000000000000815260040160405180910390fd5b6115806125a0565b5f849050818173ffffffffffffffffffffffffffffffffffffffff1662fdd58e30866040518363ffffffff1660e01b81526004016115bf92919061357c565b602060405180830381865afa1580156115da573d5f803e3d5ffd5b505050506040513d601f19601f820116820180604052508101906115fe9190613746565b101561163f576040517f08c379a0000000000000000000000000000000000000000000000000000000008152600401611636906137e1565b60405180910390fd5b8073ffffffffffffffffffffffffffffffffffffffff1663f242432a308686866040518563ffffffff1660e01b815260040161167e9493929190613c2f565b5f604051808303815f87803b158015611695575f80fd5b505af11580156116a7573d5f803e3d5ffd5b505050507fc213eb01c377ef500aa4997001339c53cf03a2ad2e3eda05c49227199e5350cd308585856040516116e09493929190613c85565b60405180910390a15050505050565b6060425f54111561172c576040517f6315bfbb00000000000000000000000000000000000000000000000000000000815260040160405180910390fd5b5f60015f611738610746565b73ffffffffffffffffffffffffffffffffffffffff1673ffffffffffffffffffffffffffffffffffffffff1681526020019081526020015f205f9054906101000a900473ffffffffffffffffffffffffffffffffffffffff1690508073ffffffffffffffffffffffffffffffffffffffff163373ffffffffffffffffffffffffffffffffffffffff16146117f8576040517fea8e4eb500000000000000000000000000000000000000000000000000000000815260040160405180910390fd5b611804868686866107eb565b915050949350505050565b7f000000000000000000000000000000000000000000000000000000000000000081565b425f54111561186e576040517f6315bfbb00000000000000000000000000000000000000000000000000000000815260040160405180910390fd5b6118766125a0565b5f8490503073ffffffffffffffffffffffffffffffffffffffff168173ffffffffffffffffffffffffffffffffffffffff1663081812fc846040518263ffffffff1660e01b81526004016118ca91906133da565b602060405180830381865afa1580156118e5573d5f803e3d5ffd5b505050506040513d601f19601f8201168201806040525081019061190991906135b7565b73ffffffffffffffffffffffffffffffffffffffff161461195f576040517f08c379a000000000000000000000000000000000000000000000000000000000815260040161195690613d38565b60405180910390fd5b8073ffffffffffffffffffffffffffffffffffffffff166342842e0e8585856040518463ffffffff1660e01b815260040161199c93929190613b6c565b5f604051808303815f87803b1580156119b3575f80fd5b505af11580156119c5573d5f803e3d5ffd5b505050507f209eb5082bc3bcbd509ae679a680b3bb2a11b77fea542a93e205020af76529fc8484846040516119fc93929190613b6c565b60405180910390a15050505050565b6060425f541115611a48576040517f6315bfbb00000000000000000000000000000000000000000000000000000000815260040160405180910390fd5b5f611a51610746565b90508073ffffffffffffffffffffffffffffffffffffffff163373ffffffffffffffffffffffffffffffffffffffff1614611ab8576040517fea8e4eb500000000000000000000000000000000000000000000000000000000815260040160405180910390fd5b611ac4868686866107eb565b915050949350505050565b5f425f5411905090565b5f5481565b6060425f541115611b1b576040517f6315bfbb00000000000000000000000000000000000000000000000000000000815260040160405180910390fd5b5f611b24612559565b50509050468103611b61576040517fea8e4eb500000000000000000000000000000000000000000000000000000000815260040160405180910390fd5b7f000000000000000000000000000000000000000000000000000000000000000073ffffffffffffffffffffffffffffffffffffffff1663c8552afd82336040518363ffffffff1660e01b8152600401611bbc929190613d56565b602060405180830381865afa158015611bd7573d5f803e3d5ffd5b505050506040513d601f19601f82011682018060405250810190611bfb919061363c565b611c31576040517fea8e4eb500000000000000000000000000000000000000000000000000000000815260040160405180910390fd5b611c3d868686866107eb565b915050949350505050565b425f541115611c83576040517f6315bfbb00000000000000000000000000000000000000000000000000000000815260040160405180910390fd5b611c8b6125a0565b5f849050818173ffffffffffffffffffffffffffffffffffffffff166370a08231866040518263ffffffff1660e01b8152600401611cc991906130c2565b602060405180830381865afa158015611ce4573d5f803e3d5ffd5b505050506040513d601f19601f82011682018060405250810190611d089190613746565b1015611d49576040517f08c379a0000000000000000000000000000000000000000000000000000000008152600401611d4090613c11565b60405180910390fd5b8073ffffffffffffffffffffffffffffffffffffffff166323b872dd8585856040518463ffffffff1660e01b8152600401611d8693929190613b6c565b6020604051808303815f875af1158015611da2573d5f803e3d5ffd5b505050506040513d601f19601f82011682018060405250810190611dc6919061363c565b507f7b3e80143f975cbd2c8d35c7e09d8e4a5cd7c79246f76a73ca1ea592bdfcb8a5848484604051611dfa93929190613b6c565b60405180910390a15050505050565b5f63bc197c8160e01b905095945050505050565b425f541115611e58576040517f6315bfbb00000000000000000000000000000000000000000000000000000000815260040160405180910390fd5b611e606125a0565b5f839050818173ffffffffffffffffffffffffffffffffffffffff166370a08231306040518263ffffffff1660e01b8152600401611e9e91906130c2565b602060405180830381865afa158015611eb9573d5f803e3d5ffd5b505050506040513d601f19601f82011682018060405250810190611edd9190613746565b1015611f1e576040517f08c379a0000000000000000000000000000000000000000000000000000000008152600401611f1590613c11565b60405180910390fd5b8073ffffffffffffffffffffffffffffffffffffffff1663a9059cbb84846040518363ffffffff1660e01b8152600401611f5992919061357c565b6020604051808303815f875af1158015611f75573d5f803e3d5ffd5b505050506040513d601f19601f82011682018060405250810190611f99919061363c565b507f7b3e80143f975cbd2c8d35c7e09d8e4a5cd7c79246f76a73ca1ea592bdfcb8a5308484604051611fcd93929190613b6c565b60405180910390a150505050565b425f541115612016576040517f6315bfbb00000000000000000000000000000000000000000000000000000000815260040160405180910390fd5b61201e6125a0565b5f8390503073ffffffffffffffffffffffffffffffffffffffff168173ffffffffffffffffffffffffffffffffffffffff16636352211e846040518263ffffffff1660e01b815260040161207291906133da565b602060405180830381865afa15801561208d573d5f803e3d5ffd5b505050506040513d601f19601f820116820180604052508101906120b191906135b7565b73ffffffffffffffffffffffffffffffffffffffff1614612107576040517f08c379a00000000000000000000000000000000000000000000000000000000081526004016120fe90613b4e565b60405180910390fd5b8073ffffffffffffffffffffffffffffffffffffffff1663095ea7b384846040518363ffffffff1660e01b815260040161214292919061357c565b5f604051808303815f87803b158015612159575f80fd5b505af115801561216b573d5f803e3d5ffd5b50505050818373ffffffffffffffffffffffffffffffffffffffff163073ffffffffffffffffffffffffffffffffffffffff167f797365dabb18fa726ccbccbe18c6f24c34e3b0653f2e99ea873bd7b84763dde660405160405180910390a450505050565b425f54111561220b576040517f6315bfbb00000000000000000000000000000000000000000000000000000000815260040160405180910390fd5b6301e133804261221b9190613d7d565b811115612254576040517f0c0a7be800000000000000000000000000000000000000000000000000000000815260040160405180910390fd5b5f61225d610746565b90503373ffffffffffffffffffffffffffffffffffffffff168173ffffffffffffffffffffffffffffffffffffffff16146122c4576040517fea8e4eb500000000000000000000000000000000000000000000000000000000815260040160405180910390fd5b815f819055507fa7b24c66dd3269a292a60b3facdbb8f3e7557d1e19e64d99e0d6ee7250be63ad826040516122f991906133da565b60405180910390a15050565b5f63f23a6e6160e01b905095945050505050565b5f80612323612559565b90915080925081935050509091565b5f805f8061233e612559565b9250925092504683146123ef577f000000000000000000000000000000000000000000000000000000000000000073ffffffffffffffffffffffffffffffffffffffff1663c8552afd84876040518363ffffffff1660e01b81526004016123a6929190613d56565b602060405180830381865afa1580156123c1573d5f803e3d5ffd5b505050506040513d601f19601f820116820180604052508101906123e5919061363c565b9350505050612554565b5f8273ffffffffffffffffffffffffffffffffffffffff16636352211e836040518263ffffffff1660e01b815260040161242991906133da565b602060405180830381865afa158015612444573d5f803e3d5ffd5b505050506040513d601f19601f8201168201806040525081019061246891906135b7565b90508073ffffffffffffffffffffffffffffffffffffffff168673ffffffffffffffffffffffffffffffffffffffff16036124aa576001945050505050612554565b5f60015f8373ffffffffffffffffffffffffffffffffffffffff1673ffffffffffffffffffffffffffffffffffffffff1681526020019081526020015f205f9054906101000a900473ffffffffffffffffffffffffffffffffffffffff1690508073ffffffffffffffffffffffffffffffffffffffff168773ffffffffffffffffffffffffffffffffffffffff160361254b57600195505050505050612554565b5f955050505050505b919050565b5f805f80612566306126b1565b90505f81510361257f575f805f9350935093505061259b565b808060200190518101906125939190613deb565b935093509350505b909192565b5f6125a9610746565b90506125b4816126e2565b6125bd336126e2565b8073ffffffffffffffffffffffffffffffffffffffff163373ffffffffffffffffffffffffffffffffffffffff1614612622576040517fea8e4eb500000000000000000000000000000000000000000000000000000000815260040160405180910390fd5b50565b5f805f612632858561277b565b915091505f600481111561264957612648613e3b565b5b81600481111561265c5761265b613e3b565b5b14801561269457508573ffffffffffffffffffffffffffffffffffffffff168273ffffffffffffffffffffffffffffffffffffffff16145b806126a657506126a58686866127c7565b5b925050509392505050565b60605f8273ffffffffffffffffffffffffffffffffffffffff163b90506126da83602e83612906565b915050919050565b612778816040516024016126f691906130c2565b6040516020818303038152906040527f2c2ecbc2000000000000000000000000000000000000000000000000000000007bffffffffffffffffffffffffffffffffffffffffffffffffffffffff19166020820180517bffffffffffffffffffffffffffffffffffffffffffffffffffffffff83818316178352505050506129e4565b50565b5f8060418351036127b8575f805f602086015192506040860151915060608601515f1a90506127ac87828585612a0a565b945094505050506127c0565b5f6002915091505b9250929050565b5f805f8573ffffffffffffffffffffffffffffffffffffffff16631626ba7e60e01b86866040516024016127fc929190613e77565b604051602081830303815290604052907bffffffffffffffffffffffffffffffffffffffffffffffffffffffff19166020820180517bffffffffffffffffffffffffffffffffffffffffffffffffffffffff83818316178352505050506040516128669190613ed5565b5f60405180830381855afa9150503d805f811461289e576040519150601f19603f3d011682016040523d82523d5f602084013e6128a3565b606091505b50915091508180156128b757506020815110155b80156128fb5750631626ba7e60e01b7bffffffffffffffffffffffffffffffffffffffffffffffffffffffff1916818060200190518101906128f99190613eff565b145b925050509392505050565b60605f61291285612ae2565b90505f81036129325760405180602001604052805f8152509150506129dd565b808411156129515760405180602001604052805f8152509150506129dd565b8383101561299a578084846040517f2c4a89fa00000000000000000000000000000000000000000000000000000000815260040161299193929190613f2a565b60405180910390fd5b5f84840390505f85830390505f8282106129b457826129b6565b815b90506040519450601f19601f60208301011685016040528085528087602087018a3c505050505b9392505050565b5f815190505f6a636f6e736f6c652e6c6f679050602083015f808483855afa5050505050565b5f807f7fffffffffffffffffffffffffffffff5d576e7357a4501ddfe92f46681b20a0835f1c1115612a42575f600391509150612ad9565b5f6001878787876040515f8152602001604052604051612a659493929190613f7a565b6020604051602081039080840390855afa158015612a85573d5f803e3d5ffd5b5050506020604051035190505f73ffffffffffffffffffffffffffffffffffffffff168173ffffffffffffffffffffffffffffffffffffffff1603612ad1575f60019250925050612ad9565b805f92509250505b94509492505050565b5f813b9050919050565b5f604051905090565b5f80fd5b5f80fd5b5f7fffffffff0000000000000000000000000000000000000000000000000000000082169050919050565b612b3181612afd565b8114612b3b575f80fd5b50565b5f81359050612b4c81612b28565b92915050565b5f60208284031215612b6757612b66612af5565b5b5f612b7484828501612b3e565b91505092915050565b5f8115159050919050565b612b9181612b7d565b82525050565b5f602082019050612baa5f830184612b88565b92915050565b5f73ffffffffffffffffffffffffffffffffffffffff82169050919050565b5f612bd982612bb0565b9050919050565b612be981612bcf565b8114612bf3575f80fd5b50565b5f81359050612c0481612be0565b92915050565b5f80fd5b5f601f19601f8301169050919050565b7f4e487b71000000000000000000000000000000000000000000000000000000005f52604160045260245ffd5b612c5482612c0e565b810181811067ffffffffffffffff82111715612c7357612c72612c1e565b5b80604052505050565b5f612c85612aec565b9050612c918282612c4b565b919050565b5f67ffffffffffffffff821115612cb057612caf612c1e565b5b602082029050602081019050919050565b5f80fd5b5f819050919050565b612cd781612cc5565b8114612ce1575f80fd5b50565b5f81359050612cf281612cce565b92915050565b5f612d0a612d0584612c96565b612c7c565b90508083825260208201905060208402830185811115612d2d57612d2c612cc1565b5b835b81811015612d565780612d428882612ce4565b845260208401935050602081019050612d2f565b5050509392505050565b5f82601f830112612d7457612d73612c0a565b5b8135612d84848260208601612cf8565b91505092915050565b5f805f8060808587031215612da557612da4612af5565b5b5f612db287828801612bf6565b9450506020612dc387828801612bf6565b935050604085013567ffffffffffffffff811115612de457612de3612af9565b5b612df087828801612d60565b925050606085013567ffffffffffffffff811115612e1157612e10612af9565b5b612e1d87828801612d60565b91505092959194509250565b5f80fd5b5f67ffffffffffffffff821115612e4757612e46612c1e565b5b612e5082612c0e565b9050602081019050919050565b828183375f83830152505050565b5f612e7d612e7884612e2d565b612c7c565b905082815260208101848484011115612e9957612e98612e29565b5b612ea4848285612e5d565b509392505050565b5f82601f830112612ec057612ebf612c0a565b5b8135612ed0848260208601612e6b565b91505092915050565b5f805f8060808587031215612ef157612ef0612af5565b5b5f612efe87828801612bf6565b9450506020612f0f87828801612bf6565b9350506040612f2087828801612ce4565b925050606085013567ffffffffffffffff811115612f4157612f40612af9565b5b612f4d87828801612eac565b91505092959194509250565b612f6281612afd565b82525050565b5f602082019050612f7b5f830184612f59565b92915050565b5f819050919050565b612f9381612f81565b8114612f9d575f80fd5b50565b5f81359050612fae81612f8a565b92915050565b5f8060408385031215612fca57612fc9612af5565b5b5f612fd785828601612fa0565b925050602083013567ffffffffffffffff811115612ff857612ff7612af9565b5b61300485828601612eac565b9150509250929050565b5f6020828403121561302357613022612af5565b5b5f61303084828501612bf6565b91505092915050565b61304281612b7d565b811461304c575f80fd5b50565b5f8135905061305d81613039565b92915050565b5f805f6060848603121561307a57613079612af5565b5b5f61308786828701612bf6565b935050602061309886828701612bf6565b92505060406130a98682870161304f565b9150509250925092565b6130bc81612bcf565b82525050565b5f6020820190506130d55f8301846130b3565b92915050565b5f805f606084860312156130f2576130f1612af5565b5b5f6130ff86828701612bf6565b935050602061311086828701612bf6565b925050604061312186828701612ce4565b9150509250925092565b5f805f806080858703121561314357613142612af5565b5b5f61315087828801612bf6565b945050602061316187828801612bf6565b935050604061317287828801612ce4565b925050606061318387828801612ce4565b91505092959194509250565b5f80fd5b5f8083601f8401126131a8576131a7612c0a565b5b8235905067ffffffffffffffff8111156131c5576131c461318f565b5b6020830191508360018202830111156131e1576131e0612cc1565b5b9250929050565b5f805f8060608587031215613200576131ff612af5565b5b5f61320d87828801612bf6565b945050602061321e87828801612ce4565b935050604085013567ffffffffffffffff81111561323f5761323e612af9565b5b61324b87828801613193565b925092505092959194509250565b5f81519050919050565b5f82825260208201905092915050565b5f5b83811015613290578082015181840152602081019050613275565b5f8484015250505050565b5f6132a582613259565b6132af8185613263565b93506132bf818560208601613273565b6132c881612c0e565b840191505092915050565b5f6020820190508181035f8301526132eb818461329b565b905092915050565b5f819050919050565b5f61331661331161330c84612bb0565b6132f3565b612bb0565b9050919050565b5f613327826132fc565b9050919050565b5f6133388261331d565b9050919050565b6133488161332e565b82525050565b5f6020820190506133615f83018461333f565b92915050565b5f805f806080858703121561337f5761337e612af5565b5b5f61338c87828801612bf6565b945050602061339d87828801612bf6565b93505060406133ae87828801612bf6565b92505060606133bf87828801612ce4565b91505092959194509250565b6133d481612cc5565b82525050565b5f6020820190506133ed5f8301846133cb565b92915050565b5f805f805f60a0868803121561340c5761340b612af5565b5b5f61341988828901612bf6565b955050602061342a88828901612bf6565b945050604086013567ffffffffffffffff81111561344b5761344a612af9565b5b61345788828901612d60565b935050606086013567ffffffffffffffff81111561347857613477612af9565b5b61348488828901612d60565b925050608086013567ffffffffffffffff8111156134a5576134a4612af9565b5b6134b188828901612eac565b9150509295509295909350565b5f602082840312156134d3576134d2612af5565b5b5f6134e084828501612ce4565b91505092915050565b5f805f805f60a0868803121561350257613501612af5565b5b5f61350f88828901612bf6565b955050602061352088828901612bf6565b945050604061353188828901612ce4565b935050606061354288828901612ce4565b925050608086013567ffffffffffffffff81111561356357613562612af9565b5b61356f88828901612eac565b9150509295509295909350565b5f60408201905061358f5f8301856130b3565b61359c60208301846133cb565b9392505050565b5f815190506135b181612be0565b92915050565b5f602082840312156135cc576135cb612af5565b5b5f6135d9848285016135a3565b91505092915050565b5f81905092915050565b5f6135f783856135e2565b9350613604838584612e5d565b82840190509392505050565b5f61361c8284866135ec565b91508190509392505050565b5f8151905061363681613039565b92915050565b5f6020828403121561365157613650612af5565b5b5f61365e84828501613628565b91505092915050565b5f82825260208201905092915050565b7f4552433131353548616e646c65723a20496e76616c696420696e707574206c655f8201527f6e67746800000000000000000000000000000000000000000000000000000000602082015250565b5f6136d1602483613667565b91506136dc82613677565b604082019050919050565b5f6020820190508181035f8301526136fe816136c5565b9050919050565b7f4e487b71000000000000000000000000000000000000000000000000000000005f52603260045260245ffd5b5f8151905061374081612cce565b92915050565b5f6020828403121561375b5761375a612af5565b5b5f61376884828501613732565b91505092915050565b7f4552433131353548616e646c65723a20496e73756666696369656e742062616c5f8201527f616e636500000000000000000000000000000000000000000000000000000000602082015250565b5f6137cb602483613667565b91506137d682613771565b604082019050919050565b5f6020820190508181035f8301526137f8816137bf565b9050919050565b7f4e487b71000000000000000000000000000000000000000000000000000000005f52601160045260245ffd5b5f61383682612cc5565b91507fffffffffffffffffffffffffffffffffffffffffffffffffffffffffffffffff8203613868576138676137ff565b5b600182019050919050565b5f81519050919050565b5f82825260208201905092915050565b5f819050602082019050919050565b6138a581612cc5565b82525050565b5f6138b6838361389c565b60208301905092915050565b5f602082019050919050565b5f6138d882613873565b6138e2818561387d565b93506138ed8361388d565b805f5b8381101561391d57815161390488826138ab565b975061390f836138c2565b9250506001810190506138f0565b5085935050505092915050565b50565b5f6139385f83613263565b91506139438261392a565b5f82019050919050565b5f60a0820190506139605f8301876130b3565b61396d60208301866130b3565b818103604083015261397f81856138ce565b9050818103606083015261399381846138ce565b905081810360808301526139a68161392d565b905095945050505050565b5f6080820190506139c45f8301876130b3565b6139d160208301866130b3565b81810360408301526139e381856138ce565b905081810360608301526139f781846138ce565b905095945050505050565b5f604082019050613a155f8301856130b3565b613a2260208301846130b3565b9392505050565b7f4e465448616e646c65723a206f70657261746f722073686f756c64206e6f74205f8201527f6265206f776e6572000000000000000000000000000000000000000000000000602082015250565b5f613a83602883613667565b9150613a8e82613a29565b604082019050919050565b5f6020820190508181035f830152613ab081613a77565b9050919050565b5f604082019050613aca5f8301856130b3565b613ad76020830184612b88565b9392505050565b7f4e465448616e646c65723a2053656e646572206973206e6f7420746865206f775f8201527f6e65720000000000000000000000000000000000000000000000000000000000602082015250565b5f613b38602383613667565b9150613b4382613ade565b604082019050919050565b5f6020820190508181035f830152613b6581613b2c565b9050919050565b5f606082019050613b7f5f8301866130b3565b613b8c60208301856130b3565b613b9960408301846133cb565b949350505050565b7f4f776e657220646f6e7420686176652073756666696369656e7420616d6f756e5f8201527f74206f6620455243323020746f6b656e73000000000000000000000000000000602082015250565b5f613bfb603183613667565b9150613c0682613ba1565b604082019050919050565b5f6020820190508181035f830152613c2881613bef565b9050919050565b5f60a082019050613c425f8301876130b3565b613c4f60208301866130b3565b613c5c60408301856133cb565b613c6960608301846133cb565b8181036080830152613c7a8161392d565b905095945050505050565b5f608082019050613c985f8301876130b3565b613ca560208301866130b3565b613cb260408301856133cb565b613cbf60608301846133cb565b95945050505050565b7f4e465448616e646c65723a2053656e646572206973206e6f7420617070726f765f8201527f6564000000000000000000000000000000000000000000000000000000000000602082015250565b5f613d22602283613667565b9150613d2d82613cc8565b604082019050919050565b5f6020820190508181035f830152613d4f81613d16565b9050919050565b5f604082019050613d695f8301856133cb565b613d7660208301846130b3565b9392505050565b5f613d8782612cc5565b9150613d9283612cc5565b9250828201905080821115613daa57613da96137ff565b5b92915050565b5f613dba82612bb0565b9050919050565b613dca81613db0565b8114613dd4575f80fd5b50565b5f81519050613de581613dc1565b92915050565b5f805f60608486031215613e0257613e01612af5565b5b5f613e0f86828701613732565b9350506020613e2086828701613dd7565b9250506040613e3186828701613732565b9150509250925092565b7f4e487b71000000000000000000000000000000000000000000000000000000005f52602160045260245ffd5b613e7181612f81565b82525050565b5f604082019050613e8a5f830185613e68565b8181036020830152613e9c818461329b565b90509392505050565b5f613eaf82613259565b613eb981856135e2565b9350613ec9818560208601613273565b80840191505092915050565b5f613ee08284613ea5565b915081905092915050565b5f81519050613ef981612f8a565b92915050565b5f60208284031215613f1457613f13612af5565b5b5f613f2184828501613eeb565b91505092915050565b5f606082019050613f3d5f8301866133cb565b613f4a60208301856133cb565b613f5760408301846133cb565b949350505050565b5f60ff82169050919050565b613f7481613f5f565b82525050565b5f608082019050613f8d5f830187613e68565b613f9a6020830186613f6b565b613fa76040830185613e68565b613fb46060830184613e68565b9594505050505056fea264697066735822122091526787575387fd061655ba85d734a0d095ad1d069ab46c3a34932976d6ddc764736f6c63430008140033",
  "linkReferences": {},
  "deployedLinkReferences": {}
}