{
  "_format": "hh-sol-artifact-1",
  "contractName": "AccountRegistry",
  "sourceName": "contracts/AccountRegistry.sol",
  "abi": [
    {
      "inputs": [
        {
          "internalType": "address",
          "name": "_implementation",
          "type": "address"
        }
      ],
      "stateMutability": "nonpayable",
      "type": "constructor"
    },
    {
      "inputs": [],
      "name": "CreateError",
      "type": "error"
    },
    {
      "anonymous": false,
      "inputs": [
        {
          "indexed": false,
          "internalType": "address",
          "name": "account",
          "type": "address"
        },
        {
          "indexed": true,
          "internalType": "address",
          "name": "tokenContract",
          "type": "address"
        },
        {
          "indexed": true,
          "internalType": "uint256",
          "name": "tokenId",
          "type": "uint256"
        }
      ],
      "name": "AccountCreated",
      "type": "event"
    },
    {
      "anonymous": false,
      "inputs": [
        {
          "indexed": true,
          "internalType": "address",
          "name": "newAddress",
          "type": "address"
        }
      ],
      "name": "AddressCreated",
      "type": "event"
    },
    {
      "inputs": [
        {
          "internalType": "address",
          "name": "tokenCollection",
          "type": "address"
        },
        {
          "internalType": "uint256",
          "name": "tokenId",
          "type": "uint256"
        }
      ],
      "name": "account",
      "outputs": [
        {
          "internalType": "address",
          "name": "",
          "type": "address"
        }
      ],
      "stateMutability": "view",
      "type": "function"
    },
    {
      "inputs": [
        {
          "internalType": "uint256",
          "name": "chainId",
          "type": "uint256"
        },
        {
          "internalType": "address",
          "name": "tokenCollection",
          "type": "address"
        },
        {
          "internalType": "uint256",
          "name": "tokenId",
          "type": "uint256"
        }
      ],
      "name": "account",
      "outputs": [
        {
          "internalType": "address",
          "name": "",
          "type": "address"
        }
      ],
      "stateMutability": "view",
      "type": "function"
    },
    {
      "inputs": [
        {
          "internalType": "address",
          "name": "tokenCollection",
          "type": "address"
        },
        {
          "internalType": "uint256",
          "name": "tokenId",
          "type": "uint256"
        }
      ],
      "name": "createAccount",
      "outputs": [
        {
          "internalType": "address",
          "name": "",
          "type": "address"
        }
      ],
      "stateMutability": "nonpayable",
      "type": "function"
    },
    {
      "inputs": [
        {
          "internalType": "uint256",
          "name": "chainId",
          "type": "uint256"
        },
        {
          "internalType": "address",
          "name": "tokenCollection",
          "type": "address"
        },
        {
          "internalType": "uint256",
          "name": "tokenId",
          "type": "uint256"
        }
      ],
      "name": "createAccount",
      "outputs": [
        {
          "internalType": "address",
          "name": "",
          "type": "address"
        }
      ],
      "stateMutability": "nonpayable",
      "type": "function"
    },
    {
      "inputs": [],
      "name": "implementation",
      "outputs": [
        {
          "internalType": "address",
          "name": "",
          "type": "address"
        }
      ],
      "stateMutability": "view",
      "type": "function"
    }
  ],
  "bytecode": "0x60a060405234801561000f575f80fd5b50604051610a5c380380610a5c833981810160405281019061003191906100c9565b8073ffffffffffffffffffffffffffffffffffffffff1660808173ffffffffffffffffffffffffffffffffffffffff1681525050506100f4565b5f80fd5b5f73ffffffffffffffffffffffffffffffffffffffff82169050919050565b5f6100988261006f565b9050919050565b6100a88161008e565b81146100b2575f80fd5b50565b5f815190506100c38161009f565b92915050565b5f602082840312156100de576100dd61006b565b5b5f6100eb848285016100b5565b91505092915050565b60805161094261011a5f395f818161014d015281816101e6015261025401526109425ff3fe608060405234801561000f575f80fd5b5060043610610055575f3560e01c8063192df655146100595780635c60da1b146100895780635fbfb9cf146100a7578063d78c14cc146100d7578063dd8abeba14610107575b5f80fd5b610073600480360381019061006e91906104a4565b610137565b60405161008091906104f1565b60405180910390f35b61009161014b565b60405161009e91906104f1565b60405180910390f35b6100c160048036038101906100bc91906104a4565b61016f565b6040516100ce91906104f1565b60405180910390f35b6100f160048036038101906100ec919061050a565b610183565b6040516100fe91906104f1565b60405180910390f35b610121600480360381019061011c919061050a565b610198565b60405161012e91906104f1565b60405180910390f35b5f6101434684846101ad565b905092915050565b7f000000000000000000000000000000000000000000000000000000000000000081565b5f61017b46848461021b565b905092915050565b5f61018f84848461021b565b90509392505050565b5f6101a48484846101ad565b90509392505050565b5f808484846040516020016101c493929190610569565b60405160208183030381529060405290505f818051906020012090505f61020c7f000000000000000000000000000000000000000000000000000000000000000084846102d8565b90508093505050509392505050565b5f8084848460405160200161023293929190610569565b60405160208183030381529060405290505f818051906020012090505f61027a7f000000000000000000000000000000000000000000000000000000000000000084846102ee565b9050848673ffffffffffffffffffffffffffffffffffffffff167f33310a89c32d8cc00057ad6ef6274d2f8fe22389a992cf89983e09fc84f6cfff836040516102c391906104f1565b60405180910390a38093505050509392505050565b5f6102e584848430610374565b90509392505050565b5f806102fa858561039f565b9050828151602083015ff591505f73ffffffffffffffffffffffffffffffffffffffff168273ffffffffffffffffffffffffffffffffffffffff160361036c576040517f985da9b000000000000000000000000000000000000000000000000000000000815260040160405180910390fd5b509392505050565b5f80610380868661039f565b9050610394848280519060200120856103e9565b915050949350505050565b606060018251602d6103b191906105cb565b6103bb91906105cb565b600b84846040516020016103d2949392919061088c565b604051602081830303815290604052905092915050565b5f604051836040820152846020820152828152600b810160ff815360558120925050509392505050565b5f80fd5b5f73ffffffffffffffffffffffffffffffffffffffff82169050919050565b5f61044082610417565b9050919050565b61045081610436565b811461045a575f80fd5b50565b5f8135905061046b81610447565b92915050565b5f819050919050565b61048381610471565b811461048d575f80fd5b50565b5f8135905061049e8161047a565b92915050565b5f80604083850312156104ba576104b9610413565b5b5f6104c78582860161045d565b92505060206104d885828601610490565b9150509250929050565b6104eb81610436565b82525050565b5f6020820190506105045f8301846104e2565b92915050565b5f805f6060848603121561052157610520610413565b5b5f61052e86828701610490565b935050602061053f8682870161045d565b925050604061055086828701610490565b9150509250925092565b61056381610471565b82525050565b5f60608201905061057c5f83018661055a565b61058960208301856104e2565b610596604083018461055a565b949350505050565b7f4e487b71000000000000000000000000000000000000000000000000000000005f52601160045260245ffd5b5f6105d582610471565b91506105e083610471565b92508282019050808211156105f8576105f761059e565b5b92915050565b5f81905092915050565b7f3d610000000000000000000000000000000000000000000000000000000000005f82015250565b5f61063c6002836105fe565b915061064782610608565b600282019050919050565b5f61ffff82169050919050565b5f8160f01b9050919050565b5f6106758261065f565b9050919050565b61068d61068882610652565b61066b565b82525050565b7f80600000000000000000000000000000000000000000000000000000000000005f82015250565b5f6106c76002836105fe565b91506106d282610693565b600282019050919050565b5f60ff82169050919050565b5f8160f81b9050919050565b5f6106ff826106e9565b9050919050565b610717610712826106dd565b6106f5565b82525050565b7f3d3981f3363d3d373d3d3d363d730000000000000000000000000000000000005f82015250565b5f610751600e836105fe565b915061075c8261071d565b600e82019050919050565b5f8160601b9050919050565b5f61077d82610767565b9050919050565b5f61078e82610773565b9050919050565b6107a66107a182610436565b610784565b82525050565b7f5af43d82803e903d91602b57fd5bf300000000000000000000000000000000005f82015250565b5f6107e0600f836105fe565b91506107eb826107ac565b600f82019050919050565b5f8082015250565b5f61080a6001836105fe565b9150610815826107f6565b600182019050919050565b5f81519050919050565b5f81905092915050565b5f5b83811015610851578082015181840152602081019050610836565b5f8484015250505050565b5f61086682610820565b610870818561082a565b9350610880818560208601610834565b80840191505092915050565b5f61089682610630565b91506108a2828761067c565b6002820191506108b1826106bb565b91506108bd8286610706565b6001820191506108cc82610745565b91506108d88285610795565b6014820191506108e7826107d4565b91506108f2826107fe565b91506108fe828461085c565b91508190509594505050505056fea26469706673582212209c48f4519ff948d59cca125bd88a57cd74484b151323dd40cc5cc66349ef5a4164736f6c63430008140033",
  "linkReferences": {},
  "deployedLinkReferences": {}
}