{
  "_format": "hh-sol-artifact-1",
  "contractName": "AccountRegistry",
  "sourceName": "contracts/AccountRegistry.sol",
  "abi": [
    {
      "inputs": [
        {
          "internalType": "address",
          "name": "_implementation",
          "type": "address"
        }
      ],
      "stateMutability": "nonpayable",
      "type": "constructor"
    },
    {
      "inputs": [],
      "name": "CreateError",
      "type": "error"
    },
    {
      "anonymous": false,
      "inputs": [
        {
          "indexed": false,
          "internalType": "address",
          "name": "account",
          "type": "address"
        },
        {
          "indexed": true,
          "internalType": "address",
          "name": "tokenContract",
          "type": "address"
        },
        {
          "indexed": true,
          "internalType": "uint256",
          "name": "tokenId",
          "type": "uint256"
        }
      ],
      "name": "AccountCreated",
      "type": "event"
    },
    {
      "anonymous": false,
      "inputs": [
        {
          "indexed": true,
          "internalType": "address",
          "name": "newAddress",
          "type": "address"
        }
      ],
      "name": "AddressCreated",
      "type": "event"
    },
    {
      "inputs": [
        {
          "internalType": "address",
          "name": "tokenCollection",
          "type": "address"
        },
        {
          "internalType": "uint256",
          "name": "tokenId",
          "type": "uint256"
        }
      ],
      "name": "account",
      "outputs": [
        {
          "internalType": "address",
          "name": "",
          "type": "address"
        }
      ],
      "stateMutability": "view",
      "type": "function"
    },
    {
      "inputs": [
        {
          "internalType": "uint256",
          "name": "chainId",
          "type": "uint256"
        },
        {
          "internalType": "address",
          "name": "tokenCollection",
          "type": "address"
        },
        {
          "internalType": "uint256",
          "name": "tokenId",
          "type": "uint256"
        }
      ],
      "name": "account",
      "outputs": [
        {
          "internalType": "address",
          "name": "",
          "type": "address"
        }
      ],
      "stateMutability": "view",
      "type": "function"
    },
    {
      "inputs": [
        {
          "internalType": "address",
          "name": "tokenCollection",
          "type": "address"
        },
        {
          "internalType": "uint256",
          "name": "tokenId",
          "type": "uint256"
        }
      ],
      "name": "createAccount",
      "outputs": [
        {
          "internalType": "address",
          "name": "",
          "type": "address"
        }
      ],
      "stateMutability": "nonpayable",
      "type": "function"
    },
    {
      "inputs": [
        {
          "internalType": "uint256",
          "name": "chainId",
          "type": "uint256"
        },
        {
          "internalType": "address",
          "name": "tokenCollection",
          "type": "address"
        },
        {
          "internalType": "uint256",
          "name": "tokenId",
          "type": "uint256"
        }
      ],
      "name": "createAccount",
      "outputs": [
        {
          "internalType": "address",
          "name": "",
          "type": "address"
        }
      ],
      "stateMutability": "nonpayable",
      "type": "function"
    },
    {
      "inputs": [],
      "name": "implementation",
      "outputs": [
        {
          "internalType": "address",
          "name": "",
          "type": "address"
        }
      ],
      "stateMutability": "view",
      "type": "function"
    }
  ],
  "bytecode": "0x60a060405234801561001057600080fd5b50604051610aa8380380610aa8833981810160405281019061003291906100cf565b8073ffffffffffffffffffffffffffffffffffffffff1660808173ffffffffffffffffffffffffffffffffffffffff1681525050506100fc565b600080fd5b600073ffffffffffffffffffffffffffffffffffffffff82169050919050565b600061009c82610071565b9050919050565b6100ac81610091565b81146100b757600080fd5b50565b6000815190506100c9816100a3565b92915050565b6000602082840312156100e5576100e461006c565b5b60006100f3848285016100ba565b91505092915050565b60805161098361012560003960008181610151015281816101f0015261026101526109836000f3fe608060405234801561001057600080fd5b50600436106100575760003560e01c8063192df6551461005c5780635c60da1b1461008c5780635fbfb9cf146100aa578063d78c14cc146100da578063dd8abeba1461010a575b600080fd5b610076600480360381019061007191906104bf565b61013a565b604051610083919061050e565b60405180910390f35b61009461014f565b6040516100a1919061050e565b60405180910390f35b6100c460048036038101906100bf91906104bf565b610173565b6040516100d1919061050e565b60405180910390f35b6100f460048036038101906100ef9190610529565b610188565b604051610101919061050e565b60405180910390f35b610124600480360381019061011f9190610529565b61019e565b604051610131919061050e565b60405180910390f35b60006101474684846101b4565b905092915050565b7f000000000000000000000000000000000000000000000000000000000000000081565b6000610180468484610225565b905092915050565b6000610195848484610225565b90509392505050565b60006101ab8484846101b4565b90509392505050565b6000808484846040516020016101cc9392919061058b565b604051602081830303815290604052905060008180519060200120905060006102167f000000000000000000000000000000000000000000000000000000000000000084846102e5565b90508093505050509392505050565b60008084848460405160200161023d9392919061058b565b604051602081830303815290604052905060008180519060200120905060006102877f000000000000000000000000000000000000000000000000000000000000000084846102fc565b9050848673ffffffffffffffffffffffffffffffffffffffff167f33310a89c32d8cc00057ad6ef6274d2f8fe22389a992cf89983e09fc84f6cfff836040516102d0919061050e565b60405180910390a38093505050509392505050565b60006102f384848430610385565b90509392505050565b60008061030985856103b1565b9050828151602083016000f59150600073ffffffffffffffffffffffffffffffffffffffff168273ffffffffffffffffffffffffffffffffffffffff160361037d576040517f985da9b000000000000000000000000000000000000000000000000000000000815260040160405180910390fd5b509392505050565b60008061039286866103b1565b90506103a6848280519060200120856103fb565b915050949350505050565b606060018251602d6103c391906105f1565b6103cd91906105f1565b600b84846040516020016103e494939291906108cc565b604051602081830303815290604052905092915050565b6000604051836040820152846020820152828152600b810160ff815360558120925050509392505050565b600080fd5b600073ffffffffffffffffffffffffffffffffffffffff82169050919050565b60006104568261042b565b9050919050565b6104668161044b565b811461047157600080fd5b50565b6000813590506104838161045d565b92915050565b6000819050919050565b61049c81610489565b81146104a757600080fd5b50565b6000813590506104b981610493565b92915050565b600080604083850312156104d6576104d5610426565b5b60006104e485828601610474565b92505060206104f5858286016104aa565b9150509250929050565b6105088161044b565b82525050565b600060208201905061052360008301846104ff565b92915050565b60008060006060848603121561054257610541610426565b5b6000610550868287016104aa565b935050602061056186828701610474565b9250506040610572868287016104aa565b9150509250925092565b61058581610489565b82525050565b60006060820190506105a0600083018661057c565b6105ad60208301856104ff565b6105ba604083018461057c565b949350505050565b7f4e487b7100000000000000000000000000000000000000000000000000000000600052601160045260246000fd5b60006105fc82610489565b915061060783610489565b925082820190508082111561061f5761061e6105c2565b5b92915050565b600081905092915050565b7f3d61000000000000000000000000000000000000000000000000000000000000600082015250565b6000610666600283610625565b915061067182610630565b600282019050919050565b600061ffff82169050919050565b60008160f01b9050919050565b60006106a28261068a565b9050919050565b6106ba6106b58261067c565b610697565b82525050565b7f8060000000000000000000000000000000000000000000000000000000000000600082015250565b60006106f6600283610625565b9150610701826106c0565b600282019050919050565b600060ff82169050919050565b60008160f81b9050919050565b600061073182610719565b9050919050565b6107496107448261070c565b610726565b82525050565b7f3d3981f3363d3d373d3d3d363d73000000000000000000000000000000000000600082015250565b6000610785600e83610625565b91506107908261074f565b600e82019050919050565b60008160601b9050919050565b60006107b38261079b565b9050919050565b60006107c5826107a8565b9050919050565b6107dd6107d88261044b565b6107ba565b82525050565b7f5af43d82803e903d91602b57fd5bf30000000000000000000000000000000000600082015250565b6000610819600f83610625565b9150610824826107e3565b600f82019050919050565b60008082015250565b6000610845600183610625565b91506108508261082f565b600182019050919050565b600081519050919050565b600081905092915050565b60005b8381101561088f578082015181840152602081019050610874565b60008484015250505050565b60006108a68261085b565b6108b08185610866565b93506108c0818560208601610871565b80840191505092915050565b60006108d782610659565b91506108e382876106a9565b6002820191506108f2826106e9565b91506108fe8286610738565b60018201915061090d82610778565b915061091982856107cc565b6014820191506109288261080c565b915061093382610838565b915061093f828461089b565b91508190509594505050505056fea2646970667358221220e59d412da16748dab03a97c6f0376775276ab8d246c8bb194525197d5b85884064736f6c63430008140033",
  "linkReferences": {},
  "deployedLinkReferences": {}
}