{
  "_format": "hh-sol-artifact-1",
  "contractName": "Account",
  "sourceName": "contracts/Account.sol",
  "abi": [
    {
      "inputs": [
        {
          "internalType": "address",
          "name": "_crossChainExecutorList",
          "type": "address"
        }
      ],
      "stateMutability": "nonpayable",
      "type": "constructor"
    },
    {
      "inputs": [],
      "name": "AccountLocked",
      "type": "error"
    },
    {
      "inputs": [],
      "name": "ExceedsMaxLockTime",
      "type": "error"
    },
    {
      "inputs": [
        {
          "internalType": "uint256",
          "name": "_size",
          "type": "uint256"
        },
        {
          "internalType": "uint256",
          "name": "_start",
          "type": "uint256"
        },
        {
          "internalType": "uint256",
          "name": "_end",
          "type": "uint256"
        }
      ],
      "name": "InvalidCodeAtRange",
      "type": "error"
    },
    {
      "inputs": [],
      "name": "NotAuthorized",
      "type": "error"
    },
    {
      "anonymous": false,
      "inputs": [
        {
          "indexed": true,
          "internalType": "address",
          "name": "account",
          "type": "address"
        },
        {
          "indexed": true,
          "internalType": "address",
          "name": "operator",
          "type": "address"
        },
        {
          "indexed": false,
          "internalType": "bool",
          "name": "approved",
          "type": "bool"
        }
      ],
      "name": "ApprovalForAll",
      "type": "event"
    },
    {
      "anonymous": false,
      "inputs": [
        {
          "indexed": false,
          "internalType": "address",
          "name": "from",
          "type": "address"
        },
        {
          "indexed": false,
          "internalType": "address",
          "name": "to",
          "type": "address"
        },
        {
          "indexed": false,
          "internalType": "uint256[]",
          "name": "tokenIds",
          "type": "uint256[]"
        },
        {
          "indexed": false,
          "internalType": "uint256[]",
          "name": "amounts",
          "type": "uint256[]"
        }
      ],
      "name": "BatchErc1155TokensTransferred",
      "type": "event"
    },
    {
      "anonymous": false,
      "inputs": [
        {
          "indexed": false,
          "internalType": "address",
          "name": "from",
          "type": "address"
        },
        {
          "indexed": false,
          "internalType": "address",
          "name": "to",
          "type": "address"
        },
        {
          "indexed": false,
          "internalType": "uint256",
          "name": "tokenId",
          "type": "uint256"
        },
        {
          "indexed": false,
          "internalType": "uint256",
          "name": "amount",
          "type": "uint256"
        }
      ],
      "name": "ERC1155TokenTransferred",
      "type": "event"
    },
    {
      "anonymous": false,
      "inputs": [
        {
          "indexed": true,
          "internalType": "address",
          "name": "owner",
          "type": "address"
        },
        {
          "indexed": true,
          "internalType": "address",
          "name": "spender",
          "type": "address"
        },
        {
          "indexed": false,
          "internalType": "uint256",
          "name": "value",
          "type": "uint256"
        }
      ],
      "name": "ERC20Approval",
      "type": "event"
    },
    {
      "anonymous": false,
      "inputs": [
        {
          "indexed": false,
          "internalType": "address",
          "name": "from",
          "type": "address"
        },
        {
          "indexed": false,
          "internalType": "address",
          "name": "to",
          "type": "address"
        },
        {
          "indexed": false,
          "internalType": "uint256",
          "name": "tokenId",
          "type": "uint256"
        }
      ],
      "name": "ERC2OTokenTransferred",
      "type": "event"
    },
    {
      "anonymous": false,
      "inputs": [
        {
          "indexed": true,
          "internalType": "address",
          "name": "owner",
          "type": "address"
        },
        {
          "indexed": true,
          "internalType": "address",
          "name": "approved",
          "type": "address"
        },
        {
          "indexed": true,
          "internalType": "uint256",
          "name": "tokenId",
          "type": "uint256"
        }
      ],
      "name": "ERC721Approval",
      "type": "event"
    },
    {
      "anonymous": false,
      "inputs": [
        {
          "indexed": false,
          "internalType": "address",
          "name": "owner",
          "type": "address"
        },
        {
          "indexed": false,
          "internalType": "address",
          "name": "executor",
          "type": "address"
        }
      ],
      "name": "ExecutorUpdated",
      "type": "event"
    },
    {
      "anonymous": false,
      "inputs": [
        {
          "indexed": false,
          "internalType": "uint256",
          "name": "timestamp",
          "type": "uint256"
        }
      ],
      "name": "LockUpdated",
      "type": "event"
    },
    {
      "anonymous": false,
      "inputs": [
        {
          "indexed": false,
          "internalType": "address",
          "name": "from",
          "type": "address"
        },
        {
          "indexed": false,
          "internalType": "address",
          "name": "to",
          "type": "address"
        },
        {
          "indexed": false,
          "internalType": "uint256",
          "name": "tokenId",
          "type": "uint256"
        }
      ],
      "name": "NFTTransferred",
      "type": "event"
    },
    {
      "stateMutability": "payable",
      "type": "fallback"
    },
    {
      "inputs": [
        {
          "internalType": "address",
          "name": "tokenCollection",
          "type": "address"
        },
        {
          "internalType": "address",
          "name": "spender",
          "type": "address"
        },
        {
          "internalType": "uint256",
          "name": "amount",
          "type": "uint256"
        }
      ],
      "name": "ApproveERC20Tokens",
      "outputs": [],
      "stateMutability": "nonpayable",
      "type": "function"
    },
    {
      "inputs": [
        {
          "internalType": "address",
          "name": "tokenCollection",
          "type": "address"
        },
        {
          "internalType": "address",
          "name": "spender",
          "type": "address"
        },
        {
          "internalType": "uint256",
          "name": "tokenId",
          "type": "uint256"
        }
      ],
      "name": "ApproveERC721Tokens",
      "outputs": [],
      "stateMutability": "nonpayable",
      "type": "function"
    },
    {
      "inputs": [
        {
          "internalType": "address",
          "name": "tokenCollection",
          "type": "address"
        },
        {
          "internalType": "address",
          "name": "to",
          "type": "address"
        },
        {
          "internalType": "uint256[]",
          "name": "tokenIds",
          "type": "uint256[]"
        },
        {
          "internalType": "uint256[]",
          "name": "amounts",
          "type": "uint256[]"
        }
      ],
      "name": "batchTransferERC1155Tokens",
      "outputs": [],
      "stateMutability": "nonpayable",
      "type": "function"
    },
    {
      "inputs": [],
      "name": "crossChainExecutorList",
      "outputs": [
        {
          "internalType": "contract CrossChainExecutorList",
          "name": "",
          "type": "address"
        }
      ],
      "stateMutability": "view",
      "type": "function"
    },
    {
      "inputs": [
        {
          "internalType": "address",
          "name": "to",
          "type": "address"
        },
        {
          "internalType": "uint256",
          "name": "value",
          "type": "uint256"
        },
        {
          "internalType": "bytes",
          "name": "data",
          "type": "bytes"
        }
      ],
      "name": "executeCall",
      "outputs": [
        {
          "internalType": "bytes",
          "name": "result",
          "type": "bytes"
        }
      ],
      "stateMutability": "payable",
      "type": "function"
    },
    {
      "inputs": [
        {
          "internalType": "address",
          "name": "to",
          "type": "address"
        },
        {
          "internalType": "uint256",
          "name": "value",
          "type": "uint256"
        },
        {
          "internalType": "bytes",
          "name": "data",
          "type": "bytes"
        }
      ],
      "name": "executeCrossChainCall",
      "outputs": [
        {
          "internalType": "bytes",
          "name": "result",
          "type": "bytes"
        }
      ],
      "stateMutability": "payable",
      "type": "function"
    },
    {
      "inputs": [
        {
          "internalType": "address",
          "name": "to",
          "type": "address"
        },
        {
          "internalType": "uint256",
          "name": "value",
          "type": "uint256"
        },
        {
          "internalType": "bytes",
          "name": "data",
          "type": "bytes"
        }
      ],
      "name": "executeTrustedCall",
      "outputs": [
        {
          "internalType": "bytes",
          "name": "result",
          "type": "bytes"
        }
      ],
      "stateMutability": "payable",
      "type": "function"
    },
    {
      "inputs": [
        {
          "internalType": "address",
          "name": "",
          "type": "address"
        }
      ],
      "name": "executor",
      "outputs": [
        {
          "internalType": "address",
          "name": "",
          "type": "address"
        }
      ],
      "stateMutability": "view",
      "type": "function"
    },
    {
      "inputs": [
        {
          "internalType": "address",
          "name": "caller",
          "type": "address"
        }
      ],
      "name": "isAuthorized",
      "outputs": [
        {
          "internalType": "bool",
          "name": "",
          "type": "bool"
        }
      ],
      "stateMutability": "view",
      "type": "function"
    },
    {
      "inputs": [],
      "name": "isLocked",
      "outputs": [
        {
          "internalType": "bool",
          "name": "",
          "type": "bool"
        }
      ],
      "stateMutability": "view",
      "type": "function"
    },
    {
      "inputs": [
        {
          "internalType": "bytes32",
          "name": "hash",
          "type": "bytes32"
        },
        {
          "internalType": "bytes",
          "name": "signature",
          "type": "bytes"
        }
      ],
      "name": "isValidSignature",
      "outputs": [
        {
          "internalType": "bytes4",
          "name": "magicValue",
          "type": "bytes4"
        }
      ],
      "stateMutability": "view",
      "type": "function"
    },
    {
      "inputs": [
        {
          "internalType": "uint256",
          "name": "_unlockTimestamp",
          "type": "uint256"
        }
      ],
      "name": "lock",
      "outputs": [],
      "stateMutability": "nonpayable",
      "type": "function"
    },
    {
      "inputs": [
        {
          "internalType": "address",
          "name": "",
          "type": "address"
        },
        {
          "internalType": "address",
          "name": "",
          "type": "address"
        },
        {
          "internalType": "uint256[]",
          "name": "",
          "type": "uint256[]"
        },
        {
          "internalType": "uint256[]",
          "name": "",
          "type": "uint256[]"
        },
        {
          "internalType": "bytes",
          "name": "",
          "type": "bytes"
        }
      ],
      "name": "onERC1155BatchReceived",
      "outputs": [
        {
          "internalType": "bytes4",
          "name": "",
          "type": "bytes4"
        }
      ],
      "stateMutability": "nonpayable",
      "type": "function"
    },
    {
      "inputs": [
        {
          "internalType": "address",
          "name": "",
          "type": "address"
        },
        {
          "internalType": "address",
          "name": "",
          "type": "address"
        },
        {
          "internalType": "uint256",
          "name": "",
          "type": "uint256"
        },
        {
          "internalType": "uint256",
          "name": "",
          "type": "uint256"
        },
        {
          "internalType": "bytes",
          "name": "",
          "type": "bytes"
        }
      ],
      "name": "onERC1155Received",
      "outputs": [
        {
          "internalType": "bytes4",
          "name": "",
          "type": "bytes4"
        }
      ],
      "stateMutability": "nonpayable",
      "type": "function"
    },
    {
      "inputs": [
        {
          "internalType": "address",
          "name": "",
          "type": "address"
        },
        {
          "internalType": "address",
          "name": "",
          "type": "address"
        },
        {
          "internalType": "uint256",
          "name": "",
          "type": "uint256"
        },
        {
          "internalType": "bytes",
          "name": "",
          "type": "bytes"
        }
      ],
      "name": "onERC721Received",
      "outputs": [
        {
          "internalType": "bytes4",
          "name": "",
          "type": "bytes4"
        }
      ],
      "stateMutability": "nonpayable",
      "type": "function"
    },
    {
      "inputs": [],
      "name": "owner",
      "outputs": [
        {
          "internalType": "address",
          "name": "",
          "type": "address"
        }
      ],
      "stateMutability": "view",
      "type": "function"
    },
    {
      "inputs": [
        {
          "internalType": "address",
          "name": "tokenCollection",
          "type": "address"
        },
        {
          "internalType": "address",
          "name": "operator",
          "type": "address"
        },
        {
          "internalType": "bool",
          "name": "approved",
          "type": "bool"
        }
      ],
      "name": "setApprovalForAllERC1155",
      "outputs": [],
      "stateMutability": "nonpayable",
      "type": "function"
    },
    {
      "inputs": [
        {
          "internalType": "address",
          "name": "_executionModule",
          "type": "address"
        }
      ],
      "name": "setExecutor",
      "outputs": [],
      "stateMutability": "nonpayable",
      "type": "function"
    },
    {
      "inputs": [
        {
          "internalType": "bytes4",
          "name": "interfaceId",
          "type": "bytes4"
        }
      ],
      "name": "supportsInterface",
      "outputs": [
        {
          "internalType": "bool",
          "name": "",
          "type": "bool"
        }
      ],
      "stateMutability": "view",
      "type": "function"
    },
    {
      "inputs": [],
      "name": "token",
      "outputs": [
        {
          "internalType": "address",
          "name": "tokenCollection",
          "type": "address"
        },
        {
          "internalType": "uint256",
          "name": "tokenId",
          "type": "uint256"
        }
      ],
      "stateMutability": "view",
      "type": "function"
    },
    {
      "inputs": [
        {
          "internalType": "address",
          "name": "tokenCollection",
          "type": "address"
        },
        {
          "internalType": "address",
          "name": "to",
          "type": "address"
        },
        {
          "internalType": "uint256",
          "name": "tokenId",
          "type": "uint256"
        },
        {
          "internalType": "uint256",
          "name": "amount",
          "type": "uint256"
        }
      ],
      "name": "transferERC1155Tokens",
      "outputs": [],
      "stateMutability": "nonpayable",
      "type": "function"
    },
    {
      "inputs": [
        {
          "internalType": "address",
          "name": "tokenCollection",
          "type": "address"
        },
        {
          "internalType": "address",
          "name": "to",
          "type": "address"
        },
        {
          "internalType": "uint256",
          "name": "amount",
          "type": "uint256"
        }
      ],
      "name": "transferERC20Tokens",
      "outputs": [],
      "stateMutability": "nonpayable",
      "type": "function"
    },
    {
      "inputs": [
        {
          "internalType": "address",
          "name": "tokenCollection",
          "type": "address"
        },
        {
          "internalType": "address",
          "name": "to",
          "type": "address"
        },
        {
          "internalType": "uint256",
          "name": "tokenId",
          "type": "uint256"
        }
      ],
      "name": "transferERC721Tokens",
      "outputs": [],
      "stateMutability": "nonpayable",
      "type": "function"
    },
    {
      "inputs": [
        {
          "internalType": "address",
          "name": "tokenCollection",
          "type": "address"
        },
        {
          "internalType": "address",
          "name": "from",
          "type": "address"
        },
        {
          "internalType": "address",
          "name": "to",
          "type": "address"
        },
        {
          "internalType": "uint256",
          "name": "tokenId",
          "type": "uint256"
        }
      ],
      "name": "transferERC721TokensFrom",
      "outputs": [],
      "stateMutability": "nonpayable",
      "type": "function"
    },
    {
      "inputs": [
        {
          "internalType": "address",
          "name": "tokenCollection",
          "type": "address"
        },
        {
          "internalType": "address",
          "name": "from",
          "type": "address"
        },
        {
          "internalType": "address",
          "name": "to",
          "type": "address"
        },
        {
          "internalType": "uint256",
          "name": "amount",
          "type": "uint256"
        }
      ],
      "name": "transferFromERC20Tokens",
      "outputs": [],
      "stateMutability": "nonpayable",
      "type": "function"
    },
    {
      "inputs": [],
      "name": "unlockTimestamp",
      "outputs": [
        {
          "internalType": "uint256",
          "name": "",
          "type": "uint256"
        }
      ],
      "stateMutability": "view",
      "type": "function"
    },
    {
      "stateMutability": "payable",
      "type": "receive"
    }
  ],
  "bytecode": "0x60a06040523480156200001157600080fd5b5060405162004313380380620043138339818101604052810190620000379190620000dc565b8073ffffffffffffffffffffffffffffffffffffffff1660808173ffffffffffffffffffffffffffffffffffffffff1681525050506200010e565b600080fd5b600073ffffffffffffffffffffffffffffffffffffffff82169050919050565b6000620000a48262000077565b9050919050565b620000b68162000097565b8114620000c257600080fd5b50565b600081519050620000d681620000ab565b92915050565b600060208284031215620000f557620000f462000072565b5b60006200010584828501620000c5565b91505092915050565b6080516141db620001386000396000818161188701528181611be901526123f401526141db6000f3fe6080604052600436106101855760003560e01c80639cd40673116100d1578063bc197c811161008a578063dd46706411610064578063dd46706414610699578063f23a6e61146106c2578063fc0c546a146106ff578063fe9fbb801461072b5761018c565b8063bc197c811461060a578063c41c9a6114610647578063cc27be46146106705761018c565b80639cd40673146105025780639e5d4c491461052b578063a4e2d6341461055b578063aa082a9d14610586578063ab2481b7146105b1578063b96e3465146105e15761018c565b806348c7e5281161013e57806377c9cb7c1161011857806377c9cb7c146104535780637cdc02521461047c57806387002135146104ac5780638da5cb5b146104d75761018c565b806348c7e528146103c457806365ed19f5146104015780636cd5dc5b1461042a5761018c565b806301ffc9a71461029257806313a4d7ad146102cf578063150b7a02146102f85780631626ba7e146103355780631c3c0ea8146103725780632204a6b31461039b5761018c565b3661018c57005b60003660604260005411156101cd576040517f6315bfbb00000000000000000000000000000000000000000000000000000000815260040160405180910390fd5b60006101d7610768565b90506000600160008373ffffffffffffffffffffffffffffffffffffffff1673ffffffffffffffffffffffffffffffffffffffff16815260200190815260200160002060009054906101000a900473ffffffffffffffffffffffffffffffffffffffff16905060008173ffffffffffffffffffffffffffffffffffffffff163b03610275576040518060200160405280600081525092505050610287565b6102828160008787610812565b925050505b915050805190602001f35b34801561029e57600080fd5b506102b960048036038101906102b49190612c59565b61089f565b6040516102c69190612ca1565b60405180910390f35b3480156102db57600080fd5b506102f660048036038101906102f19190612ea9565b610b38565b005b34801561030457600080fd5b5061031f600480360381019061031a9190612ffd565b610d8b565b60405161032c919061308f565b60405180910390f35b34801561034157600080fd5b5061035c600480360381019061035791906130e0565b610d9f565b604051610369919061308f565b60405180910390f35b34801561037e57600080fd5b506103996004803603810190610394919061313c565b610eac565b005b3480156103a757600080fd5b506103c260048036038101906103bd9190613195565b611014565b005b3480156103d057600080fd5b506103eb60048036038101906103e6919061313c565b6111a3565b6040516103f891906131f7565b60405180910390f35b34801561040d57600080fd5b5061042860048036038101906104239190613212565b6111d6565b005b34801561043657600080fd5b50610451600480360381019061044c9190613212565b6113b6565b005b34801561045f57600080fd5b5061047a60048036038101906104759190613265565b6115a5565b005b61049660048036038101906104919190613327565b611760565b6040516104a3919061341a565b60405180910390f35b3480156104b857600080fd5b506104c1611885565b6040516104ce919061349b565b60405180910390f35b3480156104e357600080fd5b506104ec610768565b6040516104f991906131f7565b60405180910390f35b34801561050e57600080fd5b50610529600480360381019061052491906134b6565b6118a9565b005b61054560048036038101906105409190613327565b611a8a565b604051610552919061341a565b60405180910390f35b34801561056757600080fd5b50610570611b50565b60405161057d9190612ca1565b60405180910390f35b34801561059257600080fd5b5061059b611b5c565b6040516105a8919061352c565b60405180910390f35b6105cb60048036038101906105c69190613327565b611b62565b6040516105d8919061341a565b60405180910390f35b3480156105ed57600080fd5b50610608600480360381019061060391906134b6565b611cd0565b005b34801561061657600080fd5b50610631600480360381019061062c9190613547565b611e98565b60405161063e919061308f565b60405180910390f35b34801561065357600080fd5b5061066e60048036038101906106699190613212565b611ead565b005b34801561067c57600080fd5b5061069760048036038101906106929190613212565b612072565b005b3480156106a557600080fd5b506106c060048036038101906106bb9190613616565b612270565b005b3480156106ce57600080fd5b506106e960048036038101906106e49190613643565b6123a8565b6040516106f6919061308f565b60405180910390f35b34801561070b57600080fd5b506107146123bd565b6040516107229291906136da565b60405180910390f35b34801561073757600080fd5b50610752600480360381019061074d919061313c565b6123d7565b60405161075f9190612ca1565b60405180910390f35b60008060008061077661260a565b92509250925046831461078f576000935050505061080f565b8173ffffffffffffffffffffffffffffffffffffffff16636352211e826040518263ffffffff1660e01b81526004016107c8919061352c565b602060405180830381865afa1580156107e5573d6000803e3d6000fd5b505050506040513d601f19601f820116820180604052508101906108099190613718565b93505050505b90565b606060008573ffffffffffffffffffffffffffffffffffffffff1685858560405161083e929190613775565b60006040518083038185875af1925050503d806000811461087b576040519150601f19603f3d011682016040523d82523d6000602084013e610880565b606091505b5080935081925050508061089657815160208301fd5b50949350505050565b60007feff4d378000000000000000000000000000000000000000000000000000000007bffffffffffffffffffffffffffffffffffffffffffffffffffffffff1916827bffffffffffffffffffffffffffffffffffffffffffffffffffffffff1916148061096a57507f4e2312e0000000000000000000000000000000000000000000000000000000007bffffffffffffffffffffffffffffffffffffffffffffffffffffffff1916827bffffffffffffffffffffffffffffffffffffffffffffffffffffffff1916145b806109d257507f01ffc9a7000000000000000000000000000000000000000000000000000000007bffffffffffffffffffffffffffffffffffffffffffffffffffffffff1916827bffffffffffffffffffffffffffffffffffffffffffffffffffffffff1916145b156109e05760019050610b33565b6000600160006109ee610768565b73ffffffffffffffffffffffffffffffffffffffff1673ffffffffffffffffffffffffffffffffffffffff16815260200190815260200160002060009054906101000a900473ffffffffffffffffffffffffffffffffffffffff169050600073ffffffffffffffffffffffffffffffffffffffff168173ffffffffffffffffffffffffffffffffffffffff161480610a9d575060008173ffffffffffffffffffffffffffffffffffffffff163b145b15610aac576000915050610b33565b8073ffffffffffffffffffffffffffffffffffffffff166301ffc9a7846040518263ffffffff1660e01b8152600401610ae5919061308f565b602060405180830381865afa925050508015610b1f57506040513d601f19601f82011682018060405250810190610b1c91906137a3565b60015b610b2d576000915050610b33565b80925050505b919050565b426000541115610b74576040517f6315bfbb00000000000000000000000000000000000000000000000000000000815260040160405180910390fd5b610b7c612656565b8051825114610bc0576040517f08c379a0000000000000000000000000000000000000000000000000000000008152600401610bb790613853565b60405180910390fd5b600084905060005b8351811015610cd557828181518110610be457610be3613873565b5b60200260200101518273ffffffffffffffffffffffffffffffffffffffff1662fdd58e30878581518110610c1b57610c1a613873565b5b60200260200101516040518363ffffffff1660e01b8152600401610c409291906136da565b602060405180830381865afa158015610c5d573d6000803e3d6000fd5b505050506040513d601f19601f82011682018060405250810190610c8191906138b7565b1015610cc2576040517f08c379a0000000000000000000000000000000000000000000000000000000008152600401610cb990613956565b60405180910390fd5b8080610ccd906139a5565b915050610bc8565b508073ffffffffffffffffffffffffffffffffffffffff16632eb2c2d6308686866040518563ffffffff1660e01b8152600401610d159493929190613ad1565b600060405180830381600087803b158015610d2f57600080fd5b505af1158015610d43573d6000803e3d6000fd5b505050507f4436a461aa59807387858679f09fcffd161d54d4e12f6bb1c59b7edd28974ffb30858585604051610d7c9493929190613b37565b60405180910390a15050505050565b600063150b7a0260e01b9050949350505050565b6000426000541115610db45760009050610ea6565b6000610dbe610768565b90506000600160008373ffffffffffffffffffffffffffffffffffffffff1673ffffffffffffffffffffffffffffffffffffffff16815260200190815260200160002060009054906101000a900473ffffffffffffffffffffffffffffffffffffffff169050600073ffffffffffffffffffffffffffffffffffffffff168173ffffffffffffffffffffffffffffffffffffffff1614158015610e685750610e678186866126dc565b5b15610e7e57631626ba7e60e01b92505050610ea6565b610e898286866126dc565b15610e9f57631626ba7e60e01b92505050610ea6565b6000925050505b92915050565b426000541115610ee8576040517f6315bfbb00000000000000000000000000000000000000000000000000000000815260040160405180910390fd5b6000610ef2610768565b90503373ffffffffffffffffffffffffffffffffffffffff168173ffffffffffffffffffffffffffffffffffffffff1614610f59576040517fea8e4eb500000000000000000000000000000000000000000000000000000000815260040160405180910390fd5b81600160008373ffffffffffffffffffffffffffffffffffffffff1673ffffffffffffffffffffffffffffffffffffffff16815260200190815260200160002060006101000a81548173ffffffffffffffffffffffffffffffffffffffff021916908373ffffffffffffffffffffffffffffffffffffffff1602179055507f0ef3c7eb9dbcf33ddf032f4cce366a07eda85eed03e3172e4a90c4cc16d578868183604051611008929190613b8a565b60405180910390a15050565b426000541115611050576040517f6315bfbb00000000000000000000000000000000000000000000000000000000815260040160405180910390fd5b611058612656565b60008390503073ffffffffffffffffffffffffffffffffffffffff168373ffffffffffffffffffffffffffffffffffffffff16146110cb576040517f08c379a00000000000000000000000000000000000000000000000000000000081526004016110c290613c25565b60405180910390fd5b8073ffffffffffffffffffffffffffffffffffffffff1663a22cb46584846040518363ffffffff1660e01b8152600401611106929190613c45565b600060405180830381600087803b15801561112057600080fd5b505af1158015611134573d6000803e3d6000fd5b505050508273ffffffffffffffffffffffffffffffffffffffff163073ffffffffffffffffffffffffffffffffffffffff167f17307eab39ab6107e8899845ad3d59bd9653f200f220920489ca2b5937696c31846040516111959190612ca1565b60405180910390a350505050565b60016020528060005260406000206000915054906101000a900473ffffffffffffffffffffffffffffffffffffffff1681565b426000541115611212576040517f6315bfbb00000000000000000000000000000000000000000000000000000000815260040160405180910390fd5b61121a612656565b60008390503073ffffffffffffffffffffffffffffffffffffffff168173ffffffffffffffffffffffffffffffffffffffff16636352211e846040518263ffffffff1660e01b815260040161126f919061352c565b602060405180830381865afa15801561128c573d6000803e3d6000fd5b505050506040513d601f19601f820116820180604052508101906112b09190613718565b73ffffffffffffffffffffffffffffffffffffffff1614611306576040517f08c379a00000000000000000000000000000000000000000000000000000000081526004016112fd90613ce0565b60405180910390fd5b8073ffffffffffffffffffffffffffffffffffffffff166342842e0e3085856040518463ffffffff1660e01b815260040161134393929190613d00565b600060405180830381600087803b15801561135d57600080fd5b505af1158015611371573d6000803e3d6000fd5b505050507f209eb5082bc3bcbd509ae679a680b3bb2a11b77fea542a93e205020af76529fc3084846040516113a893929190613d00565b60405180910390a150505050565b4260005411156113f2576040517f6315bfbb00000000000000000000000000000000000000000000000000000000815260040160405180910390fd5b6113fa612656565b6000839050818173ffffffffffffffffffffffffffffffffffffffff166370a08231306040518263ffffffff1660e01b815260040161143991906131f7565b602060405180830381865afa158015611456573d6000803e3d6000fd5b505050506040513d601f19601f8201168201806040525081019061147a91906138b7565b10156114bb576040517f08c379a00000000000000000000000000000000000000000000000000000000081526004016114b290613da9565b60405180910390fd5b8073ffffffffffffffffffffffffffffffffffffffff1663095ea7b384846040518363ffffffff1660e01b81526004016114f69291906136da565b6020604051808303816000875af1158015611515573d6000803e3d6000fd5b505050506040513d601f19601f8201168201806040525081019061153991906137a3565b508273ffffffffffffffffffffffffffffffffffffffff163073ffffffffffffffffffffffffffffffffffffffff167f1f01303a1ce9329d9963e1937c201e23c5543a9e3536e9edead087aec7dc6d8384604051611597919061352c565b60405180910390a350505050565b4260005411156115e1576040517f6315bfbb00000000000000000000000000000000000000000000000000000000815260040160405180910390fd5b6115e9612656565b6000849050818173ffffffffffffffffffffffffffffffffffffffff1662fdd58e30866040518363ffffffff1660e01b81526004016116299291906136da565b602060405180830381865afa158015611646573d6000803e3d6000fd5b505050506040513d601f19601f8201168201806040525081019061166a91906138b7565b10156116ab576040517f08c379a00000000000000000000000000000000000000000000000000000000081526004016116a290613956565b60405180910390fd5b8073ffffffffffffffffffffffffffffffffffffffff1663f242432a308686866040518563ffffffff1660e01b81526004016116ea9493929190613dc9565b600060405180830381600087803b15801561170457600080fd5b505af1158015611718573d6000803e3d6000fd5b505050507fc213eb01c377ef500aa4997001339c53cf03a2ad2e3eda05c49227199e5350cd308585856040516117519493929190613e21565b60405180910390a15050505050565b606042600054111561179e576040517f6315bfbb00000000000000000000000000000000000000000000000000000000815260040160405180910390fd5b6000600160006117ac610768565b73ffffffffffffffffffffffffffffffffffffffff1673ffffffffffffffffffffffffffffffffffffffff16815260200190815260200160002060009054906101000a900473ffffffffffffffffffffffffffffffffffffffff1690508073ffffffffffffffffffffffffffffffffffffffff163373ffffffffffffffffffffffffffffffffffffffff161461186e576040517fea8e4eb500000000000000000000000000000000000000000000000000000000815260040160405180910390fd5b61187a86868686610812565b915050949350505050565b7f000000000000000000000000000000000000000000000000000000000000000081565b4260005411156118e5576040517f6315bfbb00000000000000000000000000000000000000000000000000000000815260040160405180910390fd5b6118ed612656565b60008490503073ffffffffffffffffffffffffffffffffffffffff168173ffffffffffffffffffffffffffffffffffffffff1663081812fc846040518263ffffffff1660e01b8152600401611942919061352c565b602060405180830381865afa15801561195f573d6000803e3d6000fd5b505050506040513d601f19601f820116820180604052508101906119839190613718565b73ffffffffffffffffffffffffffffffffffffffff16146119d9576040517f08c379a00000000000000000000000000000000000000000000000000000000081526004016119d090613ed8565b60405180910390fd5b8073ffffffffffffffffffffffffffffffffffffffff166342842e0e8585856040518463ffffffff1660e01b8152600401611a1693929190613d00565b600060405180830381600087803b158015611a3057600080fd5b505af1158015611a44573d6000803e3d6000fd5b505050507f209eb5082bc3bcbd509ae679a680b3bb2a11b77fea542a93e205020af76529fc848484604051611a7b93929190613d00565b60405180910390a15050505050565b6060426000541115611ac8576040517f6315bfbb00000000000000000000000000000000000000000000000000000000815260040160405180910390fd5b6000611ad2610768565b90508073ffffffffffffffffffffffffffffffffffffffff163373ffffffffffffffffffffffffffffffffffffffff1614611b39576040517fea8e4eb500000000000000000000000000000000000000000000000000000000815260040160405180910390fd5b611b4586868686610812565b915050949350505050565b60004260005411905090565b60005481565b6060426000541115611ba0576040517f6315bfbb00000000000000000000000000000000000000000000000000000000815260040160405180910390fd5b6000611baa61260a565b50509050468103611be7576040517fea8e4eb500000000000000000000000000000000000000000000000000000000815260040160405180910390fd5b7f000000000000000000000000000000000000000000000000000000000000000073ffffffffffffffffffffffffffffffffffffffff1663c8552afd82336040518363ffffffff1660e01b8152600401611c42929190613ef8565b602060405180830381865afa158015611c5f573d6000803e3d6000fd5b505050506040513d601f19601f82011682018060405250810190611c8391906137a3565b611cb9576040517fea8e4eb500000000000000000000000000000000000000000000000000000000815260040160405180910390fd5b611cc586868686610812565b915050949350505050565b426000541115611d0c576040517f6315bfbb00000000000000000000000000000000000000000000000000000000815260040160405180910390fd5b611d14612656565b6000849050818173ffffffffffffffffffffffffffffffffffffffff166370a08231866040518263ffffffff1660e01b8152600401611d5391906131f7565b602060405180830381865afa158015611d70573d6000803e3d6000fd5b505050506040513d601f19601f82011682018060405250810190611d9491906138b7565b1015611dd5576040517f08c379a0000000000000000000000000000000000000000000000000000000008152600401611dcc90613da9565b60405180910390fd5b8073ffffffffffffffffffffffffffffffffffffffff166323b872dd8585856040518463ffffffff1660e01b8152600401611e1293929190613d00565b6020604051808303816000875af1158015611e31573d6000803e3d6000fd5b505050506040513d601f19601f82011682018060405250810190611e5591906137a3565b507f7b3e80143f975cbd2c8d35c7e09d8e4a5cd7c79246f76a73ca1ea592bdfcb8a5848484604051611e8993929190613d00565b60405180910390a15050505050565b600063bc197c8160e01b905095945050505050565b426000541115611ee9576040517f6315bfbb00000000000000000000000000000000000000000000000000000000815260040160405180910390fd5b611ef1612656565b6000839050818173ffffffffffffffffffffffffffffffffffffffff166370a08231306040518263ffffffff1660e01b8152600401611f3091906131f7565b602060405180830381865afa158015611f4d573d6000803e3d6000fd5b505050506040513d601f19601f82011682018060405250810190611f7191906138b7565b1015611fb2576040517f08c379a0000000000000000000000000000000000000000000000000000000008152600401611fa990613da9565b60405180910390fd5b8073ffffffffffffffffffffffffffffffffffffffff1663a9059cbb84846040518363ffffffff1660e01b8152600401611fed9291906136da565b6020604051808303816000875af115801561200c573d6000803e3d6000fd5b505050506040513d601f19601f8201168201806040525081019061203091906137a3565b507f7b3e80143f975cbd2c8d35c7e09d8e4a5cd7c79246f76a73ca1ea592bdfcb8a530848460405161206493929190613d00565b60405180910390a150505050565b4260005411156120ae576040517f6315bfbb00000000000000000000000000000000000000000000000000000000815260040160405180910390fd5b6120b6612656565b60008390503073ffffffffffffffffffffffffffffffffffffffff168173ffffffffffffffffffffffffffffffffffffffff16636352211e846040518263ffffffff1660e01b815260040161210b919061352c565b602060405180830381865afa158015612128573d6000803e3d6000fd5b505050506040513d601f19601f8201168201806040525081019061214c9190613718565b73ffffffffffffffffffffffffffffffffffffffff16146121a2576040517f08c379a000000000000000000000000000000000000000000000000000000000815260040161219990613ce0565b60405180910390fd5b8073ffffffffffffffffffffffffffffffffffffffff1663095ea7b384846040518363ffffffff1660e01b81526004016121dd9291906136da565b600060405180830381600087803b1580156121f757600080fd5b505af115801561220b573d6000803e3d6000fd5b50505050818373ffffffffffffffffffffffffffffffffffffffff163073ffffffffffffffffffffffffffffffffffffffff167f797365dabb18fa726ccbccbe18c6f24c34e3b0653f2e99ea873bd7b84763dde660405160405180910390a450505050565b4260005411156122ac576040517f6315bfbb00000000000000000000000000000000000000000000000000000000815260040160405180910390fd5b6301e13380426122bc9190613f21565b8111156122f5576040517f0c0a7be800000000000000000000000000000000000000000000000000000000815260040160405180910390fd5b60006122ff610768565b90503373ffffffffffffffffffffffffffffffffffffffff168173ffffffffffffffffffffffffffffffffffffffff1614612366576040517fea8e4eb500000000000000000000000000000000000000000000000000000000815260040160405180910390fd5b816000819055507fa7b24c66dd3269a292a60b3facdbb8f3e7557d1e19e64d99e0d6ee7250be63ad8260405161239c919061352c565b60405180910390a15050565b600063f23a6e6160e01b905095945050505050565b6000806123c861260a565b90915080925081935050509091565b6000806000806123e561260a565b925092509250468314612498577f000000000000000000000000000000000000000000000000000000000000000073ffffffffffffffffffffffffffffffffffffffff1663c8552afd84876040518363ffffffff1660e01b815260040161244d929190613ef8565b602060405180830381865afa15801561246a573d6000803e3d6000fd5b505050506040513d601f19601f8201168201806040525081019061248e91906137a3565b9350505050612605565b60008273ffffffffffffffffffffffffffffffffffffffff16636352211e836040518263ffffffff1660e01b81526004016124d3919061352c565b602060405180830381865afa1580156124f0573d6000803e3d6000fd5b505050506040513d601f19601f820116820180604052508101906125149190613718565b90508073ffffffffffffffffffffffffffffffffffffffff168673ffffffffffffffffffffffffffffffffffffffff1603612556576001945050505050612605565b6000600160008373ffffffffffffffffffffffffffffffffffffffff1673ffffffffffffffffffffffffffffffffffffffff16815260200190815260200160002060009054906101000a900473ffffffffffffffffffffffffffffffffffffffff1690508073ffffffffffffffffffffffffffffffffffffffff168773ffffffffffffffffffffffffffffffffffffffff16036125fb57600195505050505050612605565b6000955050505050505b919050565b6000806000806126193061276b565b9050600081510361263557600080600093509350935050612651565b808060200190518101906126499190613f93565b935093509350505b909192565b6000612660610768565b905061266b8161279d565b6126743361279d565b8073ffffffffffffffffffffffffffffffffffffffff163373ffffffffffffffffffffffffffffffffffffffff16146126d9576040517fea8e4eb500000000000000000000000000000000000000000000000000000000815260040160405180910390fd5b50565b60008060006126eb8585612836565b915091506000600481111561270357612702613fe6565b5b81600481111561271657612715613fe6565b5b14801561274e57508573ffffffffffffffffffffffffffffffffffffffff168273ffffffffffffffffffffffffffffffffffffffff16145b80612760575061275f868686612887565b5b925050509392505050565b606060008273ffffffffffffffffffffffffffffffffffffffff163b905061279583602e836129cb565b915050919050565b612833816040516024016127b191906131f7565b6040516020818303038152906040527f2c2ecbc2000000000000000000000000000000000000000000000000000000007bffffffffffffffffffffffffffffffffffffffffffffffffffffffff19166020820180517bffffffffffffffffffffffffffffffffffffffffffffffffffffffff8381831617835250505050612ab0565b50565b60008060418351036128775760008060006020860151925060408601519150606086015160001a905061286b87828585612aca565b94509450505050612880565b60006002915091505b9250929050565b60008060008573ffffffffffffffffffffffffffffffffffffffff16631626ba7e60e01b86866040516024016128be929190614024565b604051602081830303815290604052907bffffffffffffffffffffffffffffffffffffffffffffffffffffffff19166020820180517bffffffffffffffffffffffffffffffffffffffffffffffffffffffff83818316178352505050506040516129289190614085565b600060405180830381855afa9150503d8060008114612963576040519150601f19603f3d011682016040523d82523d6000602084013e612968565b606091505b509150915081801561297c57506020815110155b80156129c05750631626ba7e60e01b7bffffffffffffffffffffffffffffffffffffffffffffffffffffffff1916818060200190518101906129be91906140b1565b145b925050509392505050565b606060006129d885612bac565b9050600081036129fa5760405180602001604052806000815250915050612aa9565b80841115612a1a5760405180602001604052806000815250915050612aa9565b83831015612a63578084846040517f2c4a89fa000000000000000000000000000000000000000000000000000000008152600401612a5a939291906140de565b60405180910390fd5b60008484039050600085830390506000828210612a805782612a82565b815b90506040519450601f19601f60208301011685016040528085528087602087018a3c505050505b9392505050565b612ac781612abf612bb7612bd8565b63ffffffff16565b50565b6000807f7fffffffffffffffffffffffffffffff5d576e7357a4501ddfe92f46681b20a08360001c1115612b05576000600391509150612ba3565b600060018787878760405160008152602001604052604051612b2a9493929190614131565b6020604051602081039080840390855afa158015612b4c573d6000803e3d6000fd5b505050602060405103519050600073ffffffffffffffffffffffffffffffffffffffff168173ffffffffffffffffffffffffffffffffffffffff1603612b9a57600060019250925050612ba3565b80600092509250505b94509492505050565b6000813b9050919050565b60006a636f6e736f6c652e6c6f679050600080835160208501845afa505050565b612be3819050919050565b612beb614176565b565b6000604051905090565b600080fd5b600080fd5b60007fffffffff0000000000000000000000000000000000000000000000000000000082169050919050565b612c3681612c01565b8114612c4157600080fd5b50565b600081359050612c5381612c2d565b92915050565b600060208284031215612c6f57612c6e612bf7565b5b6000612c7d84828501612c44565b91505092915050565b60008115159050919050565b612c9b81612c86565b82525050565b6000602082019050612cb66000830184612c92565b92915050565b600073ffffffffffffffffffffffffffffffffffffffff82169050919050565b6000612ce782612cbc565b9050919050565b612cf781612cdc565b8114612d0257600080fd5b50565b600081359050612d1481612cee565b92915050565b600080fd5b6000601f19601f8301169050919050565b7f4e487b7100000000000000000000000000000000000000000000000000000000600052604160045260246000fd5b612d6882612d1f565b810181811067ffffffffffffffff82111715612d8757612d86612d30565b5b80604052505050565b6000612d9a612bed565b9050612da68282612d5f565b919050565b600067ffffffffffffffff821115612dc657612dc5612d30565b5b602082029050602081019050919050565b600080fd5b6000819050919050565b612def81612ddc565b8114612dfa57600080fd5b50565b600081359050612e0c81612de6565b92915050565b6000612e25612e2084612dab565b612d90565b90508083825260208201905060208402830185811115612e4857612e47612dd7565b5b835b81811015612e715780612e5d8882612dfd565b845260208401935050602081019050612e4a565b5050509392505050565b600082601f830112612e9057612e8f612d1a565b5b8135612ea0848260208601612e12565b91505092915050565b60008060008060808587031215612ec357612ec2612bf7565b5b6000612ed187828801612d05565b9450506020612ee287828801612d05565b935050604085013567ffffffffffffffff811115612f0357612f02612bfc565b5b612f0f87828801612e7b565b925050606085013567ffffffffffffffff811115612f3057612f2f612bfc565b5b612f3c87828801612e7b565b91505092959194509250565b600080fd5b600067ffffffffffffffff821115612f6857612f67612d30565b5b612f7182612d1f565b9050602081019050919050565b82818337600083830152505050565b6000612fa0612f9b84612f4d565b612d90565b905082815260208101848484011115612fbc57612fbb612f48565b5b612fc7848285612f7e565b509392505050565b600082601f830112612fe457612fe3612d1a565b5b8135612ff4848260208601612f8d565b91505092915050565b6000806000806080858703121561301757613016612bf7565b5b600061302587828801612d05565b945050602061303687828801612d05565b935050604061304787828801612dfd565b925050606085013567ffffffffffffffff81111561306857613067612bfc565b5b61307487828801612fcf565b91505092959194509250565b61308981612c01565b82525050565b60006020820190506130a46000830184613080565b92915050565b6000819050919050565b6130bd816130aa565b81146130c857600080fd5b50565b6000813590506130da816130b4565b92915050565b600080604083850312156130f7576130f6612bf7565b5b6000613105858286016130cb565b925050602083013567ffffffffffffffff81111561312657613125612bfc565b5b61313285828601612fcf565b9150509250929050565b60006020828403121561315257613151612bf7565b5b600061316084828501612d05565b91505092915050565b61317281612c86565b811461317d57600080fd5b50565b60008135905061318f81613169565b92915050565b6000806000606084860312156131ae576131ad612bf7565b5b60006131bc86828701612d05565b93505060206131cd86828701612d05565b92505060406131de86828701613180565b9150509250925092565b6131f181612cdc565b82525050565b600060208201905061320c60008301846131e8565b92915050565b60008060006060848603121561322b5761322a612bf7565b5b600061323986828701612d05565b935050602061324a86828701612d05565b925050604061325b86828701612dfd565b9150509250925092565b6000806000806080858703121561327f5761327e612bf7565b5b600061328d87828801612d05565b945050602061329e87828801612d05565b93505060406132af87828801612dfd565b92505060606132c087828801612dfd565b91505092959194509250565b600080fd5b60008083601f8401126132e7576132e6612d1a565b5b8235905067ffffffffffffffff811115613304576133036132cc565b5b6020830191508360018202830111156133205761331f612dd7565b5b9250929050565b6000806000806060858703121561334157613340612bf7565b5b600061334f87828801612d05565b945050602061336087828801612dfd565b935050604085013567ffffffffffffffff81111561338157613380612bfc565b5b61338d878288016132d1565b925092505092959194509250565b600081519050919050565b600082825260208201905092915050565b60005b838110156133d55780820151818401526020810190506133ba565b60008484015250505050565b60006133ec8261339b565b6133f681856133a6565b93506134068185602086016133b7565b61340f81612d1f565b840191505092915050565b6000602082019050818103600083015261343481846133e1565b905092915050565b6000819050919050565b600061346161345c61345784612cbc565b61343c565b612cbc565b9050919050565b600061347382613446565b9050919050565b600061348582613468565b9050919050565b6134958161347a565b82525050565b60006020820190506134b0600083018461348c565b92915050565b600080600080608085870312156134d0576134cf612bf7565b5b60006134de87828801612d05565b94505060206134ef87828801612d05565b935050604061350087828801612d05565b925050606061351187828801612dfd565b91505092959194509250565b61352681612ddc565b82525050565b6000602082019050613541600083018461351d565b92915050565b600080600080600060a0868803121561356357613562612bf7565b5b600061357188828901612d05565b955050602061358288828901612d05565b945050604086013567ffffffffffffffff8111156135a3576135a2612bfc565b5b6135af88828901612e7b565b935050606086013567ffffffffffffffff8111156135d0576135cf612bfc565b5b6135dc88828901612e7b565b925050608086013567ffffffffffffffff8111156135fd576135fc612bfc565b5b61360988828901612fcf565b9150509295509295909350565b60006020828403121561362c5761362b612bf7565b5b600061363a84828501612dfd565b91505092915050565b600080600080600060a0868803121561365f5761365e612bf7565b5b600061366d88828901612d05565b955050602061367e88828901612d05565b945050604061368f88828901612dfd565b93505060606136a088828901612dfd565b925050608086013567ffffffffffffffff8111156136c1576136c0612bfc565b5b6136cd88828901612fcf565b9150509295509295909350565b60006040820190506136ef60008301856131e8565b6136fc602083018461351d565b9392505050565b60008151905061371281612cee565b92915050565b60006020828403121561372e5761372d612bf7565b5b600061373c84828501613703565b91505092915050565b600081905092915050565b600061375c8385613745565b9350613769838584612f7e565b82840190509392505050565b6000613782828486613750565b91508190509392505050565b60008151905061379d81613169565b92915050565b6000602082840312156137b9576137b8612bf7565b5b60006137c78482850161378e565b91505092915050565b600082825260208201905092915050565b7f4552433131353548616e646c65723a20496e76616c696420696e707574206c6560008201527f6e67746800000000000000000000000000000000000000000000000000000000602082015250565b600061383d6024836137d0565b9150613848826137e1565b604082019050919050565b6000602082019050818103600083015261386c81613830565b9050919050565b7f4e487b7100000000000000000000000000000000000000000000000000000000600052603260045260246000fd5b6000815190506138b181612de6565b92915050565b6000602082840312156138cd576138cc612bf7565b5b60006138db848285016138a2565b91505092915050565b7f4552433131353548616e646c65723a20496e73756666696369656e742062616c60008201527f616e636500000000000000000000000000000000000000000000000000000000602082015250565b60006139406024836137d0565b915061394b826138e4565b604082019050919050565b6000602082019050818103600083015261396f81613933565b9050919050565b7f4e487b7100000000000000000000000000000000000000000000000000000000600052601160045260246000fd5b60006139b082612ddc565b91507fffffffffffffffffffffffffffffffffffffffffffffffffffffffffffffffff82036139e2576139e1613976565b5b600182019050919050565b600081519050919050565b600082825260208201905092915050565b6000819050602082019050919050565b613a2281612ddc565b82525050565b6000613a348383613a19565b60208301905092915050565b6000602082019050919050565b6000613a58826139ed565b613a6281856139f8565b9350613a6d83613a09565b8060005b83811015613a9e578151613a858882613a28565b9750613a9083613a40565b925050600181019050613a71565b5085935050505092915050565b50565b6000613abb6000836133a6565b9150613ac682613aab565b600082019050919050565b600060a082019050613ae660008301876131e8565b613af360208301866131e8565b8181036040830152613b058185613a4d565b90508181036060830152613b198184613a4d565b90508181036080830152613b2c81613aae565b905095945050505050565b6000608082019050613b4c60008301876131e8565b613b5960208301866131e8565b8181036040830152613b6b8185613a4d565b90508181036060830152613b7f8184613a4d565b905095945050505050565b6000604082019050613b9f60008301856131e8565b613bac60208301846131e8565b9392505050565b7f4e465448616e646c65723a206f70657261746f722073686f756c64206e6f742060008201527f6265206f776e6572000000000000000000000000000000000000000000000000602082015250565b6000613c0f6028836137d0565b9150613c1a82613bb3565b604082019050919050565b60006020820190508181036000830152613c3e81613c02565b9050919050565b6000604082019050613c5a60008301856131e8565b613c676020830184612c92565b9392505050565b7f4e465448616e646c65723a2053656e646572206973206e6f7420746865206f7760008201527f6e65720000000000000000000000000000000000000000000000000000000000602082015250565b6000613cca6023836137d0565b9150613cd582613c6e565b604082019050919050565b60006020820190508181036000830152613cf981613cbd565b9050919050565b6000606082019050613d1560008301866131e8565b613d2260208301856131e8565b613d2f604083018461351d565b949350505050565b7f4f776e657220646f6e7420686176652073756666696369656e7420616d6f756e60008201527f74206f6620455243323020746f6b656e73000000000000000000000000000000602082015250565b6000613d936031836137d0565b9150613d9e82613d37565b604082019050919050565b60006020820190508181036000830152613dc281613d86565b9050919050565b600060a082019050613dde60008301876131e8565b613deb60208301866131e8565b613df8604083018561351d565b613e05606083018461351d565b8181036080830152613e1681613aae565b905095945050505050565b6000608082019050613e3660008301876131e8565b613e4360208301866131e8565b613e50604083018561351d565b613e5d606083018461351d565b95945050505050565b7f4e465448616e646c65723a2053656e646572206973206e6f7420617070726f7660008201527f6564000000000000000000000000000000000000000000000000000000000000602082015250565b6000613ec26022836137d0565b9150613ecd82613e66565b604082019050919050565b60006020820190508181036000830152613ef181613eb5565b9050919050565b6000604082019050613f0d600083018561351d565b613f1a60208301846131e8565b9392505050565b6000613f2c82612ddc565b9150613f3783612ddc565b9250828201905080821115613f4f57613f4e613976565b5b92915050565b6000613f6082612cbc565b9050919050565b613f7081613f55565b8114613f7b57600080fd5b50565b600081519050613f8d81613f67565b92915050565b600080600060608486031215613fac57613fab612bf7565b5b6000613fba868287016138a2565b9350506020613fcb86828701613f7e565b9250506040613fdc868287016138a2565b9150509250925092565b7f4e487b7100000000000000000000000000000000000000000000000000000000600052602160045260246000fd5b61401e816130aa565b82525050565b60006040820190506140396000830185614015565b818103602083015261404b81846133e1565b90509392505050565b600061405f8261339b565b6140698185613745565b93506140798185602086016133b7565b80840191505092915050565b60006140918284614054565b915081905092915050565b6000815190506140ab816130b4565b92915050565b6000602082840312156140c7576140c6612bf7565b5b60006140d58482850161409c565b91505092915050565b60006060820190506140f3600083018661351d565b614100602083018561351d565b61410d604083018461351d565b949350505050565b600060ff82169050919050565b61412b81614115565b82525050565b60006080820190506141466000830187614015565b6141536020830186614122565b6141606040830185614015565b61416d6060830184614015565b95945050505050565b7f4e487b7100000000000000000000000000000000000000000000000000000000600052605160045260246000fdfea26469706673582212201718465c381c5667b0ad223849277f132c87d09581645f440ebc3b8ee1bd983964736f6c63430008140033",
  "linkReferences": {},
  "deployedLinkReferences": {}
}