{
  "_format": "hh-sol-artifact-1",
  "contractName": "Site",
  "sourceName": "contracts/Site.sol",
  "abi": [
    {
      "inputs": [
        {
          "internalType": "string",
          "name": "baseURI",
          "type": "string"
        }
      ],
      "stateMutability": "nonpayable",
      "type": "constructor"
    },
    {
      "anonymous": false,
      "inputs": [
        {
          "indexed": true,
          "internalType": "address",
          "name": "owner",
          "type": "address"
        },
        {
          "indexed": true,
          "internalType": "address",
          "name": "approved",
          "type": "address"
        },
        {
          "indexed": true,
          "internalType": "uint256",
          "name": "tokenId",
          "type": "uint256"
        }
      ],
      "name": "Approval",
      "type": "event"
    },
    {
      "anonymous": false,
      "inputs": [
        {
          "indexed": true,
          "internalType": "address",
          "name": "owner",
          "type": "address"
        },
        {
          "indexed": true,
          "internalType": "address",
          "name": "operator",
          "type": "address"
        },
        {
          "indexed": false,
          "internalType": "bool",
          "name": "approved",
          "type": "bool"
        }
      ],
      "name": "ApprovalForAll",
      "type": "event"
    },
    {
      "anonymous": false,
      "inputs": [
        {
          "indexed": false,
          "internalType": "uint256",
          "name": "_fromTokenId",
          "type": "uint256"
        },
        {
          "indexed": false,
          "internalType": "uint256",
          "name": "_toTokenId",
          "type": "uint256"
        }
      ],
      "name": "BatchMetadataUpdate",
      "type": "event"
    },
    {
      "anonymous": false,
      "inputs": [
        {
          "indexed": false,
          "internalType": "uint256",
          "name": "_tokenId",
          "type": "uint256"
        }
      ],
      "name": "MetadataUpdate",
      "type": "event"
    },
    {
      "anonymous": false,
      "inputs": [
        {
          "indexed": true,
          "internalType": "address",
          "name": "previousOwner",
          "type": "address"
        },
        {
          "indexed": true,
          "internalType": "address",
          "name": "newOwner",
          "type": "address"
        }
      ],
      "name": "OwnershipTransferred",
      "type": "event"
    },
    {
      "anonymous": false,
      "inputs": [
        {
          "indexed": true,
          "internalType": "address",
          "name": "from",
          "type": "address"
        },
        {
          "indexed": true,
          "internalType": "address",
          "name": "to",
          "type": "address"
        },
        {
          "indexed": true,
          "internalType": "uint256",
          "name": "tokenId",
          "type": "uint256"
        }
      ],
      "name": "Transfer",
      "type": "event"
    },
    {
      "inputs": [],
      "name": "_tokenId",
      "outputs": [
        {
          "internalType": "uint256",
          "name": "",
          "type": "uint256"
        }
      ],
      "stateMutability": "view",
      "type": "function"
    },
    {
      "inputs": [
        {
          "internalType": "address",
          "name": "to",
          "type": "address"
        },
        {
          "internalType": "uint256",
          "name": "tokenId",
          "type": "uint256"
        }
      ],
      "name": "approve",
      "outputs": [],
      "stateMutability": "nonpayable",
      "type": "function"
    },
    {
      "inputs": [
        {
          "internalType": "address",
          "name": "owner",
          "type": "address"
        }
      ],
      "name": "balanceOf",
      "outputs": [
        {
          "internalType": "uint256",
          "name": "",
          "type": "uint256"
        }
      ],
      "stateMutability": "view",
      "type": "function"
    },
    {
      "inputs": [
        {
          "internalType": "uint256",
          "name": "tokenId",
          "type": "uint256"
        }
      ],
      "name": "getApproved",
      "outputs": [
        {
          "internalType": "address",
          "name": "",
          "type": "address"
        }
      ],
      "stateMutability": "view",
      "type": "function"
    },
    {
      "inputs": [
        {
          "internalType": "address",
          "name": "owner",
          "type": "address"
        },
        {
          "internalType": "address",
          "name": "operator",
          "type": "address"
        }
      ],
      "name": "isApprovedForAll",
      "outputs": [
        {
          "internalType": "bool",
          "name": "",
          "type": "bool"
        }
      ],
      "stateMutability": "view",
      "type": "function"
    },
    {
      "inputs": [],
      "name": "name",
      "outputs": [
        {
          "internalType": "string",
          "name": "",
          "type": "string"
        }
      ],
      "stateMutability": "view",
      "type": "function"
    },
    {
      "inputs": [],
      "name": "nextId",
      "outputs": [
        {
          "internalType": "uint256",
          "name": "",
          "type": "uint256"
        }
      ],
      "stateMutability": "view",
      "type": "function"
    },
    {
      "inputs": [],
      "name": "owner",
      "outputs": [
        {
          "internalType": "address",
          "name": "",
          "type": "address"
        }
      ],
      "stateMutability": "view",
      "type": "function"
    },
    {
      "inputs": [
        {
          "internalType": "uint256",
          "name": "tokenId",
          "type": "uint256"
        }
      ],
      "name": "ownerOf",
      "outputs": [
        {
          "internalType": "address",
          "name": "",
          "type": "address"
        }
      ],
      "stateMutability": "view",
      "type": "function"
    },
    {
      "inputs": [],
      "name": "renounceOwnership",
      "outputs": [],
      "stateMutability": "nonpayable",
      "type": "function"
    },
    {
      "inputs": [
        {
          "internalType": "address",
          "name": "to",
          "type": "address"
        },
        {
          "internalType": "string",
          "name": "uri",
          "type": "string"
        }
      ],
      "name": "safeMint",
      "outputs": [],
      "stateMutability": "nonpayable",
      "type": "function"
    },
    {
      "inputs": [
        {
          "internalType": "address",
          "name": "from",
          "type": "address"
        },
        {
          "internalType": "address",
          "name": "to",
          "type": "address"
        },
        {
          "internalType": "uint256",
          "name": "tokenId",
          "type": "uint256"
        }
      ],
      "name": "safeTransferFrom",
      "outputs": [],
      "stateMutability": "nonpayable",
      "type": "function"
    },
    {
      "inputs": [
        {
          "internalType": "address",
          "name": "from",
          "type": "address"
        },
        {
          "internalType": "address",
          "name": "to",
          "type": "address"
        },
        {
          "internalType": "uint256",
          "name": "tokenId",
          "type": "uint256"
        },
        {
          "internalType": "bytes",
          "name": "data",
          "type": "bytes"
        }
      ],
      "name": "safeTransferFrom",
      "outputs": [],
      "stateMutability": "nonpayable",
      "type": "function"
    },
    {
      "inputs": [
        {
          "internalType": "address",
          "name": "operator",
          "type": "address"
        },
        {
          "internalType": "bool",
          "name": "approved",
          "type": "bool"
        }
      ],
      "name": "setApprovalForAll",
      "outputs": [],
      "stateMutability": "nonpayable",
      "type": "function"
    },
    {
      "inputs": [
        {
          "internalType": "string",
          "name": "baseURI",
          "type": "string"
        }
      ],
      "name": "setBaseURI",
      "outputs": [],
      "stateMutability": "nonpayable",
      "type": "function"
    },
    {
      "inputs": [
        {
          "internalType": "bytes4",
          "name": "interfaceId",
          "type": "bytes4"
        }
      ],
      "name": "supportsInterface",
      "outputs": [
        {
          "internalType": "bool",
          "name": "",
          "type": "bool"
        }
      ],
      "stateMutability": "view",
      "type": "function"
    },
    {
      "inputs": [],
      "name": "symbol",
      "outputs": [
        {
          "internalType": "string",
          "name": "",
          "type": "string"
        }
      ],
      "stateMutability": "view",
      "type": "function"
    },
    {
      "inputs": [
        {
          "internalType": "uint256",
          "name": "tokenId",
          "type": "uint256"
        }
      ],
      "name": "tokenURI",
      "outputs": [
        {
          "internalType": "string",
          "name": "",
          "type": "string"
        }
      ],
      "stateMutability": "view",
      "type": "function"
    },
    {
      "inputs": [
        {
          "internalType": "address",
          "name": "from",
          "type": "address"
        },
        {
          "internalType": "address",
          "name": "to",
          "type": "address"
        },
        {
          "internalType": "uint256",
          "name": "tokenId",
          "type": "uint256"
        }
      ],
      "name": "transferFrom",
      "outputs": [],
      "stateMutability": "nonpayable",
      "type": "function"
    },
    {
      "inputs": [
        {
          "internalType": "address",
          "name": "newOwner",
          "type": "address"
        }
      ],
      "name": "transferOwnership",
      "outputs": [],
      "stateMutability": "nonpayable",
      "type": "function"
    }
  ],
  "bytecode": "0x60806040523480156200001157600080fd5b506040516200378638038062003786833981810160405281019062000037919062000363565b6040518060400160405280600981526020017f53697465207061676500000000000000000000000000000000000000000000008152506040518060400160405280600481526020017f53495445000000000000000000000000000000000000000000000000000000008152508160009081620000b49190620005ff565b508060019081620000c69190620005ff565b505050620000e9620000dd6200010260201b60201c565b6200010a60201b60201c565b8060099081620000fa9190620005ff565b5050620006e6565b600033905090565b6000600760009054906101000a900473ffffffffffffffffffffffffffffffffffffffff16905081600760006101000a81548173ffffffffffffffffffffffffffffffffffffffff021916908373ffffffffffffffffffffffffffffffffffffffff1602179055508173ffffffffffffffffffffffffffffffffffffffff168173ffffffffffffffffffffffffffffffffffffffff167f8be0079c531659141344cd1fd0a4f28419497f9722a3daafe3b4186f6b6457e060405160405180910390a35050565b6000604051905090565b600080fd5b600080fd5b600080fd5b600080fd5b6000601f19601f8301169050919050565b7f4e487b7100000000000000000000000000000000000000000000000000000000600052604160045260246000fd5b6200023982620001ee565b810181811067ffffffffffffffff821117156200025b576200025a620001ff565b5b80604052505050565b600062000270620001d0565b90506200027e82826200022e565b919050565b600067ffffffffffffffff821115620002a157620002a0620001ff565b5b620002ac82620001ee565b9050602081019050919050565b60005b83811015620002d9578082015181840152602081019050620002bc565b60008484015250505050565b6000620002fc620002f68462000283565b62000264565b9050828152602081018484840111156200031b576200031a620001e9565b5b62000328848285620002b9565b509392505050565b600082601f830112620003485762000347620001e4565b5b81516200035a848260208601620002e5565b91505092915050565b6000602082840312156200037c576200037b620001da565b5b600082015167ffffffffffffffff8111156200039d576200039c620001df565b5b620003ab8482850162000330565b91505092915050565b600081519050919050565b7f4e487b7100000000000000000000000000000000000000000000000000000000600052602260045260246000fd5b600060028204905060018216806200040757607f821691505b6020821081036200041d576200041c620003bf565b5b50919050565b60008190508160005260206000209050919050565b60006020601f8301049050919050565b600082821b905092915050565b600060088302620004877fffffffffffffffffffffffffffffffffffffffffffffffffffffffffffffffff8262000448565b62000493868362000448565b95508019841693508086168417925050509392505050565b6000819050919050565b6000819050919050565b6000620004e0620004da620004d484620004ab565b620004b5565b620004ab565b9050919050565b6000819050919050565b620004fc83620004bf565b620005146200050b82620004e7565b84845462000455565b825550505050565b600090565b6200052b6200051c565b62000538818484620004f1565b505050565b5b8181101562000560576200055460008262000521565b6001810190506200053e565b5050565b601f821115620005af57620005798162000423565b620005848462000438565b8101602085101562000594578190505b620005ac620005a38562000438565b8301826200053d565b50505b505050565b600082821c905092915050565b6000620005d460001984600802620005b4565b1980831691505092915050565b6000620005ef8383620005c1565b9150826002028217905092915050565b6200060a82620003b4565b67ffffffffffffffff811115620006265762000625620001ff565b5b620006328254620003ee565b6200063f82828562000564565b600060209050601f83116001811462000677576000841562000662578287015190505b6200066e8582620005e1565b865550620006de565b601f198416620006878662000423565b60005b82811015620006b1578489015182556001820191506020850194506020810190506200068a565b86831015620006d15784890151620006cd601f891682620005c1565b8355505b6001600288020188555050505b505050505050565b61309080620006f66000396000f3fe608060405234801561001057600080fd5b506004361061012c5760003560e01c806370a08231116100ad578063b88d4fde11610071578063b88d4fde1461031d578063c87b56dd14610339578063d204c45e14610369578063e985e9c514610385578063f2fde38b146103b55761012c565b806370a082311461028b578063715018a6146102bb5780638da5cb5b146102c557806395d89b41146102e3578063a22cb465146103015761012c565b806324822514116100f457806324822514146101e757806342842e0e1461020557806355f804b31461022157806361b8ce8c1461023d5780636352211e1461025b5761012c565b806301ffc9a71461013157806306fdde0314610161578063081812fc1461017f578063095ea7b3146101af57806323b872dd146101cb575b600080fd5b61014b60048036038101906101469190611dc1565b6103d1565b6040516101589190611e09565b60405180910390f35b6101696103e3565b6040516101769190611eb4565b60405180910390f35b61019960048036038101906101949190611f0c565b610475565b6040516101a69190611f7a565b60405180910390f35b6101c960048036038101906101c49190611fc1565b6104bb565b005b6101e560048036038101906101e09190612001565b6105d2565b005b6101ef610632565b6040516101fc9190612063565b60405180910390f35b61021f600480360381019061021a9190612001565b610638565b005b61023b600480360381019061023691906121b3565b610658565b005b610245610673565b6040516102529190612063565b60405180910390f35b61027560048036038101906102709190611f0c565b61067d565b6040516102829190611f7a565b60405180910390f35b6102a560048036038101906102a091906121fc565b610703565b6040516102b29190612063565b60405180910390f35b6102c36107ba565b005b6102cd6107ce565b6040516102da9190611f7a565b60405180910390f35b6102eb6107f8565b6040516102f89190611eb4565b60405180910390f35b61031b60048036038101906103169190612255565b61088a565b005b61033760048036038101906103329190612336565b6108a0565b005b610353600480360381019061034e9190611f0c565b610902565b6040516103609190611eb4565b60405180910390f35b610383600480360381019061037e91906123b9565b610914565b005b61039f600480360381019061039a9190612415565b610950565b6040516103ac9190611e09565b60405180910390f35b6103cf60048036038101906103ca91906121fc565b6109e4565b005b60006103dc82610a67565b9050919050565b6060600080546103f290612484565b80601f016020809104026020016040519081016040528092919081815260200182805461041e90612484565b801561046b5780601f106104405761010080835404028352916020019161046b565b820191906000526020600020905b81548152906001019060200180831161044e57829003601f168201915b5050505050905090565b600061048082610ac8565b6004600083815260200190815260200160002060009054906101000a900473ffffffffffffffffffffffffffffffffffffffff169050919050565b60006104c68261067d565b90508073ffffffffffffffffffffffffffffffffffffffff168373ffffffffffffffffffffffffffffffffffffffff1603610536576040517f08c379a000000000000000000000000000000000000000000000000000000000815260040161052d90612527565b60405180910390fd5b8073ffffffffffffffffffffffffffffffffffffffff16610555610b13565b73ffffffffffffffffffffffffffffffffffffffff16148061058457506105838161057e610b13565b610950565b5b6105c3576040517f08c379a00000000000000000000000000000000000000000000000000000000081526004016105ba906125b9565b60405180910390fd5b6105cd8383610b1b565b505050565b6105e36105dd610b13565b82610bd4565b610622576040517f08c379a00000000000000000000000000000000000000000000000000000000081526004016106199061264b565b60405180910390fd5b61062d838383610c69565b505050565b60085481565b610653838383604051806020016040528060008152506108a0565b505050565b610660610f62565b806009908161066f9190612817565b5050565b6000600854905090565b60008061068983610fe0565b9050600073ffffffffffffffffffffffffffffffffffffffff168173ffffffffffffffffffffffffffffffffffffffff16036106fa576040517f08c379a00000000000000000000000000000000000000000000000000000000081526004016106f190612935565b60405180910390fd5b80915050919050565b60008073ffffffffffffffffffffffffffffffffffffffff168273ffffffffffffffffffffffffffffffffffffffff1603610773576040517f08c379a000000000000000000000000000000000000000000000000000000000815260040161076a906129c7565b60405180910390fd5b600360008373ffffffffffffffffffffffffffffffffffffffff1673ffffffffffffffffffffffffffffffffffffffff168152602001908152602001600020549050919050565b6107c2610f62565b6107cc600061101d565b565b6000600760009054906101000a900473ffffffffffffffffffffffffffffffffffffffff16905090565b60606001805461080790612484565b80601f016020809104026020016040519081016040528092919081815260200182805461083390612484565b80156108805780601f1061085557610100808354040283529160200191610880565b820191906000526020600020905b81548152906001019060200180831161086357829003601f168201915b5050505050905090565b61089c610895610b13565b83836110e3565b5050565b6108b16108ab610b13565b83610bd4565b6108f0576040517f08c379a00000000000000000000000000000000000000000000000000000000081526004016108e79061264b565b60405180910390fd5b6108fc8484848461124f565b50505050565b606061090d826112ab565b9050919050565b61091c610f62565b60006008600081548092919061093190612a16565b91905055905061094183826113bd565b61094b81836113db565b505050565b6000600560008473ffffffffffffffffffffffffffffffffffffffff1673ffffffffffffffffffffffffffffffffffffffff16815260200190815260200160002060008373ffffffffffffffffffffffffffffffffffffffff1673ffffffffffffffffffffffffffffffffffffffff16815260200190815260200160002060009054906101000a900460ff16905092915050565b6109ec610f62565b600073ffffffffffffffffffffffffffffffffffffffff168173ffffffffffffffffffffffffffffffffffffffff1603610a5b576040517f08c379a0000000000000000000000000000000000000000000000000000000008152600401610a5290612ad0565b60405180910390fd5b610a648161101d565b50565b6000634906490660e01b7bffffffffffffffffffffffffffffffffffffffffffffffffffffffff1916827bffffffffffffffffffffffffffffffffffffffffffffffffffffffff19161480610ac15750610ac08261147f565b5b9050919050565b610ad181611561565b610b10576040517f08c379a0000000000000000000000000000000000000000000000000000000008152600401610b0790612935565b60405180910390fd5b50565b600033905090565b816004600083815260200190815260200160002060006101000a81548173ffffffffffffffffffffffffffffffffffffffff021916908373ffffffffffffffffffffffffffffffffffffffff160217905550808273ffffffffffffffffffffffffffffffffffffffff16610b8e8361067d565b73ffffffffffffffffffffffffffffffffffffffff167f8c5be1e5ebec7d5bd14f71427d1e84f3dd0314c0f7b2291e5b200ac8c7c3b92560405160405180910390a45050565b600080610be08361067d565b90508073ffffffffffffffffffffffffffffffffffffffff168473ffffffffffffffffffffffffffffffffffffffff161480610c225750610c218185610950565b5b80610c6057508373ffffffffffffffffffffffffffffffffffffffff16610c4884610475565b73ffffffffffffffffffffffffffffffffffffffff16145b91505092915050565b8273ffffffffffffffffffffffffffffffffffffffff16610c898261067d565b73ffffffffffffffffffffffffffffffffffffffff1614610cdf576040517f08c379a0000000000000000000000000000000000000000000000000000000008152600401610cd690612b62565b60405180910390fd5b600073ffffffffffffffffffffffffffffffffffffffff168273ffffffffffffffffffffffffffffffffffffffff1603610d4e576040517f08c379a0000000000000000000000000000000000000000000000000000000008152600401610d4590612bf4565b60405180910390fd5b610d5b83838360016115a2565b8273ffffffffffffffffffffffffffffffffffffffff16610d7b8261067d565b73ffffffffffffffffffffffffffffffffffffffff1614610dd1576040517f08c379a0000000000000000000000000000000000000000000000000000000008152600401610dc890612b62565b60405180910390fd5b6004600082815260200190815260200160002060006101000a81549073ffffffffffffffffffffffffffffffffffffffff02191690556001600360008573ffffffffffffffffffffffffffffffffffffffff1673ffffffffffffffffffffffffffffffffffffffff168152602001908152602001600020600082825403925050819055506001600360008473ffffffffffffffffffffffffffffffffffffffff1673ffffffffffffffffffffffffffffffffffffffff16815260200190815260200160002060008282540192505081905550816002600083815260200190815260200160002060006101000a81548173ffffffffffffffffffffffffffffffffffffffff021916908373ffffffffffffffffffffffffffffffffffffffff160217905550808273ffffffffffffffffffffffffffffffffffffffff168473ffffffffffffffffffffffffffffffffffffffff167fddf252ad1be2c89b69c2b068fc378daa952ba7f163c4a11628f55a4df523b3ef60405160405180910390a4610f5d83838360016115a8565b505050565b610f6a610b13565b73ffffffffffffffffffffffffffffffffffffffff16610f886107ce565b73ffffffffffffffffffffffffffffffffffffffff1614610fde576040517f08c379a0000000000000000000000000000000000000000000000000000000008152600401610fd590612c60565b60405180910390fd5b565b60006002600083815260200190815260200160002060009054906101000a900473ffffffffffffffffffffffffffffffffffffffff169050919050565b6000600760009054906101000a900473ffffffffffffffffffffffffffffffffffffffff16905081600760006101000a81548173ffffffffffffffffffffffffffffffffffffffff021916908373ffffffffffffffffffffffffffffffffffffffff1602179055508173ffffffffffffffffffffffffffffffffffffffff168173ffffffffffffffffffffffffffffffffffffffff167f8be0079c531659141344cd1fd0a4f28419497f9722a3daafe3b4186f6b6457e060405160405180910390a35050565b8173ffffffffffffffffffffffffffffffffffffffff168373ffffffffffffffffffffffffffffffffffffffff1603611151576040517f08c379a000000000000000000000000000000000000000000000000000000000815260040161114890612ccc565b60405180910390fd5b80600560008573ffffffffffffffffffffffffffffffffffffffff1673ffffffffffffffffffffffffffffffffffffffff16815260200190815260200160002060008473ffffffffffffffffffffffffffffffffffffffff1673ffffffffffffffffffffffffffffffffffffffff16815260200190815260200160002060006101000a81548160ff0219169083151502179055508173ffffffffffffffffffffffffffffffffffffffff168373ffffffffffffffffffffffffffffffffffffffff167f17307eab39ab6107e8899845ad3d59bd9653f200f220920489ca2b5937696c31836040516112429190611e09565b60405180910390a3505050565b61125a848484610c69565b611266848484846115ae565b6112a5576040517f08c379a000000000000000000000000000000000000000000000000000000000815260040161129c90612d5e565b60405180910390fd5b50505050565b60606112b682610ac8565b60006006600084815260200190815260200160002080546112d690612484565b80601f016020809104026020016040519081016040528092919081815260200182805461130290612484565b801561134f5780601f106113245761010080835404028352916020019161134f565b820191906000526020600020905b81548152906001019060200180831161133257829003601f168201915b505050505090506000611360611735565b905060008151036113755781925050506113b8565b6000825111156113aa578082604051602001611392929190612dba565b604051602081830303815290604052925050506113b8565b6113b3846117c7565b925050505b919050565b6113d782826040518060200160405280600081525061182f565b5050565b6113e482611561565b611423576040517f08c379a000000000000000000000000000000000000000000000000000000000815260040161141a90612e50565b60405180910390fd5b806006600084815260200190815260200160002090816114439190612817565b507ff8e1a15aba9398e019f0b49df1a4fde98ee17ae345cb5f6b5e2c27f5033e8ce7826040516114739190612063565b60405180910390a15050565b60007f80ac58cd000000000000000000000000000000000000000000000000000000007bffffffffffffffffffffffffffffffffffffffffffffffffffffffff1916827bffffffffffffffffffffffffffffffffffffffffffffffffffffffff1916148061154a57507f5b5e139f000000000000000000000000000000000000000000000000000000007bffffffffffffffffffffffffffffffffffffffffffffffffffffffff1916827bffffffffffffffffffffffffffffffffffffffffffffffffffffffff1916145b8061155a57506115598261188a565b5b9050919050565b60008073ffffffffffffffffffffffffffffffffffffffff1661158383610fe0565b73ffffffffffffffffffffffffffffffffffffffff1614159050919050565b50505050565b50505050565b60006115cf8473ffffffffffffffffffffffffffffffffffffffff166118f4565b15611728578373ffffffffffffffffffffffffffffffffffffffff1663150b7a026115f8610b13565b8786866040518563ffffffff1660e01b815260040161161a9493929190612ec5565b6020604051808303816000875af192505050801561165657506040513d601f19601f820116820180604052508101906116539190612f26565b60015b6116d8573d8060008114611686576040519150601f19603f3d011682016040523d82523d6000602084013e61168b565b606091505b5060008151036116d0576040517f08c379a00000000000000000000000000000000000000000000000000000000081526004016116c790612d5e565b60405180910390fd5b805181602001fd5b63150b7a0260e01b7bffffffffffffffffffffffffffffffffffffffffffffffffffffffff1916817bffffffffffffffffffffffffffffffffffffffffffffffffffffffff19161491505061172d565b600190505b949350505050565b60606009805461174490612484565b80601f016020809104026020016040519081016040528092919081815260200182805461177090612484565b80156117bd5780601f10611792576101008083540402835291602001916117bd565b820191906000526020600020905b8154815290600101906020018083116117a057829003601f168201915b5050505050905090565b60606117d282610ac8565b60006117dc611735565b905060008151116117fc5760405180602001604052806000815250611827565b8061180684611917565b604051602001611817929190612dba565b6040516020818303038152906040525b915050919050565b61183983836119e5565b61184660008484846115ae565b611885576040517f08c379a000000000000000000000000000000000000000000000000000000000815260040161187c90612d5e565b60405180910390fd5b505050565b60007f01ffc9a7000000000000000000000000000000000000000000000000000000007bffffffffffffffffffffffffffffffffffffffffffffffffffffffff1916827bffffffffffffffffffffffffffffffffffffffffffffffffffffffff1916149050919050565b6000808273ffffffffffffffffffffffffffffffffffffffff163b119050919050565b60606000600161192684611c02565b01905060008167ffffffffffffffff81111561194557611944612088565b5b6040519080825280601f01601f1916602001820160405280156119775781602001600182028036833780820191505090505b509050600082602001820190505b6001156119da578080600190039150507f3031323334353637383961626364656600000000000000000000000000000000600a86061a8153600a85816119ce576119cd612f53565b5b04945060008503611985575b819350505050919050565b600073ffffffffffffffffffffffffffffffffffffffff168273ffffffffffffffffffffffffffffffffffffffff1603611a54576040517f08c379a0000000000000000000000000000000000000000000000000000000008152600401611a4b90612fce565b60405180910390fd5b611a5d81611561565b15611a9d576040517f08c379a0000000000000000000000000000000000000000000000000000000008152600401611a949061303a565b60405180910390fd5b611aab6000838360016115a2565b611ab481611561565b15611af4576040517f08c379a0000000000000000000000000000000000000000000000000000000008152600401611aeb9061303a565b60405180910390fd5b6001600360008473ffffffffffffffffffffffffffffffffffffffff1673ffffffffffffffffffffffffffffffffffffffff16815260200190815260200160002060008282540192505081905550816002600083815260200190815260200160002060006101000a81548173ffffffffffffffffffffffffffffffffffffffff021916908373ffffffffffffffffffffffffffffffffffffffff160217905550808273ffffffffffffffffffffffffffffffffffffffff16600073ffffffffffffffffffffffffffffffffffffffff167fddf252ad1be2c89b69c2b068fc378daa952ba7f163c4a11628f55a4df523b3ef60405160405180910390a4611bfe6000838360016115a8565b5050565b600080600090507a184f03e93ff9f4daa797ed6e38ed64bf6a1f0100000000000000008310611c60577a184f03e93ff9f4daa797ed6e38ed64bf6a1f0100000000000000008381611c5657611c55612f53565b5b0492506040810190505b6d04ee2d6d415b85acef81000000008310611c9d576d04ee2d6d415b85acef81000000008381611c9357611c92612f53565b5b0492506020810190505b662386f26fc100008310611ccc57662386f26fc100008381611cc257611cc1612f53565b5b0492506010810190505b6305f5e1008310611cf5576305f5e1008381611ceb57611cea612f53565b5b0492506008810190505b6127108310611d1a576127108381611d1057611d0f612f53565b5b0492506004810190505b60648310611d3d5760648381611d3357611d32612f53565b5b0492506002810190505b600a8310611d4c576001810190505b80915050919050565b6000604051905090565b600080fd5b600080fd5b60007fffffffff0000000000000000000000000000000000000000000000000000000082169050919050565b611d9e81611d69565b8114611da957600080fd5b50565b600081359050611dbb81611d95565b92915050565b600060208284031215611dd757611dd6611d5f565b5b6000611de584828501611dac565b91505092915050565b60008115159050919050565b611e0381611dee565b82525050565b6000602082019050611e1e6000830184611dfa565b92915050565b600081519050919050565b600082825260208201905092915050565b60005b83811015611e5e578082015181840152602081019050611e43565b60008484015250505050565b6000601f19601f8301169050919050565b6000611e8682611e24565b611e908185611e2f565b9350611ea0818560208601611e40565b611ea981611e6a565b840191505092915050565b60006020820190508181036000830152611ece8184611e7b565b905092915050565b6000819050919050565b611ee981611ed6565b8114611ef457600080fd5b50565b600081359050611f0681611ee0565b92915050565b600060208284031215611f2257611f21611d5f565b5b6000611f3084828501611ef7565b91505092915050565b600073ffffffffffffffffffffffffffffffffffffffff82169050919050565b6000611f6482611f39565b9050919050565b611f7481611f59565b82525050565b6000602082019050611f8f6000830184611f6b565b92915050565b611f9e81611f59565b8114611fa957600080fd5b50565b600081359050611fbb81611f95565b92915050565b60008060408385031215611fd857611fd7611d5f565b5b6000611fe685828601611fac565b9250506020611ff785828601611ef7565b9150509250929050565b60008060006060848603121561201a57612019611d5f565b5b600061202886828701611fac565b935050602061203986828701611fac565b925050604061204a86828701611ef7565b9150509250925092565b61205d81611ed6565b82525050565b60006020820190506120786000830184612054565b92915050565b600080fd5b600080fd5b7f4e487b7100000000000000000000000000000000000000000000000000000000600052604160045260246000fd5b6120c082611e6a565b810181811067ffffffffffffffff821117156120df576120de612088565b5b80604052505050565b60006120f2611d55565b90506120fe82826120b7565b919050565b600067ffffffffffffffff82111561211e5761211d612088565b5b61212782611e6a565b9050602081019050919050565b82818337600083830152505050565b600061215661215184612103565b6120e8565b90508281526020810184848401111561217257612171612083565b5b61217d848285612134565b509392505050565b600082601f83011261219a5761219961207e565b5b81356121aa848260208601612143565b91505092915050565b6000602082840312156121c9576121c8611d5f565b5b600082013567ffffffffffffffff8111156121e7576121e6611d64565b5b6121f384828501612185565b91505092915050565b60006020828403121561221257612211611d5f565b5b600061222084828501611fac565b91505092915050565b61223281611dee565b811461223d57600080fd5b50565b60008135905061224f81612229565b92915050565b6000806040838503121561226c5761226b611d5f565b5b600061227a85828601611fac565b925050602061228b85828601612240565b9150509250929050565b600067ffffffffffffffff8211156122b0576122af612088565b5b6122b982611e6a565b9050602081019050919050565b60006122d96122d484612295565b6120e8565b9050828152602081018484840111156122f5576122f4612083565b5b612300848285612134565b509392505050565b600082601f83011261231d5761231c61207e565b5b813561232d8482602086016122c6565b91505092915050565b600080600080608085870312156123505761234f611d5f565b5b600061235e87828801611fac565b945050602061236f87828801611fac565b935050604061238087828801611ef7565b925050606085013567ffffffffffffffff8111156123a1576123a0611d64565b5b6123ad87828801612308565b91505092959194509250565b600080604083850312156123d0576123cf611d5f565b5b60006123de85828601611fac565b925050602083013567ffffffffffffffff8111156123ff576123fe611d64565b5b61240b85828601612185565b9150509250929050565b6000806040838503121561242c5761242b611d5f565b5b600061243a85828601611fac565b925050602061244b85828601611fac565b9150509250929050565b7f4e487b7100000000000000000000000000000000000000000000000000000000600052602260045260246000fd5b6000600282049050600182168061249c57607f821691505b6020821081036124af576124ae612455565b5b50919050565b7f4552433732313a20617070726f76616c20746f2063757272656e74206f776e6560008201527f7200000000000000000000000000000000000000000000000000000000000000602082015250565b6000612511602183611e2f565b915061251c826124b5565b604082019050919050565b6000602082019050818103600083015261254081612504565b9050919050565b7f4552433732313a20617070726f76652063616c6c6572206973206e6f7420746f60008201527f6b656e206f776e6572206f7220617070726f76656420666f7220616c6c000000602082015250565b60006125a3603d83611e2f565b91506125ae82612547565b604082019050919050565b600060208201905081810360008301526125d281612596565b9050919050565b7f4552433732313a2063616c6c6572206973206e6f7420746f6b656e206f776e6560008201527f72206f7220617070726f76656400000000000000000000000000000000000000602082015250565b6000612635602d83611e2f565b9150612640826125d9565b604082019050919050565b6000602082019050818103600083015261266481612628565b9050919050565b60008190508160005260206000209050919050565b60006020601f8301049050919050565b600082821b905092915050565b6000600883026126cd7fffffffffffffffffffffffffffffffffffffffffffffffffffffffffffffffff82612690565b6126d78683612690565b95508019841693508086168417925050509392505050565b6000819050919050565b600061271461270f61270a84611ed6565b6126ef565b611ed6565b9050919050565b6000819050919050565b61272e836126f9565b61274261273a8261271b565b84845461269d565b825550505050565b600090565b61275761274a565b612762818484612725565b505050565b5b818110156127865761277b60008261274f565b600181019050612768565b5050565b601f8211156127cb5761279c8161266b565b6127a584612680565b810160208510156127b4578190505b6127c86127c085612680565b830182612767565b50505b505050565b600082821c905092915050565b60006127ee600019846008026127d0565b1980831691505092915050565b600061280783836127dd565b9150826002028217905092915050565b61282082611e24565b67ffffffffffffffff81111561283957612838612088565b5b6128438254612484565b61284e82828561278a565b600060209050601f831160018114612881576000841561286f578287015190505b61287985826127fb565b8655506128e1565b601f19841661288f8661266b565b60005b828110156128b757848901518255600182019150602085019450602081019050612892565b868310156128d457848901516128d0601f8916826127dd565b8355505b6001600288020188555050505b505050505050565b7f4552433732313a20696e76616c696420746f6b656e2049440000000000000000600082015250565b600061291f601883611e2f565b915061292a826128e9565b602082019050919050565b6000602082019050818103600083015261294e81612912565b9050919050565b7f4552433732313a2061646472657373207a65726f206973206e6f74206120766160008201527f6c6964206f776e65720000000000000000000000000000000000000000000000602082015250565b60006129b1602983611e2f565b91506129bc82612955565b604082019050919050565b600060208201905081810360008301526129e0816129a4565b9050919050565b7f4e487b7100000000000000000000000000000000000000000000000000000000600052601160045260246000fd5b6000612a2182611ed6565b91507fffffffffffffffffffffffffffffffffffffffffffffffffffffffffffffffff8203612a5357612a526129e7565b5b600182019050919050565b7f4f776e61626c653a206e6577206f776e657220697320746865207a65726f206160008201527f6464726573730000000000000000000000000000000000000000000000000000602082015250565b6000612aba602683611e2f565b9150612ac582612a5e565b604082019050919050565b60006020820190508181036000830152612ae981612aad565b9050919050565b7f4552433732313a207472616e736665722066726f6d20696e636f72726563742060008201527f6f776e6572000000000000000000000000000000000000000000000000000000602082015250565b6000612b4c602583611e2f565b9150612b5782612af0565b604082019050919050565b60006020820190508181036000830152612b7b81612b3f565b9050919050565b7f4552433732313a207472616e7366657220746f20746865207a65726f2061646460008201527f7265737300000000000000000000000000000000000000000000000000000000602082015250565b6000612bde602483611e2f565b9150612be982612b82565b604082019050919050565b60006020820190508181036000830152612c0d81612bd1565b9050919050565b7f4f776e61626c653a2063616c6c6572206973206e6f7420746865206f776e6572600082015250565b6000612c4a602083611e2f565b9150612c5582612c14565b602082019050919050565b60006020820190508181036000830152612c7981612c3d565b9050919050565b7f4552433732313a20617070726f766520746f2063616c6c657200000000000000600082015250565b6000612cb6601983611e2f565b9150612cc182612c80565b602082019050919050565b60006020820190508181036000830152612ce581612ca9565b9050919050565b7f4552433732313a207472616e7366657220746f206e6f6e20455243373231526560008201527f63656976657220696d706c656d656e7465720000000000000000000000000000602082015250565b6000612d48603283611e2f565b9150612d5382612cec565b604082019050919050565b60006020820190508181036000830152612d7781612d3b565b9050919050565b600081905092915050565b6000612d9482611e24565b612d9e8185612d7e565b9350612dae818560208601611e40565b80840191505092915050565b6000612dc68285612d89565b9150612dd28284612d89565b91508190509392505050565b7f45524337323155524953746f726167653a2055524920736574206f66206e6f6e60008201527f6578697374656e7420746f6b656e000000000000000000000000000000000000602082015250565b6000612e3a602e83611e2f565b9150612e4582612dde565b604082019050919050565b60006020820190508181036000830152612e6981612e2d565b9050919050565b600081519050919050565b600082825260208201905092915050565b6000612e9782612e70565b612ea18185612e7b565b9350612eb1818560208601611e40565b612eba81611e6a565b840191505092915050565b6000608082019050612eda6000830187611f6b565b612ee76020830186611f6b565b612ef46040830185612054565b8181036060830152612f068184612e8c565b905095945050505050565b600081519050612f2081611d95565b92915050565b600060208284031215612f3c57612f3b611d5f565b5b6000612f4a84828501612f11565b91505092915050565b7f4e487b7100000000000000000000000000000000000000000000000000000000600052601260045260246000fd5b7f4552433732313a206d696e7420746f20746865207a65726f2061646472657373600082015250565b6000612fb8602083611e2f565b9150612fc382612f82565b602082019050919050565b60006020820190508181036000830152612fe781612fab565b9050919050565b7f4552433732313a20746f6b656e20616c7265616479206d696e74656400000000600082015250565b6000613024601c83611e2f565b915061302f82612fee565b602082019050919050565b6000602082019050818103600083015261305381613017565b905091905056fea264697066735822122016da271fe57e0304a909161a7f396fc22f6698fda836284fd2d0806c331a79f264736f6c63430008140033",
  "linkReferences": {},
  "deployedLinkReferences": {}
}