{
  "_format": "hh-sol-artifact-1",
  "contractName": "Site",
  "sourceName": "contracts/Site.sol",
  "abi": [
    {
      "inputs": [
        {
          "internalType": "string",
          "name": "baseURI",
          "type": "string"
        }
      ],
      "stateMutability": "nonpayable",
      "type": "constructor"
    },
    {
      "anonymous": false,
      "inputs": [
        {
          "indexed": true,
          "internalType": "address",
          "name": "owner",
          "type": "address"
        },
        {
          "indexed": true,
          "internalType": "address",
          "name": "approved",
          "type": "address"
        },
        {
          "indexed": true,
          "internalType": "uint256",
          "name": "tokenId",
          "type": "uint256"
        }
      ],
      "name": "Approval",
      "type": "event"
    },
    {
      "anonymous": false,
      "inputs": [
        {
          "indexed": true,
          "internalType": "address",
          "name": "owner",
          "type": "address"
        },
        {
          "indexed": true,
          "internalType": "address",
          "name": "operator",
          "type": "address"
        },
        {
          "indexed": false,
          "internalType": "bool",
          "name": "approved",
          "type": "bool"
        }
      ],
      "name": "ApprovalForAll",
      "type": "event"
    },
    {
      "anonymous": false,
      "inputs": [
        {
          "indexed": false,
          "internalType": "uint256",
          "name": "_fromTokenId",
          "type": "uint256"
        },
        {
          "indexed": false,
          "internalType": "uint256",
          "name": "_toTokenId",
          "type": "uint256"
        }
      ],
      "name": "BatchMetadataUpdate",
      "type": "event"
    },
    {
      "anonymous": false,
      "inputs": [
        {
          "indexed": false,
          "internalType": "uint256",
          "name": "_tokenId",
          "type": "uint256"
        }
      ],
      "name": "MetadataUpdate",
      "type": "event"
    },
    {
      "anonymous": false,
      "inputs": [
        {
          "indexed": true,
          "internalType": "address",
          "name": "previousOwner",
          "type": "address"
        },
        {
          "indexed": true,
          "internalType": "address",
          "name": "newOwner",
          "type": "address"
        }
      ],
      "name": "OwnershipTransferred",
      "type": "event"
    },
    {
      "anonymous": false,
      "inputs": [
        {
          "indexed": true,
          "internalType": "address",
          "name": "from",
          "type": "address"
        },
        {
          "indexed": true,
          "internalType": "address",
          "name": "to",
          "type": "address"
        },
        {
          "indexed": true,
          "internalType": "uint256",
          "name": "tokenId",
          "type": "uint256"
        }
      ],
      "name": "Transfer",
      "type": "event"
    },
    {
      "inputs": [],
      "name": "_tokenId",
      "outputs": [
        {
          "internalType": "uint256",
          "name": "",
          "type": "uint256"
        }
      ],
      "stateMutability": "view",
      "type": "function"
    },
    {
      "inputs": [
        {
          "internalType": "address",
          "name": "to",
          "type": "address"
        },
        {
          "internalType": "uint256",
          "name": "tokenId",
          "type": "uint256"
        }
      ],
      "name": "approve",
      "outputs": [],
      "stateMutability": "nonpayable",
      "type": "function"
    },
    {
      "inputs": [
        {
          "internalType": "address",
          "name": "owner",
          "type": "address"
        }
      ],
      "name": "balanceOf",
      "outputs": [
        {
          "internalType": "uint256",
          "name": "",
          "type": "uint256"
        }
      ],
      "stateMutability": "view",
      "type": "function"
    },
    {
      "inputs": [
        {
          "internalType": "uint256",
          "name": "tokenId",
          "type": "uint256"
        }
      ],
      "name": "getApproved",
      "outputs": [
        {
          "internalType": "address",
          "name": "",
          "type": "address"
        }
      ],
      "stateMutability": "view",
      "type": "function"
    },
    {
      "inputs": [
        {
          "internalType": "address",
          "name": "owner",
          "type": "address"
        },
        {
          "internalType": "address",
          "name": "operator",
          "type": "address"
        }
      ],
      "name": "isApprovedForAll",
      "outputs": [
        {
          "internalType": "bool",
          "name": "",
          "type": "bool"
        }
      ],
      "stateMutability": "view",
      "type": "function"
    },
    {
      "inputs": [],
      "name": "name",
      "outputs": [
        {
          "internalType": "string",
          "name": "",
          "type": "string"
        }
      ],
      "stateMutability": "view",
      "type": "function"
    },
    {
      "inputs": [],
      "name": "nextId",
      "outputs": [
        {
          "internalType": "uint256",
          "name": "",
          "type": "uint256"
        }
      ],
      "stateMutability": "view",
      "type": "function"
    },
    {
      "inputs": [],
      "name": "owner",
      "outputs": [
        {
          "internalType": "address",
          "name": "",
          "type": "address"
        }
      ],
      "stateMutability": "view",
      "type": "function"
    },
    {
      "inputs": [
        {
          "internalType": "uint256",
          "name": "tokenId",
          "type": "uint256"
        }
      ],
      "name": "ownerOf",
      "outputs": [
        {
          "internalType": "address",
          "name": "",
          "type": "address"
        }
      ],
      "stateMutability": "view",
      "type": "function"
    },
    {
      "inputs": [],
      "name": "renounceOwnership",
      "outputs": [],
      "stateMutability": "nonpayable",
      "type": "function"
    },
    {
      "inputs": [
        {
          "internalType": "address",
          "name": "to",
          "type": "address"
        },
        {
          "internalType": "string",
          "name": "uri",
          "type": "string"
        }
      ],
      "name": "safeMint",
      "outputs": [],
      "stateMutability": "nonpayable",
      "type": "function"
    },
    {
      "inputs": [
        {
          "internalType": "address",
          "name": "from",
          "type": "address"
        },
        {
          "internalType": "address",
          "name": "to",
          "type": "address"
        },
        {
          "internalType": "uint256",
          "name": "tokenId",
          "type": "uint256"
        }
      ],
      "name": "safeTransferFrom",
      "outputs": [],
      "stateMutability": "nonpayable",
      "type": "function"
    },
    {
      "inputs": [
        {
          "internalType": "address",
          "name": "from",
          "type": "address"
        },
        {
          "internalType": "address",
          "name": "to",
          "type": "address"
        },
        {
          "internalType": "uint256",
          "name": "tokenId",
          "type": "uint256"
        },
        {
          "internalType": "bytes",
          "name": "data",
          "type": "bytes"
        }
      ],
      "name": "safeTransferFrom",
      "outputs": [],
      "stateMutability": "nonpayable",
      "type": "function"
    },
    {
      "inputs": [
        {
          "internalType": "address",
          "name": "operator",
          "type": "address"
        },
        {
          "internalType": "bool",
          "name": "approved",
          "type": "bool"
        }
      ],
      "name": "setApprovalForAll",
      "outputs": [],
      "stateMutability": "nonpayable",
      "type": "function"
    },
    {
      "inputs": [
        {
          "internalType": "string",
          "name": "baseURI",
          "type": "string"
        }
      ],
      "name": "setBaseURI",
      "outputs": [],
      "stateMutability": "nonpayable",
      "type": "function"
    },
    {
      "inputs": [
        {
          "internalType": "bytes4",
          "name": "interfaceId",
          "type": "bytes4"
        }
      ],
      "name": "supportsInterface",
      "outputs": [
        {
          "internalType": "bool",
          "name": "",
          "type": "bool"
        }
      ],
      "stateMutability": "view",
      "type": "function"
    },
    {
      "inputs": [],
      "name": "symbol",
      "outputs": [
        {
          "internalType": "string",
          "name": "",
          "type": "string"
        }
      ],
      "stateMutability": "view",
      "type": "function"
    },
    {
      "inputs": [
        {
          "internalType": "uint256",
          "name": "tokenId",
          "type": "uint256"
        }
      ],
      "name": "tokenURI",
      "outputs": [
        {
          "internalType": "string",
          "name": "",
          "type": "string"
        }
      ],
      "stateMutability": "view",
      "type": "function"
    },
    {
      "inputs": [
        {
          "internalType": "address",
          "name": "from",
          "type": "address"
        },
        {
          "internalType": "address",
          "name": "to",
          "type": "address"
        },
        {
          "internalType": "uint256",
          "name": "tokenId",
          "type": "uint256"
        }
      ],
      "name": "transferFrom",
      "outputs": [],
      "stateMutability": "nonpayable",
      "type": "function"
    },
    {
      "inputs": [
        {
          "internalType": "address",
          "name": "newOwner",
          "type": "address"
        }
      ],
      "name": "transferOwnership",
      "outputs": [],
      "stateMutability": "nonpayable",
      "type": "function"
    }
  ],
  "bytecode": "0x608060405234801562000010575f80fd5b50604051620036503803806200365083398181016040528101906200003691906200034f565b6040518060400160405280600981526020017f53697465207061676500000000000000000000000000000000000000000000008152506040518060400160405280600481526020017f5349544500000000000000000000000000000000000000000000000000000000815250815f9081620000b29190620005d5565b508060019081620000c49190620005d5565b505050620000e7620000db6200010060201b60201c565b6200010760201b60201c565b8060099081620000f89190620005d5565b5050620006b9565b5f33905090565b5f60075f9054906101000a900473ffffffffffffffffffffffffffffffffffffffff1690508160075f6101000a81548173ffffffffffffffffffffffffffffffffffffffff021916908373ffffffffffffffffffffffffffffffffffffffff1602179055508173ffffffffffffffffffffffffffffffffffffffff168173ffffffffffffffffffffffffffffffffffffffff167f8be0079c531659141344cd1fd0a4f28419497f9722a3daafe3b4186f6b6457e060405160405180910390a35050565b5f604051905090565b5f80fd5b5f80fd5b5f80fd5b5f80fd5b5f601f19601f8301169050919050565b7f4e487b71000000000000000000000000000000000000000000000000000000005f52604160045260245ffd5b6200022b82620001e3565b810181811067ffffffffffffffff821117156200024d576200024c620001f3565b5b80604052505050565b5f62000261620001ca565b90506200026f828262000220565b919050565b5f67ffffffffffffffff821115620002915762000290620001f3565b5b6200029c82620001e3565b9050602081019050919050565b5f5b83811015620002c8578082015181840152602081019050620002ab565b5f8484015250505050565b5f620002e9620002e38462000274565b62000256565b905082815260208101848484011115620003085762000307620001df565b5b62000315848285620002a9565b509392505050565b5f82601f830112620003345762000333620001db565b5b815162000346848260208601620002d3565b91505092915050565b5f60208284031215620003675762000366620001d3565b5b5f82015167ffffffffffffffff811115620003875762000386620001d7565b5b62000395848285016200031d565b91505092915050565b5f81519050919050565b7f4e487b71000000000000000000000000000000000000000000000000000000005f52602260045260245ffd5b5f6002820490506001821680620003ed57607f821691505b602082108103620004035762000402620003a8565b5b50919050565b5f819050815f5260205f209050919050565b5f6020601f8301049050919050565b5f82821b905092915050565b5f60088302620004677fffffffffffffffffffffffffffffffffffffffffffffffffffffffffffffffff826200042a565b6200047386836200042a565b95508019841693508086168417925050509392505050565b5f819050919050565b5f819050919050565b5f620004bd620004b7620004b1846200048b565b62000494565b6200048b565b9050919050565b5f819050919050565b620004d8836200049d565b620004f0620004e782620004c4565b84845462000436565b825550505050565b5f90565b62000506620004f8565b62000513818484620004cd565b505050565b5b818110156200053a576200052e5f82620004fc565b60018101905062000519565b5050565b601f8211156200058957620005538162000409565b6200055e846200041b565b810160208510156200056e578190505b620005866200057d856200041b565b83018262000518565b50505b505050565b5f82821c905092915050565b5f620005ab5f19846008026200058e565b1980831691505092915050565b5f620005c583836200059a565b9150826002028217905092915050565b620005e0826200039e565b67ffffffffffffffff811115620005fc57620005fb620001f3565b5b620006088254620003d5565b620006158282856200053e565b5f60209050601f8311600181146200064b575f841562000636578287015190505b620006428582620005b8565b865550620006b1565b601f1984166200065b8662000409565b5f5b8281101562000684578489015182556001820191506020850194506020810190506200065d565b86831015620006a45784890151620006a0601f8916826200059a565b8355505b6001600288020188555050505b505050505050565b612f8980620006c75f395ff3fe608060405234801561000f575f80fd5b506004361061012a575f3560e01c806370a08231116100ab578063b88d4fde1161006f578063b88d4fde1461031a578063c87b56dd14610336578063d204c45e14610366578063e985e9c514610382578063f2fde38b146103b25761012a565b806370a0823114610288578063715018a6146102b85780638da5cb5b146102c257806395d89b41146102e0578063a22cb465146102fe5761012a565b806324822514116100f257806324822514146101e457806342842e0e1461020257806355f804b31461021e57806361b8ce8c1461023a5780636352211e146102585761012a565b806301ffc9a71461012e57806306fdde031461015e578063081812fc1461017c578063095ea7b3146101ac57806323b872dd146101c8575b5f80fd5b61014860048036038101906101439190611d51565b6103ce565b6040516101559190611d96565b60405180910390f35b6101666103df565b6040516101739190611e39565b60405180910390f35b61019660048036038101906101919190611e8c565b61046e565b6040516101a39190611ef6565b60405180910390f35b6101c660048036038101906101c19190611f39565b6104b0565b005b6101e260048036038101906101dd9190611f77565b6105c6565b005b6101ec610626565b6040516101f99190611fd6565b60405180910390f35b61021c60048036038101906102179190611f77565b61062c565b005b6102386004803603810190610233919061211b565b61064b565b005b610242610666565b60405161024f9190611fd6565b60405180910390f35b610272600480360381019061026d9190611e8c565b61066f565b60405161027f9190611ef6565b60405180910390f35b6102a2600480360381019061029d9190612162565b6106f3565b6040516102af9190611fd6565b60405180910390f35b6102c06107a7565b005b6102ca6107ba565b6040516102d79190611ef6565b60405180910390f35b6102e86107e2565b6040516102f59190611e39565b60405180910390f35b610318600480360381019061031391906121b7565b610872565b005b610334600480360381019061032f9190612293565b610888565b005b610350600480360381019061034b9190611e8c565b6108ea565b60405161035d9190611e39565b60405180910390f35b610380600480360381019061037b9190612313565b6108fc565b005b61039c6004803603810190610397919061236d565b610936565b6040516103a99190611d96565b60405180910390f35b6103cc60048036038101906103c79190612162565b6109c4565b005b5f6103d882610a46565b9050919050565b60605f80546103ed906123d8565b80601f0160208091040260200160405190810160405280929190818152602001828054610419906123d8565b80156104645780601f1061043b57610100808354040283529160200191610464565b820191905f5260205f20905b81548152906001019060200180831161044757829003601f168201915b5050505050905090565b5f61047882610aa6565b60045f8381526020019081526020015f205f9054906101000a900473ffffffffffffffffffffffffffffffffffffffff169050919050565b5f6104ba8261066f565b90508073ffffffffffffffffffffffffffffffffffffffff168373ffffffffffffffffffffffffffffffffffffffff160361052a576040517f08c379a000000000000000000000000000000000000000000000000000000000815260040161052190612478565b60405180910390fd5b8073ffffffffffffffffffffffffffffffffffffffff16610549610af1565b73ffffffffffffffffffffffffffffffffffffffff161480610578575061057781610572610af1565b610936565b5b6105b7576040517f08c379a00000000000000000000000000000000000000000000000000000000081526004016105ae90612506565b60405180910390fd5b6105c18383610af8565b505050565b6105d76105d1610af1565b82610bae565b610616576040517f08c379a000000000000000000000000000000000000000000000000000000000815260040161060d90612594565b60405180910390fd5b610621838383610c42565b505050565b60085481565b61064683838360405180602001604052805f815250610888565b505050565b610653610f2e565b8060099081610662919061274f565b5050565b5f600854905090565b5f8061067a83610fac565b90505f73ffffffffffffffffffffffffffffffffffffffff168173ffffffffffffffffffffffffffffffffffffffff16036106ea576040517f08c379a00000000000000000000000000000000000000000000000000000000081526004016106e190612868565b60405180910390fd5b80915050919050565b5f8073ffffffffffffffffffffffffffffffffffffffff168273ffffffffffffffffffffffffffffffffffffffff1603610762576040517f08c379a0000000000000000000000000000000000000000000000000000000008152600401610759906128f6565b60405180910390fd5b60035f8373ffffffffffffffffffffffffffffffffffffffff1673ffffffffffffffffffffffffffffffffffffffff1681526020019081526020015f20549050919050565b6107af610f2e565b6107b85f610fe5565b565b5f60075f9054906101000a900473ffffffffffffffffffffffffffffffffffffffff16905090565b6060600180546107f1906123d8565b80601f016020809104026020016040519081016040528092919081815260200182805461081d906123d8565b80156108685780601f1061083f57610100808354040283529160200191610868565b820191905f5260205f20905b81548152906001019060200180831161084b57829003601f168201915b5050505050905090565b61088461087d610af1565b83836110a8565b5050565b610899610893610af1565b83610bae565b6108d8576040517f08c379a00000000000000000000000000000000000000000000000000000000081526004016108cf90612594565b60405180910390fd5b6108e48484848461120f565b50505050565b60606108f58261126b565b9050919050565b610904610f2e565b5f60085f81548092919061091790612941565b9190505590506109278382611375565b6109318183611392565b505050565b5f60055f8473ffffffffffffffffffffffffffffffffffffffff1673ffffffffffffffffffffffffffffffffffffffff1681526020019081526020015f205f8373ffffffffffffffffffffffffffffffffffffffff1673ffffffffffffffffffffffffffffffffffffffff1681526020019081526020015f205f9054906101000a900460ff16905092915050565b6109cc610f2e565b5f73ffffffffffffffffffffffffffffffffffffffff168173ffffffffffffffffffffffffffffffffffffffff1603610a3a576040517f08c379a0000000000000000000000000000000000000000000000000000000008152600401610a31906129f8565b60405180910390fd5b610a4381610fe5565b50565b5f634906490660e01b7bffffffffffffffffffffffffffffffffffffffffffffffffffffffff1916827bffffffffffffffffffffffffffffffffffffffffffffffffffffffff19161480610a9f5750610a9e82611434565b5b9050919050565b610aaf81611515565b610aee576040517f08c379a0000000000000000000000000000000000000000000000000000000008152600401610ae590612868565b60405180910390fd5b50565b5f33905090565b8160045f8381526020019081526020015f205f6101000a81548173ffffffffffffffffffffffffffffffffffffffff021916908373ffffffffffffffffffffffffffffffffffffffff160217905550808273ffffffffffffffffffffffffffffffffffffffff16610b688361066f565b73ffffffffffffffffffffffffffffffffffffffff167f8c5be1e5ebec7d5bd14f71427d1e84f3dd0314c0f7b2291e5b200ac8c7c3b92560405160405180910390a45050565b5f80610bb98361066f565b90508073ffffffffffffffffffffffffffffffffffffffff168473ffffffffffffffffffffffffffffffffffffffff161480610bfb5750610bfa8185610936565b5b80610c3957508373ffffffffffffffffffffffffffffffffffffffff16610c218461046e565b73ffffffffffffffffffffffffffffffffffffffff16145b91505092915050565b8273ffffffffffffffffffffffffffffffffffffffff16610c628261066f565b73ffffffffffffffffffffffffffffffffffffffff1614610cb8576040517f08c379a0000000000000000000000000000000000000000000000000000000008152600401610caf90612a86565b60405180910390fd5b5f73ffffffffffffffffffffffffffffffffffffffff168273ffffffffffffffffffffffffffffffffffffffff1603610d26576040517f08c379a0000000000000000000000000000000000000000000000000000000008152600401610d1d90612b14565b60405180910390fd5b610d338383836001611555565b8273ffffffffffffffffffffffffffffffffffffffff16610d538261066f565b73ffffffffffffffffffffffffffffffffffffffff1614610da9576040517f08c379a0000000000000000000000000000000000000000000000000000000008152600401610da090612a86565b60405180910390fd5b60045f8281526020019081526020015f205f6101000a81549073ffffffffffffffffffffffffffffffffffffffff0219169055600160035f8573ffffffffffffffffffffffffffffffffffffffff1673ffffffffffffffffffffffffffffffffffffffff1681526020019081526020015f205f8282540392505081905550600160035f8473ffffffffffffffffffffffffffffffffffffffff1673ffffffffffffffffffffffffffffffffffffffff1681526020019081526020015f205f82825401925050819055508160025f8381526020019081526020015f205f6101000a81548173ffffffffffffffffffffffffffffffffffffffff021916908373ffffffffffffffffffffffffffffffffffffffff160217905550808273ffffffffffffffffffffffffffffffffffffffff168473ffffffffffffffffffffffffffffffffffffffff167fddf252ad1be2c89b69c2b068fc378daa952ba7f163c4a11628f55a4df523b3ef60405160405180910390a4610f29838383600161155b565b505050565b610f36610af1565b73ffffffffffffffffffffffffffffffffffffffff16610f546107ba565b73ffffffffffffffffffffffffffffffffffffffff1614610faa576040517f08c379a0000000000000000000000000000000000000000000000000000000008152600401610fa190612b7c565b60405180910390fd5b565b5f60025f8381526020019081526020015f205f9054906101000a900473ffffffffffffffffffffffffffffffffffffffff169050919050565b5f60075f9054906101000a900473ffffffffffffffffffffffffffffffffffffffff1690508160075f6101000a81548173ffffffffffffffffffffffffffffffffffffffff021916908373ffffffffffffffffffffffffffffffffffffffff1602179055508173ffffffffffffffffffffffffffffffffffffffff168173ffffffffffffffffffffffffffffffffffffffff167f8be0079c531659141344cd1fd0a4f28419497f9722a3daafe3b4186f6b6457e060405160405180910390a35050565b8173ffffffffffffffffffffffffffffffffffffffff168373ffffffffffffffffffffffffffffffffffffffff1603611116576040517f08c379a000000000000000000000000000000000000000000000000000000000815260040161110d90612be4565b60405180910390fd5b8060055f8573ffffffffffffffffffffffffffffffffffffffff1673ffffffffffffffffffffffffffffffffffffffff1681526020019081526020015f205f8473ffffffffffffffffffffffffffffffffffffffff1673ffffffffffffffffffffffffffffffffffffffff1681526020019081526020015f205f6101000a81548160ff0219169083151502179055508173ffffffffffffffffffffffffffffffffffffffff168373ffffffffffffffffffffffffffffffffffffffff167f17307eab39ab6107e8899845ad3d59bd9653f200f220920489ca2b5937696c31836040516112029190611d96565b60405180910390a3505050565b61121a848484610c42565b61122684848484611561565b611265576040517f08c379a000000000000000000000000000000000000000000000000000000000815260040161125c90612c72565b60405180910390fd5b50505050565b606061127682610aa6565b5f60065f8481526020019081526020015f208054611293906123d8565b80601f01602080910402602001604051908101604052809291908181526020018280546112bf906123d8565b801561130a5780601f106112e15761010080835404028352916020019161130a565b820191905f5260205f20905b8154815290600101906020018083116112ed57829003601f168201915b505050505090505f61131a6116e3565b90505f81510361132e578192505050611370565b5f8251111561136257808260405160200161134a929190612cca565b60405160208183030381529060405292505050611370565b61136b84611773565b925050505b919050565b61138e828260405180602001604052805f8152506117d8565b5050565b61139b82611515565b6113da576040517f08c379a00000000000000000000000000000000000000000000000000000000081526004016113d190612d5d565b60405180910390fd5b8060065f8481526020019081526020015f2090816113f8919061274f565b507ff8e1a15aba9398e019f0b49df1a4fde98ee17ae345cb5f6b5e2c27f5033e8ce7826040516114289190611fd6565b60405180910390a15050565b5f7f80ac58cd000000000000000000000000000000000000000000000000000000007bffffffffffffffffffffffffffffffffffffffffffffffffffffffff1916827bffffffffffffffffffffffffffffffffffffffffffffffffffffffff191614806114fe57507f5b5e139f000000000000000000000000000000000000000000000000000000007bffffffffffffffffffffffffffffffffffffffffffffffffffffffff1916827bffffffffffffffffffffffffffffffffffffffffffffffffffffffff1916145b8061150e575061150d82611832565b5b9050919050565b5f8073ffffffffffffffffffffffffffffffffffffffff1661153683610fac565b73ffffffffffffffffffffffffffffffffffffffff1614159050919050565b50505050565b50505050565b5f6115818473ffffffffffffffffffffffffffffffffffffffff1661189b565b156116d6578373ffffffffffffffffffffffffffffffffffffffff1663150b7a026115aa610af1565b8786866040518563ffffffff1660e01b81526004016115cc9493929190612dcd565b6020604051808303815f875af192505050801561160757506040513d601f19601f820116820180604052508101906116049190612e2b565b60015b611686573d805f8114611635576040519150601f19603f3d011682016040523d82523d5f602084013e61163a565b606091505b505f81510361167e576040517f08c379a000000000000000000000000000000000000000000000000000000000815260040161167590612c72565b60405180910390fd5b805181602001fd5b63150b7a0260e01b7bffffffffffffffffffffffffffffffffffffffffffffffffffffffff1916817bffffffffffffffffffffffffffffffffffffffffffffffffffffffff1916149150506116db565b600190505b949350505050565b6060600980546116f2906123d8565b80601f016020809104026020016040519081016040528092919081815260200182805461171e906123d8565b80156117695780601f1061174057610100808354040283529160200191611769565b820191905f5260205f20905b81548152906001019060200180831161174c57829003601f168201915b5050505050905090565b606061177e82610aa6565b5f6117876116e3565b90505f8151116117a55760405180602001604052805f8152506117d0565b806117af846118bd565b6040516020016117c0929190612cca565b6040516020818303038152906040525b915050919050565b6117e28383611987565b6117ee5f848484611561565b61182d576040517f08c379a000000000000000000000000000000000000000000000000000000000815260040161182490612c72565b60405180910390fd5b505050565b5f7f01ffc9a7000000000000000000000000000000000000000000000000000000007bffffffffffffffffffffffffffffffffffffffffffffffffffffffff1916827bffffffffffffffffffffffffffffffffffffffffffffffffffffffff1916149050919050565b5f808273ffffffffffffffffffffffffffffffffffffffff163b119050919050565b60605f60016118cb84611b9a565b0190505f8167ffffffffffffffff8111156118e9576118e8611ff7565b5b6040519080825280601f01601f19166020018201604052801561191b5781602001600182028036833780820191505090505b5090505f82602001820190505b60011561197c578080600190039150507f3031323334353637383961626364656600000000000000000000000000000000600a86061a8153600a858161197157611970612e56565b5b0494505f8503611928575b819350505050919050565b5f73ffffffffffffffffffffffffffffffffffffffff168273ffffffffffffffffffffffffffffffffffffffff16036119f5576040517f08c379a00000000000000000000000000000000000000000000000000000000081526004016119ec90612ecd565b60405180910390fd5b6119fe81611515565b15611a3e576040517f08c379a0000000000000000000000000000000000000000000000000000000008152600401611a3590612f35565b60405180910390fd5b611a4b5f83836001611555565b611a5481611515565b15611a94576040517f08c379a0000000000000000000000000000000000000000000000000000000008152600401611a8b90612f35565b60405180910390fd5b600160035f8473ffffffffffffffffffffffffffffffffffffffff1673ffffffffffffffffffffffffffffffffffffffff1681526020019081526020015f205f82825401925050819055508160025f8381526020019081526020015f205f6101000a81548173ffffffffffffffffffffffffffffffffffffffff021916908373ffffffffffffffffffffffffffffffffffffffff160217905550808273ffffffffffffffffffffffffffffffffffffffff165f73ffffffffffffffffffffffffffffffffffffffff167fddf252ad1be2c89b69c2b068fc378daa952ba7f163c4a11628f55a4df523b3ef60405160405180910390a4611b965f8383600161155b565b5050565b5f805f90507a184f03e93ff9f4daa797ed6e38ed64bf6a1f0100000000000000008310611bf6577a184f03e93ff9f4daa797ed6e38ed64bf6a1f0100000000000000008381611bec57611beb612e56565b5b0492506040810190505b6d04ee2d6d415b85acef81000000008310611c33576d04ee2d6d415b85acef81000000008381611c2957611c28612e56565b5b0492506020810190505b662386f26fc100008310611c6257662386f26fc100008381611c5857611c57612e56565b5b0492506010810190505b6305f5e1008310611c8b576305f5e1008381611c8157611c80612e56565b5b0492506008810190505b6127108310611cb0576127108381611ca657611ca5612e56565b5b0492506004810190505b60648310611cd35760648381611cc957611cc8612e56565b5b0492506002810190505b600a8310611ce2576001810190505b80915050919050565b5f604051905090565b5f80fd5b5f80fd5b5f7fffffffff0000000000000000000000000000000000000000000000000000000082169050919050565b611d3081611cfc565b8114611d3a575f80fd5b50565b5f81359050611d4b81611d27565b92915050565b5f60208284031215611d6657611d65611cf4565b5b5f611d7384828501611d3d565b91505092915050565b5f8115159050919050565b611d9081611d7c565b82525050565b5f602082019050611da95f830184611d87565b92915050565b5f81519050919050565b5f82825260208201905092915050565b5f5b83811015611de6578082015181840152602081019050611dcb565b5f8484015250505050565b5f601f19601f8301169050919050565b5f611e0b82611daf565b611e158185611db9565b9350611e25818560208601611dc9565b611e2e81611df1565b840191505092915050565b5f6020820190508181035f830152611e518184611e01565b905092915050565b5f819050919050565b611e6b81611e59565b8114611e75575f80fd5b50565b5f81359050611e8681611e62565b92915050565b5f60208284031215611ea157611ea0611cf4565b5b5f611eae84828501611e78565b91505092915050565b5f73ffffffffffffffffffffffffffffffffffffffff82169050919050565b5f611ee082611eb7565b9050919050565b611ef081611ed6565b82525050565b5f602082019050611f095f830184611ee7565b92915050565b611f1881611ed6565b8114611f22575f80fd5b50565b5f81359050611f3381611f0f565b92915050565b5f8060408385031215611f4f57611f4e611cf4565b5b5f611f5c85828601611f25565b9250506020611f6d85828601611e78565b9150509250929050565b5f805f60608486031215611f8e57611f8d611cf4565b5b5f611f9b86828701611f25565b9350506020611fac86828701611f25565b9250506040611fbd86828701611e78565b9150509250925092565b611fd081611e59565b82525050565b5f602082019050611fe95f830184611fc7565b92915050565b5f80fd5b5f80fd5b7f4e487b71000000000000000000000000000000000000000000000000000000005f52604160045260245ffd5b61202d82611df1565b810181811067ffffffffffffffff8211171561204c5761204b611ff7565b5b80604052505050565b5f61205e611ceb565b905061206a8282612024565b919050565b5f67ffffffffffffffff82111561208957612088611ff7565b5b61209282611df1565b9050602081019050919050565b828183375f83830152505050565b5f6120bf6120ba8461206f565b612055565b9050828152602081018484840111156120db576120da611ff3565b5b6120e684828561209f565b509392505050565b5f82601f83011261210257612101611fef565b5b81356121128482602086016120ad565b91505092915050565b5f602082840312156121305761212f611cf4565b5b5f82013567ffffffffffffffff81111561214d5761214c611cf8565b5b612159848285016120ee565b91505092915050565b5f6020828403121561217757612176611cf4565b5b5f61218484828501611f25565b91505092915050565b61219681611d7c565b81146121a0575f80fd5b50565b5f813590506121b18161218d565b92915050565b5f80604083850312156121cd576121cc611cf4565b5b5f6121da85828601611f25565b92505060206121eb858286016121a3565b9150509250929050565b5f67ffffffffffffffff82111561220f5761220e611ff7565b5b61221882611df1565b9050602081019050919050565b5f612237612232846121f5565b612055565b90508281526020810184848401111561225357612252611ff3565b5b61225e84828561209f565b509392505050565b5f82601f83011261227a57612279611fef565b5b813561228a848260208601612225565b91505092915050565b5f805f80608085870312156122ab576122aa611cf4565b5b5f6122b887828801611f25565b94505060206122c987828801611f25565b93505060406122da87828801611e78565b925050606085013567ffffffffffffffff8111156122fb576122fa611cf8565b5b61230787828801612266565b91505092959194509250565b5f806040838503121561232957612328611cf4565b5b5f61233685828601611f25565b925050602083013567ffffffffffffffff81111561235757612356611cf8565b5b612363858286016120ee565b9150509250929050565b5f806040838503121561238357612382611cf4565b5b5f61239085828601611f25565b92505060206123a185828601611f25565b9150509250929050565b7f4e487b71000000000000000000000000000000000000000000000000000000005f52602260045260245ffd5b5f60028204905060018216806123ef57607f821691505b602082108103612402576124016123ab565b5b50919050565b7f4552433732313a20617070726f76616c20746f2063757272656e74206f776e655f8201527f7200000000000000000000000000000000000000000000000000000000000000602082015250565b5f612462602183611db9565b915061246d82612408565b604082019050919050565b5f6020820190508181035f83015261248f81612456565b9050919050565b7f4552433732313a20617070726f76652063616c6c6572206973206e6f7420746f5f8201527f6b656e206f776e6572206f7220617070726f76656420666f7220616c6c000000602082015250565b5f6124f0603d83611db9565b91506124fb82612496565b604082019050919050565b5f6020820190508181035f83015261251d816124e4565b9050919050565b7f4552433732313a2063616c6c6572206973206e6f7420746f6b656e206f776e655f8201527f72206f7220617070726f76656400000000000000000000000000000000000000602082015250565b5f61257e602d83611db9565b915061258982612524565b604082019050919050565b5f6020820190508181035f8301526125ab81612572565b9050919050565b5f819050815f5260205f209050919050565b5f6020601f8301049050919050565b5f82821b905092915050565b5f6008830261260e7fffffffffffffffffffffffffffffffffffffffffffffffffffffffffffffffff826125d3565b61261886836125d3565b95508019841693508086168417925050509392505050565b5f819050919050565b5f61265361264e61264984611e59565b612630565b611e59565b9050919050565b5f819050919050565b61266c83612639565b6126806126788261265a565b8484546125df565b825550505050565b5f90565b612694612688565b61269f818484612663565b505050565b5b818110156126c2576126b75f8261268c565b6001810190506126a5565b5050565b601f821115612707576126d8816125b2565b6126e1846125c4565b810160208510156126f0578190505b6127046126fc856125c4565b8301826126a4565b50505b505050565b5f82821c905092915050565b5f6127275f198460080261270c565b1980831691505092915050565b5f61273f8383612718565b9150826002028217905092915050565b61275882611daf565b67ffffffffffffffff81111561277157612770611ff7565b5b61277b82546123d8565b6127868282856126c6565b5f60209050601f8311600181146127b7575f84156127a5578287015190505b6127af8582612734565b865550612816565b601f1984166127c5866125b2565b5f5b828110156127ec578489015182556001820191506020850194506020810190506127c7565b868310156128095784890151612805601f891682612718565b8355505b6001600288020188555050505b505050505050565b7f4552433732313a20696e76616c696420746f6b656e20494400000000000000005f82015250565b5f612852601883611db9565b915061285d8261281e565b602082019050919050565b5f6020820190508181035f83015261287f81612846565b9050919050565b7f4552433732313a2061646472657373207a65726f206973206e6f7420612076615f8201527f6c6964206f776e65720000000000000000000000000000000000000000000000602082015250565b5f6128e0602983611db9565b91506128eb82612886565b604082019050919050565b5f6020820190508181035f83015261290d816128d4565b9050919050565b7f4e487b71000000000000000000000000000000000000000000000000000000005f52601160045260245ffd5b5f61294b82611e59565b91507fffffffffffffffffffffffffffffffffffffffffffffffffffffffffffffffff820361297d5761297c612914565b5b600182019050919050565b7f4f776e61626c653a206e6577206f776e657220697320746865207a65726f20615f8201527f6464726573730000000000000000000000000000000000000000000000000000602082015250565b5f6129e2602683611db9565b91506129ed82612988565b604082019050919050565b5f6020820190508181035f830152612a0f816129d6565b9050919050565b7f4552433732313a207472616e736665722066726f6d20696e636f7272656374205f8201527f6f776e6572000000000000000000000000000000000000000000000000000000602082015250565b5f612a70602583611db9565b9150612a7b82612a16565b604082019050919050565b5f6020820190508181035f830152612a9d81612a64565b9050919050565b7f4552433732313a207472616e7366657220746f20746865207a65726f206164645f8201527f7265737300000000000000000000000000000000000000000000000000000000602082015250565b5f612afe602483611db9565b9150612b0982612aa4565b604082019050919050565b5f6020820190508181035f830152612b2b81612af2565b9050919050565b7f4f776e61626c653a2063616c6c6572206973206e6f7420746865206f776e65725f82015250565b5f612b66602083611db9565b9150612b7182612b32565b602082019050919050565b5f6020820190508181035f830152612b9381612b5a565b9050919050565b7f4552433732313a20617070726f766520746f2063616c6c6572000000000000005f82015250565b5f612bce601983611db9565b9150612bd982612b9a565b602082019050919050565b5f6020820190508181035f830152612bfb81612bc2565b9050919050565b7f4552433732313a207472616e7366657220746f206e6f6e2045524337323152655f8201527f63656976657220696d706c656d656e7465720000000000000000000000000000602082015250565b5f612c5c603283611db9565b9150612c6782612c02565b604082019050919050565b5f6020820190508181035f830152612c8981612c50565b9050919050565b5f81905092915050565b5f612ca482611daf565b612cae8185612c90565b9350612cbe818560208601611dc9565b80840191505092915050565b5f612cd58285612c9a565b9150612ce18284612c9a565b91508190509392505050565b7f45524337323155524953746f726167653a2055524920736574206f66206e6f6e5f8201527f6578697374656e7420746f6b656e000000000000000000000000000000000000602082015250565b5f612d47602e83611db9565b9150612d5282612ced565b604082019050919050565b5f6020820190508181035f830152612d7481612d3b565b9050919050565b5f81519050919050565b5f82825260208201905092915050565b5f612d9f82612d7b565b612da98185612d85565b9350612db9818560208601611dc9565b612dc281611df1565b840191505092915050565b5f608082019050612de05f830187611ee7565b612ded6020830186611ee7565b612dfa6040830185611fc7565b8181036060830152612e0c8184612d95565b905095945050505050565b5f81519050612e2581611d27565b92915050565b5f60208284031215612e4057612e3f611cf4565b5b5f612e4d84828501612e17565b91505092915050565b7f4e487b71000000000000000000000000000000000000000000000000000000005f52601260045260245ffd5b7f4552433732313a206d696e7420746f20746865207a65726f20616464726573735f82015250565b5f612eb7602083611db9565b9150612ec282612e83565b602082019050919050565b5f6020820190508181035f830152612ee481612eab565b9050919050565b7f4552433732313a20746f6b656e20616c7265616479206d696e746564000000005f82015250565b5f612f1f601c83611db9565b9150612f2a82612eeb565b602082019050919050565b5f6020820190508181035f830152612f4c81612f13565b905091905056fea264697066735822122063c64f8cc29107b7f1ff56479cf01139156b0c5602220af9bc9cb7e0d566b53a64736f6c63430008140033",
  "linkReferences": {},
  "deployedLinkReferences": {}
}