{
  "_format": "hh-sol-artifact-1",
  "contractName": "CrossChainExecutorList",
  "sourceName": "contracts/CrossChainExecutorList.sol",
  "abi": [
    {
      "anonymous": false,
      "inputs": [
        {
          "indexed": true,
          "internalType": "address",
          "name": "previousOwner",
          "type": "address"
        },
        {
          "indexed": true,
          "internalType": "address",
          "name": "newOwner",
          "type": "address"
        }
      ],
      "name": "OwnershipTransferStarted",
      "type": "event"
    },
    {
      "anonymous": false,
      "inputs": [
        {
          "indexed": true,
          "internalType": "address",
          "name": "previousOwner",
          "type": "address"
        },
        {
          "indexed": true,
          "internalType": "address",
          "name": "newOwner",
          "type": "address"
        }
      ],
      "name": "OwnershipTransferred",
      "type": "event"
    },
    {
      "inputs": [],
      "name": "acceptOwnership",
      "outputs": [],
      "stateMutability": "nonpayable",
      "type": "function"
    },
    {
      "inputs": [
        {
          "internalType": "uint256",
          "name": "",
          "type": "uint256"
        },
        {
          "internalType": "address",
          "name": "",
          "type": "address"
        }
      ],
      "name": "isCrossChainExecutor",
      "outputs": [
        {
          "internalType": "bool",
          "name": "",
          "type": "bool"
        }
      ],
      "stateMutability": "view",
      "type": "function"
    },
    {
      "inputs": [],
      "name": "owner",
      "outputs": [
        {
          "internalType": "address",
          "name": "",
          "type": "address"
        }
      ],
      "stateMutability": "view",
      "type": "function"
    },
    {
      "inputs": [],
      "name": "pendingOwner",
      "outputs": [
        {
          "internalType": "address",
          "name": "",
          "type": "address"
        }
      ],
      "stateMutability": "view",
      "type": "function"
    },
    {
      "inputs": [],
      "name": "renounceOwnership",
      "outputs": [],
      "stateMutability": "nonpayable",
      "type": "function"
    },
    {
      "inputs": [
        {
          "internalType": "uint256",
          "name": "chainId",
          "type": "uint256"
        },
        {
          "internalType": "address",
          "name": "executor",
          "type": "address"
        },
        {
          "internalType": "bool",
          "name": "enabled",
          "type": "bool"
        }
      ],
      "name": "setCrossChainExecutor",
      "outputs": [],
      "stateMutability": "nonpayable",
      "type": "function"
    },
    {
      "inputs": [
        {
          "internalType": "address",
          "name": "newOwner",
          "type": "address"
        }
      ],
      "name": "transferOwnership",
      "outputs": [],
      "stateMutability": "nonpayable",
      "type": "function"
    }
  ],
  "bytecode": "0x608060405234801561000f575f80fd5b5061002c61002161003160201b60201c565b61003860201b60201c565b61012f565b5f33905090565b60015f6101000a81549073ffffffffffffffffffffffffffffffffffffffff021916905561006b8161006e60201b60201c565b50565b5f805f9054906101000a900473ffffffffffffffffffffffffffffffffffffffff169050815f806101000a81548173ffffffffffffffffffffffffffffffffffffffff021916908373ffffffffffffffffffffffffffffffffffffffff1602179055508173ffffffffffffffffffffffffffffffffffffffff168173ffffffffffffffffffffffffffffffffffffffff167f8be0079c531659141344cd1fd0a4f28419497f9722a3daafe3b4186f6b6457e060405160405180910390a35050565b6107ec8061013c5f395ff3fe608060405234801561000f575f80fd5b506004361061007b575f3560e01c80638da5cb5b116100595780638da5cb5b146100af578063c8552afd146100cd578063e30c3978146100fd578063f2fde38b1461011b5761007b565b8063117eb4651461007f578063715018a61461009b57806379ba5097146100a5575b5f80fd5b610099600480360381019061009491906105a7565b610137565b005b6100a36101a7565b005b6100ad6101ba565b005b6100b7610246565b6040516100c49190610606565b60405180910390f35b6100e760048036038101906100e2919061061f565b61026d565b6040516100f4919061066c565b60405180910390f35b610105610297565b6040516101129190610606565b60405180910390f35b61013560048036038101906101309190610685565b6102bf565b005b61013f61036b565b8060025f8581526020019081526020015f205f8473ffffffffffffffffffffffffffffffffffffffff1673ffffffffffffffffffffffffffffffffffffffff1681526020019081526020015f205f6101000a81548160ff021916908315150217905550505050565b6101af61036b565b6101b85f6103e9565b565b5f6101c3610419565b90508073ffffffffffffffffffffffffffffffffffffffff166101e4610297565b73ffffffffffffffffffffffffffffffffffffffff161461023a576040517f08c379a000000000000000000000000000000000000000000000000000000000815260040161023190610730565b60405180910390fd5b610243816103e9565b50565b5f805f9054906101000a900473ffffffffffffffffffffffffffffffffffffffff16905090565b6002602052815f5260405f20602052805f5260405f205f915091509054906101000a900460ff1681565b5f60015f9054906101000a900473ffffffffffffffffffffffffffffffffffffffff16905090565b6102c761036b565b8060015f6101000a81548173ffffffffffffffffffffffffffffffffffffffff021916908373ffffffffffffffffffffffffffffffffffffffff1602179055508073ffffffffffffffffffffffffffffffffffffffff16610326610246565b73ffffffffffffffffffffffffffffffffffffffff167f38d16b8cac22d99fc7c124b9cd0de2d3fa1faef420bfe791d8c362d765e2270060405160405180910390a350565b610373610419565b73ffffffffffffffffffffffffffffffffffffffff16610391610246565b73ffffffffffffffffffffffffffffffffffffffff16146103e7576040517f08c379a00000000000000000000000000000000000000000000000000000000081526004016103de90610798565b60405180910390fd5b565b60015f6101000a81549073ffffffffffffffffffffffffffffffffffffffff021916905561041681610420565b50565b5f33905090565b5f805f9054906101000a900473ffffffffffffffffffffffffffffffffffffffff169050815f806101000a81548173ffffffffffffffffffffffffffffffffffffffff021916908373ffffffffffffffffffffffffffffffffffffffff1602179055508173ffffffffffffffffffffffffffffffffffffffff168173ffffffffffffffffffffffffffffffffffffffff167f8be0079c531659141344cd1fd0a4f28419497f9722a3daafe3b4186f6b6457e060405160405180910390a35050565b5f80fd5b5f819050919050565b6104f7816104e5565b8114610501575f80fd5b50565b5f81359050610512816104ee565b92915050565b5f73ffffffffffffffffffffffffffffffffffffffff82169050919050565b5f61054182610518565b9050919050565b61055181610537565b811461055b575f80fd5b50565b5f8135905061056c81610548565b92915050565b5f8115159050919050565b61058681610572565b8114610590575f80fd5b50565b5f813590506105a18161057d565b92915050565b5f805f606084860312156105be576105bd6104e1565b5b5f6105cb86828701610504565b93505060206105dc8682870161055e565b92505060406105ed86828701610593565b9150509250925092565b61060081610537565b82525050565b5f6020820190506106195f8301846105f7565b92915050565b5f8060408385031215610635576106346104e1565b5b5f61064285828601610504565b92505060206106538582860161055e565b9150509250929050565b61066681610572565b82525050565b5f60208201905061067f5f83018461065d565b92915050565b5f6020828403121561069a576106996104e1565b5b5f6106a78482850161055e565b91505092915050565b5f82825260208201905092915050565b7f4f776e61626c6532537465703a2063616c6c6572206973206e6f7420746865205f8201527f6e6577206f776e65720000000000000000000000000000000000000000000000602082015250565b5f61071a6029836106b0565b9150610725826106c0565b604082019050919050565b5f6020820190508181035f8301526107478161070e565b9050919050565b7f4f776e61626c653a2063616c6c6572206973206e6f7420746865206f776e65725f82015250565b5f6107826020836106b0565b915061078d8261074e565b602082019050919050565b5f6020820190508181035f8301526107af81610776565b905091905056fea26469706673582212201ee6233fbee677ec7b76189be87bcb15b5273ed6e12c3272031548890e95a42764736f6c63430008140033",
  "linkReferences": {},
  "deployedLinkReferences": {}
}